:020000040804EE
:1000000000000824C902060809FE050811FE0508BB
:1000100019FE050821FE050829FE0508000000005C
:1000200000000000000000000000000041870508FB
:1000300031FE050800000000018A0508698A0508EC
:100040001D0306081D0306081D0306081D030608F8
:100050001D0306081D0306081D0306081D030608E8
:100060001D0306081D0306081D03060841FE0508BA
:10007000C5FE05081D0306081D0306081D03060826
:100080001D0306081D0306081D0306081D030608B8
:100090001D0306081D0306081D0306081D030608A8
:1000A0001D03060849FF05081D0306081D03060871
:1000B0001D0306081D0306081D0306081D03060888
:1000C0001D0306081D0306081D0306081D03060878
:1000D0001D03060855FF05088DFF05081D030608CA
:1000E0001D0306081D030608000000001D03060886
:1000F0001D0306081D0306081D030608C5FF0508A5
:100100001D0306080D0006081D0306081D0306084A
:100110001D0306081D0306081D0306082100060826
:100120001D030608350006081D0306081D03060802
:100130001D0306081D0306081D0306081D03060807
:100140001D0306081D030608000000000000000053
:100150001D0306081D0306081D0306081D030608E7
:100160001D0306081D0306081D0306081D030608D7
:100170001D0306081D0306081D03060800000000F5
:100180001D0306081D030608B90006081D0306081E
:100190001D030608F1000608FF0006081D030608F7
:1001A0001D0306081D0306081D0306081D03060897
:1001B0001D0306081D0306081D0306081D03060887
:1001C0001D0306081D0306081D0306081D03060877
:1001D0001D0306081D0306081D0306081D03060867
:1001E0001D0306081D0306081D0306081D03060857
:1001F0001D0306081D0306081D0306081D03060847
:100200001D0306081D0306081D0306081D03060836
:100210001D0306081D0306081D0306081D03060826
:100220001D0306081D0306080D0106080000000056
:100230001D0306081D0306081D0306081D03060806
:100240001D030608210106082D0106081D030608E6
:100250001D0306081D0306081D0306081D030608E6
:100260001D0306081D0306081D0306081D030608D6
:100270001D0306081D0306081D0306081D030608C6
:100280001D0306081D0306081D03060800000000E4
:080290001D0306081D0306080A
:1002A00010B5054C237833B9044B13B10448AFF3B0
:1002B00000800123237010BD684A01240000000063
:1002C000B0A8060808B5034B1BB103490348AFF3B8
:1002D000008008BD000000006C4A0124B0A8060898
:1002E00010F8012B11F8013B012A28BF9A42F7D0E0
:1002F000D01A7047034613F8012B002AFBD1181AB5
:1003000001387047000000000000000000000000FD
:1003100001F0FF01102A2BDB10F0070F08D010F8B6
:10032000013B013A8B422DD010F0070F42B3F6D1BA
:10033000F0B441EA012141EA014122F007047FF0D3
:1003400000070023F0E80256083C85EA010586EA2A
:10035000010685FA47F5A3FA87F586FA47F6A5FA66
:1003600087F68EB9EED1F0BC01F0FF0102F0070272
:1003700032B110F8013B013A83EA010313B1F8D11D
:100380000020704701387047002D06BF35460338FE
:10039000073815F0010F07D1013015F4807F02BF37
:1003A000013015F4C03F0130F0BC0138704700BF88
:1003B00053B94AB9002908BF00281CBF4FF0FF31CC
:1003C0004FF0FF3000F088B9ADF1080C6DE904CEB4
:1003D00000F006F8DDF804E0DDE9022304B0704720
:1003E0002DE9F047089D8E4604468846002B4AD1E9
:1003F0008A42174662D9B2FA82F64EB1C6F120039C
:1004000001FA06F820FA03F3B74043EA0808B440BB
:100410004FEA174E1FFA87FCB8FBFEF1230C0EFBC8
:10042000118843EA084301FB0CF29A4209D9FB18F0
:1004300001F1FF3080F0EA809A4240F2E780023911
:100440003B449A1AA3B2B2FBFEF00EFB102243EA21
:10045000024300FB0CFC9C4509D9FB1800F1FF325C
:1004600080F0D6809C4540F2D3803B44023840EA7D
:100470000140A3EB0C0300211DB1F3400022C5E9AC
:100480000032BDE8F0878B4205D90DB1C5E9000106
:1004900000210846F5E7B3FA83F1002946D17345F8
:1004A00002D3824200F20581841A6EEB030201201E
:1004B0009046002DE5D0C5E90048E2E7002A00F0AB
:1004C0009080B2FA82F6002E40F0A4808A1A030CC3
:1004D0004FEA174E80B2BCB20121B2FBFEFC0EFB0C
:1004E0001C2243EA024304FB0CF29A4207D9FB1890
:1004F0000CF1FF3802D29A4200F2E080C4469B1A07
:10050000B3FBFEF20EFB123340EA034302FB04F49A
:100510009C4207D9FB1802F1FF3002D29C4200F244
:10052000CA8002461B1B42EA0C40A5E7C1F1200627
:100530008B4022FA06F71F430EFA01F420FA06F365
:100540002EFA06FE4FEA1749234300FA01F81FFA74
:1005500087FCBEFBF9F01C0C09FB10EE44EA0E44CC
:1005600000FB0CFEA64502FA01F209D93C1900F184
:10057000FF3A80F09C80A64540F2998002383C44C6
:10058000A4EB0E041FFA83FEB4FBF9F309FB13443A
:100590004EEA044403FB0CFCA44508D93C1903F1C2
:1005A000FF3E80F08280A4457FD9023B3C4443EA71
:1005B0000040A4EB0C04A0FB02EC64457346E1464A
:1005C00062D35FD05DB1B8EB030264EB090404FAB7
:1005D00006F622FA01F31E43CC40C5E9006400216F
:1005E0004FE7B1FBF2FC010C41EA0E4180B240EA58
:1005F00001423B4638463C46B846BE462026B1FB43
:10060000F7F1A2EB080241EA0C4166E7014618E760
:1006100010462CE7C6F120022EFA02F3B740B14093
:1006200020FA02F24FEA174E0A43B3FBFEF8BCB2BF
:100630000EFB1833110C41EA034108FB04F9B040EA
:1006400089454FEA104380B23ED9791808F1FF3C42
:1006500001D289451FD8A1EB0901B1FBFEF909FBC5
:1006600004F80EFB191192B242EA0142424529D226
:10067000BA1809F1FF31C4D24245C2D2A9F1020130
:100680003A44BEE7F0459DD2BEEB02036CEB070C8B
:100690000138E14696E7A7EB09094944A8F1020CA5
:1006A000B1FBFEF909FB04F8DBE773467FE7504630
:1006B00066E70846FDE63B44023A33E7ACF1020C3C
:1006C0003B441CE749469CE7A1EB0901C446B1FB4A
:1006D000FEF909FB04F8C4E7704700BF80B582B09B
:1006E00000AF0123FB711C4B01221A701B480BF059
:1006F00083FD10221A491B480BF0D6FE01F02CFF97
:100700000346FB710BF070FE0DF0F6F9002001F0CE
:10071000C5FC154A022100200BF0A6F9124A00215F
:1007200000200BF0A1F9104A012100200BF09CF9E8
:100730000D4A032100200BF097F90B4A04210020F9
:100740000BF092F9084A052100200BF08DF9FB7996
:1007500018460837BD4680BD844A01240058004031
:100760000010025800340140C8A8060880B500AF48
:10077000044A022100200BF077F900F00BF900BFCA
:1007800080BD00BFDCA80608B0B588B004AF012367
:10079000FB73204B02221A701F4A002100200BF02D
:1007A00063F918F0C1FE18F009FD18F097FF0DF07D
:1007B0006DFA0346FB730DF069FA0346002B1DD159
:1007C000164A022100200BF041F83B1D18460DF09F
:1007D000D7F9BB7903F5FA63BB813B791C467B797A
:1007E0001D46BB89FA79397A787A02900191009294
:1007F0002A4621461A2018F0A3FE05E0054AFB7B95
:100800009370044B07221A70FB7B18461037BD46C5
:10081000B0BD00BF844A0124F0A8060808A9060854
:1008200080B582B000AF204B03221A700123FB7108
:100830001E4A002100200BF017F905F04BFA034681
:10084000FB71FB79002B0BD0194A042101200AF01F
:10085000FDFF154AFB799370134B07221A7004E0D1
:10086000144A022100200AF0F1FF07F037FC03468A
:10087000FB71FB79002B0BD00F4A042101200AF0F9
:10088000E5FF094AFB799370074B07221A7004E0D1
:100890000A4A022100200AF0D9FF0BF083FAFB7903
:1008A00018460837BD4680BD844A012418A90608A9
:1008B00030A906084CA9060868A906087CA90608FC
:1008C00080B582B000AF214B04221A700123FB7166
:1008D0001F4A002100200BF0C7F80CF089FC0346EA
:1008E000FB71FB79002B0BD01A4A042101200AF07E
:1008F000ADFF164AFB799370144B07221A7004E07F
:10090000154A022100200AF0A1FF102213491448C1
:100910000CF034F90346FB71FB79002B0BD0114A24
:10092000042101200AF092FF084AFB799370074BDB
:1009300007221A7004E00C4A022100200AF086FF08
:10094000FB7918460837BD4680BD00BF844A0124A4
:1009500094A90608ACA90608C4A906080000025814
:1009600000140058DCA90608F4A9060880B500AFF9
:10097000064B05221A70054B06221A70044A002104
:1009800000200BF071F80023184680BD844A012432
:100990000CAA060880B500AF00F07CF900BF80BD4E
:1009A00080B5C2B000AF07F58473A3F582731860F9
:1009B00007F58473A3F58473196007F58473A3F5B1
:1009C000847307F108001B68084A4FF4807128F00F
:1009D00007FE07F108030122194605200BF0E8F88D
:1009E00000BF07F58477BD4680BD00BF24AA060876
:1009F00080B5C0B000AF3B46084A4FF4807118463E
:100A000028F0EEFD3B460122194605200BF0D0F8F8
:100A100000BF07F58077BD4680BD00BF40AA06082D
:100A200080B500AF032000F003F800BF80BD0000D8
:100A300080B483B000AF0346FB71FB79032B0BD866
:100A400001A252F823F000BF590A0408590A040809
:100A5000590A0408590A040800BF00BF0C37BD46F4
:100A60005DF8047B704700BF80B400AF03231846D5
:100A7000BD465DF8047B704780B483B000AF034689
:100A8000FB71064AFB791370054B00221A7000BFF8
:100A90000C37BD465DF8047B704700BF874A0124D0
:100AA000884A012480B400AF034B1B781846BD462A
:100AB0005DF8047B704700BF874A012480B483B08F
:100AC00000AF0346FB71FB795C2B06D10E4B1B7804
:100AD0000133DAB20C4B1A7002E00B4B00221A7091
:100AE000094B1B78092B07D9084B00221A70064BBB
:100AF00000221A70012300E0002318460C37BD467F
:100B00005DF8047B704700BF884A0124874A0124AE
:100B100080B483B000AF78607B68DB6903F040038A
:100B2000402B01D1012300E0002318460C37BD46BD
:100B30005DF8047B704780B483B000AF78607B6859
:100B4000DB6903F08003802B01D1012300E0002347
:100B500018460C37BD465DF8047B704780B483B0FF
:100B600000AF78600B46FB70FA787B689A6200BF32
:100B70000C37BD465DF8047B704780B483B000AF8E
:100B8000786039607B681A693B6813403A689A421A
:100B900001D1012300E0002318460C37BD465DF863
:100BA000047B704780B483B000AF786039607B68A5
:100BB0003A689A6100BF0C37BD465DF8047B704708
:100BC00080B483B000AF786039603B681A047B68FA
:100BD0009A6100BF0C37BD465DF8047B704700008A
:100BE00080B584B000AF0346FB71FB79FB73FB7BE0
:100BF0001946034801F066FE00BF1037BD4680BDB0
:100C00000010014080B584B000AF78600023FB6025
:100C100014E00E4AFB6852F8333079681846FFF743
:100C20005FFB0346002B06D1084AFB68DB00134438
:100C300001221A7106E0FB680133FB60FB68022B9E
:100C4000E7DD00BF00BF1037BD4680BD2847012447
:100C500080B582B000AF78600B4A022100200AF014
:100C600003FF00F043F80346002B07D0074A042196
:100C700001200AF0EBFD064B02225A70002015F00D
:100C8000C5FB00BFFDE700BF68AA06087CAA0608EE
:100C90008C4A012480B586B004AF0F4B02930F4BF2
:100CA00001930523009300234FF4A0620C490D48E3
:100CB00015F0F9F978607B68002B06D10A4A052106
:100CC00001200AF0C3FD00BFFDE715F0CDFD00BF18
:100CD0000837BD4680BD00BFFC720124FC5E0124C4
:100CE000A4AA0608510C0408B4AA0608F0B5CFB0AF
:100CF00006AF012387F81731FFF746FD034687F853
:100D0000173197F81731002B05D0CC4A0521012067
:100D10000AF09CFD04E0CA4A002100200AF096FD7A
:100D2000FFF77EFD034687F8173197F81731002B40
:100D300005D0C44A052101200AF088FD04E0C24A1A
:100D4000002100200AF082FDFFF7BAFD034687F874
:100D5000173197F81731002B05D0BC4A0521012027
:100D60000AF074FD04E0BA4A002100200AF06EFD8A
:100D7000FFF7FCFD034687F8173197F81731002B72
:100D800005D0B44A052101200AF060FD04E0B24A12
:100D9000002100200AF05AFD07F050F807F0B4FCDB
:100DA00097F81731002B05D0AC4A052101200AF035
:100DB0004DFD04E0AA4A002100200AF047FD07F596
:100DC0009073A3F5887318464FF480731A46002178
:100DD00028F008FD0023C7F8103107F10803184672
:100DE0000CF0CEFED7F8103107F11002D018D7F86A
:100DF0001031C3F5807107F59073A3F58C739B7860
:100E00009C4607F59073A3F58C735B781A4607F53B
:100E10009073A3F58C731B781C4607F59073A3F5AC
:100E20008C73DB781D4607F59073A3F58C731B79E3
:100E30001E4607F59073A3F58C735B7904930396B4
:100E40000295019400926346864A28F0C9FB024647
:100E5000D7F810311344C7F8103107F59073A3F297
:100E6000191300221A7007F59073A3F58D730022F1
:100E70001A7007F59073A3F21B1300221A707B1DE2
:100E8000BA1DF91D00200CF0D5FED7F8103107F17E
:100E90001002D018D7F81031C3F5807107F59073A0
:100EA000A3F219131B781C4607F59073A3F58D73F5
:100EB0001B781A4607F59073A3F21B131B78019356
:100EC00000922346684A28F08BFB0246D7F810317F
:100ED0001344C7F81031D7F8103107F11002D018B9
:100EE000D7F81031C3F58073604A194628F078FBB3
:100EF0000246D7F810311344C7F810310023C7F861
:100F00001C3117E000BF5A48FFF715FE0346002BBF
:100F1000F9D007F59073A3F58872D7F81C31134404
:100F20001B7819465248FFF719FED7F81C310133D8
:100F3000C7F81C3107F59073A3F58872D7F81C31F8
:100F400013441B78002BDDD100BF4948FFF7E0FDBB
:100F50000346002BF9D00023C7F8183117E000BF73
:100F60004448FFF7E8FD0346002BF9D007F59073DE
:100F7000A3F58872D7F8183113441B7819463D48F9
:100F8000FFF7ECFDD7F818310133C7F8183107F532
:100F90009073A3F58872D7F8183113441B78002B8F
:100FA000DDD100BF3348FFF7B3FD0346002BF9D076
:100FB00008F0B6FD30481BF0FBFB00230193022331
:100FC000009300234FF420622C492D4815F0CFF8F0
:100FD0000346012B01D0012361E10023019301238A
:100FE000009300234FF420622649274815F0BFF8EC
:100FF0000346012B01D0012351E10023019301237A
:10100000009300234FF420622049214815F0AFF8E7
:101010000346012B01D0012341E100230193012369
:10102000009300234FF4A0621A491B4815F09FF863
:101030000346012B32D0012331E100BFD0AA0608BC
:10104000F0AA060804AB060824AB060834AB060871
:1010500054AB060864AB060880AB060894AB0608E0
:10106000A8AB0608B4AB0608E4AB060800AC06085B
:101070000010014000440040EC4A012434AC060852
:10108000C17E040844AC06089D16040850AC06084E
:101090005116040860AC0608C1BD04080023019382
:1010A0000123009300234FF420727F497F4815F0FD
:1010B0005EF80346012B01D00123F0E07C4801F0EB
:1010C00021FA034600220192012200924FF420628D
:1010D0007849794815F04BF80346012B01D00123DC
:1010E000DDE0764801F00EFA03460022019201226B
:1010F00000924FF420627249724815F038F80346A6
:10110000012B01D00123CAE00023019301230093A6
:1011100000234FF4A0626C496C4815F028F8034690
:10112000012B01D00123BAE0002301930123009396
:10113000002380226649674815F019F80346012B01
:1011400001D00123ABE0002301930123009300238E
:1011500080226149614815F00AF80346012B01D04D
:1011600001239CE0002301930123009300234FF40B
:1011700020625B495B4814F0FAFF0346012B01D063
:1011800001238CE0002301930123009300234FF4FB
:1011900020625549554814F0EAFF0346012B01D05F
:1011A00001237CE0002301930123009300234FF4EB
:1011B00020624F494F4814F0DAFF0346012B01D05B
:1011C00001236CE04C4801F09DF903460022019296
:1011D000012200924FF420624849494814F0C7FFA9
:1011E0000346012B01D0012359E000230193012381
:1011F000009300234FF420724249434814F0B7FF94
:101200000346012B01D0012349E000230193012370
:10121000009300234FF480723C493D4814F0A7FF2F
:101220000346012B01D0012339E000230193012360
:10123000009300234FF480723649374814F097FF2B
:101240000346012B01D0012329E000230193012350
:10125000009300234FF420723049314814F087FF87
:101260000346012B01D0012319E000230193012340
:10127000009300234FF480722A492B4814F077FF23
:101280000346012B01D0012309E0012015F0EAF902
:101290002649274801F09AFE06F076FB00231846FF
:1012A00007F59277BD46F0BD6CAC0608351304080F
:1012B000004400407CAC0608C515040800780040D6
:1012C0008CAC0608E914040898AC060881130408DD
:1012D000A8AC0608C9160408B0AC0608FD16040838
:1012E000B8AC060851A40408C0AC06083DA6040822
:1012F000C8AC0608D1A7040800100140D0AC06080D
:10130000D9130408E4AC060831170408F0AC060849
:101310005117040804AD0608D517040818AD0608CF
:10132000B12C040828AD06080D180408E10B0408C8
:10133000904A012480B582B000AF78600CF00CFABE
:101340000D4B1B6801330C4A13600B4B1B68B3F544
:10135000E15F0CD9084B00221A600CF097FC0346A1
:10136000002B04D10022054902200AF021FC4FF491
:101370007A7015F077F9E1E74447012438AD0608A3
:1013800080B584B000AF7860114802F0B3F803462E
:10139000FB73FB7B032B02D0FB7B042B13D10C4B89
:1013A0001B6A012B09D104F0E1FC034609491846E8
:1013B00004F086FE064B00221A6204F0D7FC0346B6
:1013C000184604F0ECFD642015F04CF9DCE700BF92
:1013D000904A012448AD060880B586B000AF786019
:1013E0007B687B617B695B6E4FF0FF31184614F0C0
:1013F000F3F90346012B6DD162E0FFF753FB03467F
:10140000FB73FB7B022B15D13B69DBB219463348DA
:1014100001F058FA3B69DBB21846FFF74FFB034671
:10142000002B4DD004F0A2FC03462D49184604F0D1
:1014300047FE45E0FB7B042B1ED13B69DBB218461F
:10144000FFF73CFB0346002B06D004F08FFC03465D
:101450002349184604F034FE04F088FC02463B6938
:10146000DBB21946104604F077FD04F07FFC03461A
:10147000184604F094FD23E01A4802F03BF80346B6
:10148000BB73BB7B032B02D0BB7B042B12D1154853
:1014900001F08AFD04F06AFC02463B69DBB21946A2
:1014A000104604F059FD04F061FC0346184604F0B0
:1014B00076FD05E03B69DBB219460A4801F096FE6D
:1014C0007B691B68184601F037FB38613B69B3F153
:1014D000FF3F92D1012015F0C5F883E70078004066
:1014E0004CAD0608904A012480B588B000AF786002
:1014F0007B68FB61FB695B6E0021184614F06CF998
:101500000346012B56D1FFF7CDFA0346FB76FB7E4F
:10151000012B11D105E0BB68DBB21946274801F069
:10152000D1F9FB691B68184601F006FBB860BB687F
:10153000B3F1FF3FEFD13DE0FB7E022B11D105E07F
:10154000FB68DBB219461E4801F0BCF9FB691B6859
:10155000184601F0F1FAF860FB68B3F1FF3FEFD1F4
:1015600028E0FB7E032B11D105E03B69DBB2194675
:10157000124801F0A7F9FB691B68184601F0DCFA74
:1015800038613B69B3F1FF3FEFD113E0FB7E042BE1
:1015900010D105E07B69DBB21946094801F092F9E8
:1015A000FB691B68184601F0C7FA78617B69B3F1E3
:1015B000FF3FEFD1012015F055F89BE700440040B4
:1015C0000010014080B586B000AF78607B687B6119
:1015D0007B695B6E4FF0FF31184614F0FDF803464F
:1015E000012B2CD1FFF75EFA0346FB74FB7C012B29
:1015F00011D105E0BB68DBB21946134801F062F96E
:101600007B691B68184601F097FAB860BB68B3F1B4
:10161000FF3FEFD113E0FB7C032B10D105E0FB680B
:10162000DBB21946094801F04DF97B691B68184681
:1016300001F082FAF860FB68B3F1FF3FEFD10120BF
:1016400015F010F8C4E700BF0078004000440040E7
:1016500080B584B000AF78600D48FFF7D3FAFFF78C
:1016600021FA0346FB73FB7B002B0CD1094801F0E8
:1016700084FA0346002B03D007481BF0C3FB02E0AB
:1016800005481BF0BFFB012014F0ECFFE4E700BFAE
:101690005CAA060800440040EC4A012480B584B0EE
:1016A00000AF78600748FFF7ADFAFFF7FBF9034694
:1016B000FB73FB7B002B01D107F058F8012014F0DD
:1016C000D1FFEFE758AA060880B582B000AF786076
:1016D0004FF480710848FFF773FA4FF47A7014F0F2
:1016E000C1FF4FF480710448FFF75CFA4FF47A7041
:1016F00014F0B8FF00BFEBE7000C025880B582B0D1
:1017000000AF78604FF400710848FFF74BFA4FF4D0
:101710007A7014F0A7FF4FF400710448FFF750FAF5
:101720004FF47A7014F09EFF00BFEBE7000C0258F4
:1017300080B582B000AF78600448FFF763FA17F015
:1017400073FD642014F08EFF00BFF5E764AA06085D
:1017500080B586B000AF786001237B6100233B61D8
:1017600010E0194A3B69DB0013441B79002B06D1BA
:1017700000237B610022154903200AF019FA3B6916
:1017800001333B613B69022BEBDD7B69002B03D00E
:101790000F4B01221A7002E00D4B00221A70002339
:1017A000FB6008E0084AFB68DB00134400221A7162
:1017B000FB680133FB60FB68022BF3DD4FF4FA702A
:1017C00014F050FFC8E700BF2847012498AD060871
:1017D0004047012480B582B000AF78600A4B1B7887
:1017E000DBB2002B01D00AF00FFE0AF029FE0346FF
:1017F000012B03D1C82014F035FFEFE74FF416702A
:1018000014F030FFEAE700BF4047012480B588B0FC
:1018100000AF78604FF480612848FFF7AEF90346C7
:10182000002B0CBF01230023DBB2FB7715F07CF902
:10183000B86108F001FE0346002B03D1642014F0C8
:1018400011FF39E04FF480611C48FFF796F9034619
:10185000002B0CBF01230023DBB2FB7515F064F9EC
:101860003861FA7DFB7F9A4204D0FB7DFB773B69B0
:10187000BB611EE03A69BB69D31AFB60FB7D002B9C
:101880000BD0FB68632B08D906F098FF0120FFF707
:10189000F3F8002008F0B6FD0BE0FB7D002B08D12B
:1018A000FB68632B05D90020FFF7E6F8002008F05D
:1018B000A9FD0A2014F0D6FEBBE700BF00100258B5
:1018C00080B483B000AF78607B689B6903F001034C
:1018D000012B01D1012300E0002318460C37BD463F
:1018E0005DF8047B704780B483B000AF78607B689C
:1018F0009B6903F00203022B01D1012300E00023C6
:1019000018460C37BD465DF8047B704780B483B041
:1019100000AF78607B689B6903F00403042B01D15E
:10192000012300E0002318460C37BD465DF8047B18
:10193000704780B483B000AF78607B689B6903F028
:101940001003102B01D1012300E0002318460C37AF
:10195000BD465DF8047B704780B483B000AF78600B
:101960007B689B6903F40043B3F5004F01D1012369
:1019700000E0002318460C37BD465DF8047B704735
:1019800080B483B000AF786039607B685B6823F413
:1019900000423B681A437B685A6000BF0C37BD4663
:1019A0005DF8047B7047000080B487B000AFF8603A
:1019B000B9607A603B60BB68C3F309027B6803F4DB
:1019C00000631A433B681B0403F47F031A433B6A1A
:1019D0001A437B6A134323F000437B61FB685A6818
:1019E0007B6A5B0D03F48061064B0B43DB431A40BB
:1019F0007B691A43FB685A6000BF1C37BD465DF81F
:101A0000047B7047FF7BFF0380B483B000AF786036
:101A10007B685B6ADBB218460C37BD465DF8047B19
:101A2000704780B483B000AF78600B46FB70FA78E3
:101A30007B689A6200BF0C37BD465DF8047B704737
:101A400080B588B002AFF8607B600B46FB7213462E
:101A5000BB720CF08FFA38610DE00CF08BFA024685
:101A60003B69D31A0A2B06D9FB681B6818461CF081
:101A70004BF9022396E0FB681B681846FFF76CFFE2
:101A80000346002BE9D1FB681868FB7A590097F8E8
:101A9000203001331A46454B01934FF000730093F9
:101AA00013460022FFF780FF0CF064FA386117E05C
:101AB000FB681B681846FFF73CFF0346002B01D06C
:101AC00001236FE00CF056FA02463B69D31A0A2B49
:101AD00006D9FB681B6818461CF016F9032361E061
:101AE000FB681B681846FFF7FEFE0346002BDFD09D
:101AF000FB681B68BA7A11461846FFF792FF00236D
:101B0000FB752FE00CF036FA386117E0FB681B68B4
:101B10001846FFF70EFF0346002B01D0012341E0DA
:101B20000CF028FA02463B69D31A0A2B06D9FB6847
:101B30001B6818461CF0E8F8032333E0FB681B68B9
:101B40001846FFF7D0FE0346002BDFD0FB6818686D
:101B5000FB7D7A6813441B781946FFF762FFFB7D13
:101B60000133FB75FA7D97F820309A42CAD30CF006
:101B700001FA38610DE00CF0FDF902463B69D31A19
:101B80000A2B06D9FB681B6818461CF0BDF8032316
:101B900008E0FB681B681846FFF792FE0346002B1F
:101BA000E9D0002318461837BD4680BD00200080CC
:101BB00090B589B002AFF8607B600B46FB721346AC
:101BC000BB720CF0D7F938610DE00CF0D3F9024686
:101BD0003B69D31A0A2B06D9FB681B6818461CF010
:101BE00093F80223B8E0FB681B681846FFF7B4FEC1
:101BF0000346002BE9D1FB681868FB7A5900584B63
:101C000001930023009301230022FFF7CDFE0CF087
:101C1000B1F9386117E0FB681B681846FFF789FEC9
:101C20000346002B01D0012396E00CF0A3F90246F5
:101C30003B69D31A0A2B06D9FB681B6818461CF0AF
:101C400063F8032388E0FB681B681846FFF74BFE28
:101C50000346002BDFD0FB681B68BA7A1146184692
:101C6000FFF7DFFE0CF086F9386117E0FB681B68B0
:101C70001846FFF75EFE0346002B01D001236BE000
:101C80000CF078F902463B69D31A0A2B06D9FB6897
:101C90001B6818461CF038F803235DE0FB681B68DE
:101CA0001846FFF70DFE0346002BDFD0FB681B68CC
:101CB00000211846FFF764FEFB681868FB7A59009C
:101CC000FB7A5B0043F001031C4697F82830254A55
:101CD00001924FF0007200922246FFF765FE0CF071
:101CE00049F938610023FB7530E00CF043F93861A5
:101CF00017E0FB681B681846FFF71BFE0346002B26
:101D000001D0012328E00CF035F902463B69D31AD3
:101D10000A2B06D9FB681B6818461BF0F5FF032346
:101D20001AE0FB681B681846FFF7F0FD0346002B1E
:101D3000DFD0FB681968FB7D7A68D4180846FFF786
:101D400063FE03462370FB7D0133FB75FA7D97F834
:101D500028309A42C9D3002318461C37BD4690BD8F
:101D6000002000800024008080B584B000AF78603F
:101D70000023FB60786800F095F8786800F00BF8B5
:101D80000346002B02D06FF00303FB60FB6818468C
:101D90001037BD4680BD80B584B000AF78600023A9
:101DA000FB7378681FF0C2FD0346002B01D00123AE
:101DB000FB73FB7B18461037BD4680BD80B586B0EF
:101DC00000AFF860B9607A603B603B687A68B968D8
:101DD000F8681FF0A7FE0346002B03D06FF0030343
:101DE0007B6101E000237B617B6918461837BD46A3
:101DF00080BD80B586B000AFF860B9607A603B60A6
:101E00003B687A68B968F8681FF050FF0346002BFA
:101E100003D06FF003037B6101E000237B617B69EA
:101E200018461837BD4680BD80B582B000AF7860D7
:101E3000786820F04FFD0346042B14BF01230023D4
:101E4000DBB218460837BD4680BD80B584B000AF10
:101E5000786039603968786820F04CFB0346002BC5
:101E600003D06FF00303FB6001E00023FB60FB681D
:101E700018461037BD4680BD80B582B000AF78608F
:101E8000786812F091FD00BF0837BD4680BD80B56F
:101E900082B000AF7860786812F0B0FD00BF0837FC
:101EA000BD4680BD80B582B000AF786078681DF017
:101EB00097FC00BF0837BD4680BD80B483B000AF3B
:101EC00078607B681B6803F00103012B01D10123BB
:101ED00000E0002318460C37BD465DF8047B7047D0
:101EE00080B483B000AF78607B685B6903F0010366
:101EF000012B01D1012300E0002318460C37BD4619
:101F00005DF8047B704780B483B000AF78607B6875
:101F10005B6903F48053B3F5805F01D1012300E0D6
:101F2000002318460C37BD465DF8047B704780B42B
:101F300083B000AF78607B6830331B78DBB2184623
:101F40000C37BD465DF8047B704780B483B000AFAA
:101F500078600B46FB707B682033FA781A7000BFFC
:101F60000C37BD465DF8047B704780B586B000AF86
:101F7000F8600B467A60FB72F868FFF79EFF034635
:101F8000002B01D1012335E00BF0F4FF7861FB7ADF
:101F90001946F868FFF7D9FF08E00BF0EBFF02469F
:101FA0007B69D31A0A2B01D9032323E0F868FFF7D2
:101FB000AAFF0346002BF0D00BF0DCFF786108E0AD
:101FC0000BF0D8FF02467B69D31A0A2B01D90323F1
:101FD00010E0F868FFF784FF0346002BF0D07B6821
:101FE000002B06D0F868FFF7A2FF03461A467B686D
:101FF0001A70002318461837BD4680BD80B584B0DE
:1020000000AF78600B46FB707868FFF756FF034619
:10201000002B01D101231BE00BF0ACFFF860FB7833
:1020200019467868FFF791FF08E00BF0A3FF02461E
:10203000FB68D31A0A2B01D9032309E07868FFF75C
:1020400062FF0346002BF0D07868FFF770FF002393
:1020500018461037BD4680BD80B582B000AF03463C
:10206000FB71FB79002B10D1FB79002B06D14FF4CB
:1020700080620021074827F0B5FB07E04FF480623B
:102080000021054827F0AEFB00E000BF0837BD4641
:1020900080BD00BF00F8003800FC003880B582B079
:1020A00000AF0346FB71FB79002B04D1FB79184686
:1020B000FFF7D2FF00E000BF0837BD4680BD80B407
:1020C00083B000AF78607B681B6843F001027B68D7
:1020D0001A6000BF0C37BD465DF8047B704780B4C2
:1020E00083B000AF78607B681B6823F001027B68D7
:1020F0001A6000BF0C37BD465DF8047B704780B4A2
:1021000083B000AF78607B68DB6903F04003402B4D
:1021100001D1012300E0002318460C37BD465DF8CD
:10212000047B704780B483B000AF78607B68DB6964
:1021300003F08003802B01D1012300E00023184627
:102140000C37BD465DF8047B704780B489B000AFA2
:1021500078607B68FB60FB6853E8003FBB60BB684E
:1021600043F01003FB617B68FA69BA617B617969AE
:10217000BA6941E800233B613B69002BE9D100BF0C
:1021800000BF2437BD465DF8047B704780B489B03A
:1021900000AF78607B68FB60FB6853E8003FBB6082
:1021A000BB6843F08003FB617B68FA69BA617B61BD
:1021B0007969BA6941E800233B613B69002BE9D1A9
:1021C00000BF00BF2437BD465DF8047B704780B474
:1021D00089B000AF78607B68FB60FB6853E8003F24
:1021E000BB60BB6823F08003FB617B68FA69BA615E
:1021F0007B617969BA6941E800233B613B69002B47
:10220000E9D100BF00BF2437BD465DF8047B7047AD
:1022100080B483B000AF78607B681B6803F08003F4
:10222000802B01D1012300E0002318460C37BD4666
:102230005DF8047B704780B489B000AF78607B683C
:102240000833FB60FB6853E8003FBB60BB6843F0AA
:102250004003FB617B680833FA69BA617B61796985
:10226000BA6941E800233B613B69002BE7D100BF1D
:1022700000BF2437BD465DF8047B704780B485B04D
:1022800000AF786039603B68002B03D17B6828334E
:10229000FB6002E07B682433FB60FB681846143760
:1022A000BD465DF8047B704780B483B000AF7860B2
:1022B0000B46FB70FA787B689A6200BF0C37BD460C
:1022C0005DF8047B7047000080B485B000AF786093
:1022D00039607B68FB600C4A3B6813441B781A46E4
:1022E000FB6813441B6808493A680A44127811468F
:1022F000FA680A4443F00103136000BF1437BD4677
:102300005DF8047B704700BF8418070880B485B06F
:1023100000AF786039607B68FB600C4A3B6813440F
:102320001B781A46FB6813441B6808493A680A443C
:1023300012781146FA680A4423F00103136000BFC3
:102340001437BD465DF8047B704700BF841807084A
:1023500080B487B000AFF860B9607A60FB687B61D9
:102360000D4ABB6813441B781A467B6913445A68AC
:102370000A4B13400849BA680A44127811467A6930
:102380000A4411467A6813434B6000BF1C37BD46B0
:102390005DF8047B704700BF841807080000FFFF4A
:1023A00080B485B000AF786039607B68FB60074A15
:1023B0003B6813441B781A46FB6813445B689BB266
:1023C00018461437BD465DF8047B7047841807082B
:1023D00080B487B000AFF860B9607A60FB687B6159
:1023E000074ABB6813441B781A467B6913441A4694
:1023F0007B68D36000BF1C37BD465DF8047B704727
:102400008418070880B487B000AFF860B9607A60BC
:10241000FB687B61074ABB6813441B781A467B69DB
:1024200013441A467B68936000BF1C37BD465DF8B5
:10243000047B70478418070880B485B000AF7860CB
:1024400039607B68FB600C4A3B6813441B781A4672
:10245000FB6813441B6808493A680A44127811461D
:10246000FA680A4443F00803136000BF1437BD46FE
:102470005DF8047B704700BF8418070880B485B0FE
:1024800000AF786039607B68FB600C4A3B6813449E
:102490001B781A46FB6813441B6808493A680A44CB
:1024A00012781146FA680A4443F00403136000BF2F
:1024B0001437BD465DF8047B704700BF84180708D9
:1024C00080B485B000AF786039607B68FB600C4AEF
:1024D0003B6813441B781A46FB6813441B68084981
:1024E0003A680A4412781146FA680A4443F0100325
:1024F000136000BF1437BD465DF8047B704700BF12
:102500008418070880B485B000AF78600023FB60B2
:1025100015E01049FA6813465B019B1A9B000B44B7
:102520001B687A689A4207D1FA6813465B019B1AC6
:102530009B00084A134406E0FB680133FB60FB681C
:10254000022BE6DD002318461437BD465DF8047BF8
:10255000704700BF48470124B0B584B002AF0023E4
:102560007B6022E0B5497A6813465B019B1A9B00A9
:102570000B441B681846FFF7B2FDB0497A68134652
:102580005B019B1A9B000B4468331868AB497A685F
:1025900013465B019B1A9B000B446C331B68194666
:1025A000FFF7B4FE7B6801337B607B68022BD9DDCB
:1025B0004FF400630093A24BA24A0121A2480BF002
:1025C00080FB4FF400630093A04BA14A0221A14875
:1025D0000BF077FB03220021012012F0AEFD034631
:1025E000964A5366954B9C6E944BDD6E01219A483A
:1025F000FFF744FE03461A4629462046FFF702FF2E
:102600008E4B9B6E8D4AD16E8C4AB2F87420184660
:10261000FFF79EFE894B9B6E884AD16E874A126FE8
:102620001846FFF7D5FE854B9B6E844AD26E114645
:102630001846FFF745FF814B9B6E804AD26E1146CC
:102640001846FFF7F9FE7D4B9B6E7C4AD26E114611
:102650001846FFF713FF8048FFF7EDFD774B9B6EA1
:10266000764AD26E11461846FFF72EFE7A48FFF7DB
:102670006CFD4FF480530093784B794A05217948DB
:102680000BF01FFB4FF480530093774B774A0621E2
:1026900077480BF016FB03220021012012F04DFDBC
:1026A0000346664AC2F8E030644BD3F8E440634B1B
:1026B000D3F8E85001216F48FFF7E0FD03461A46C2
:1026C00029462046FFF79EFE5C4BD3F8E4305B4A78
:1026D000D2F8E810594AB2F8F0201846FFF738FE51
:1026E000564BD3F8E430554AD2F8E810534AD2F8A2
:1026F000EC201846FFF76CFE504BD3F8E4304F4AFD
:10270000D2F8E82011461846FFF7DAFE4B4BD3F813
:10271000E4304A4AD2F8E82011461846FFF78CFE0A
:10272000464BD3F8E430454AD2F8E8201146184623
:10273000FFF7A4FE4F48FFF77EFD404BD3F8E4308F
:102740003E4AD2F8E82011461846FFF7BDFD494839
:10275000FFF7FBFC4FF440630093474B474A0B21C4
:1027600047480BF0AEFA4FF440630093454B464A9E
:102770000C2146480BF0A5FA03220021012012F09B
:10278000DCFC03462D4AC2F85C312C4BD3F8604187
:102790002A4BD3F8645101213D48FFF76FFD0346F2
:1027A0001A4629462046FFF72DFE244BD3F8603108
:1027B000224AD2F86411214AB2F86C211846FFF778
:1027C000C7FD1E4BD3F860311C4AD2F864111B4A76
:1027D000D2F868211846FFF7FBFD184BD3F860319B
:1027E000164AD2F8642111461846FFF769FE134BCA
:1027F000D3F86031114AD2F8642111461846FFF728
:102800001BFE0E4BD3F860310C4AD2F864211146FE
:102810001846FFF733FE1E48FFF70DFD074BD3F8B0
:102820006031064AD2F8642111461846FFF74CFD84
:102830001748FFF78AFC00233B6039E04847012432
:10284000587B0124ACAD06084C4701245883012471
:10285000B8AD06087C47012400100140589B0124B4
:10286000C4AD0608C847012458AB0124D0AD060802
:10287000F84701240044004058C70124DCAD060895
:102880004448012458D30124E8AD060874480124C3
:10289000007800400A493A6813465B019B1A9B0086
:1028A0000B441B681846FFF70AFC3B6801333B608A
:1028B0003B68022BEEDD002318460837BD46B0BD4D
:1028C0004847012480B584B000AF78600B46FB70A8
:1028D0007868FFF717FEB860BB68002B1FD0134B5A
:1028E000FB6005E0FB68013BFB60FB68002B18D038
:1028F000BB683433FA78114618460BF015FA0346D4
:1029000083F00103DBB2002BECD17868FFF780FC89
:102910000346002B06D17868FFF738FC02E000BFC1
:1029200000E000BF1037BD4680BD00BF20A10700FA
:1029300080B584B000AF786039607868FFF7E2FD59
:10294000F860FB68002B11D03B68002B0ED008E02C
:102950003B681B7819467868FFF7B4FF3B68013382
:102960003B603B681B78002BF2D100E000BF1037C2
:10297000BD4680BD80B584B000AF78607868FFF751
:10298000C1FDF860FB68002B42D0FB681B68DB6967
:1029900003F00203002B03D0FB681B6802221A62BB
:1029A000FB681B68DB6903F00403002B03D0FB68A2
:1029B0001B6804221A62FB681B68DB6903F400339E
:1029C000002B04D0FB681B684FF400321A62786851
:1029D000FFF7A8FB0346002B1BD07868FFF718FC15
:1029E0000346002B15D0FB68343307F10B02114668
:1029F00018460BF0DFF90346002B05D0FB7A194689
:102A00007868FFF751FC04E07868FFF7E0FB00E02E
:102A100000BF1037BD4680BD80B58AB000AF78607A
:102A20000023BB607868FFF76DFDB861BB69002BC0
:102A30007CD0BB699B6F7B61BB699A6EBB69DB6EA7
:102A400019461046FFF7ACFC03467B82BB69B3F81E
:102A500074301A467B8AD31AFB60FA687B699A4203
:102A600065D0FA687B699A4214D97B697B620CE075
:102A7000BB69181DBB691A6F7B6A13441B78194622
:102A80000BF052F97B6A01337B627A6AFB689A42E7
:102A9000EED32AE07B693B620CE0BB69181DBB6981
:102AA0001A6F3B6A13441B7819460BF03DF93B6AD9
:102AB00001333B62BB69B3F874301A463B6A9342F8
:102AC000EBD30023FB610CE0BB69181DBB691A6FD7
:102AD000FB6913441B7819460BF026F9FB69013397
:102AE000FB61FA69FB689A42EED3BB695B6E07F142
:102AF00008021146184612F0D5FCBB68002B07D01F
:102B00000C4B4FF080521A60BFF34F8FBFF36F8FA3
:102B1000BB69FA689A67BB699B6FBA69B2F874209F
:102B2000934204D1BB6900229A6700E000BF2837B6
:102B3000BD4680BD04ED00E080B584B000AF786094
:102B40007868FFF7DFFCF860FB68002B02D14FF0DC
:102B5000FF330EE0FB68043307F10B021146184601
:102B60000BF028F90346002B01D0FB7A01E04FF06F
:102B7000FF3318461037BD4680BD80B584B000AF26
:102B800078607868FFF7BEFCF860FB68002B01D125
:102B9000002305E0FB68043318460BF088F9034670
:102BA00018461037BD4680BD80B584B000AF786050
:102BB0007868FFF7A7FCF860FB68002B01D10023C1
:102BC00006E0FB68343318460BF035F9034600BFC6
:102BD00018461037BD4680BD80B582B000AF786022
:102BE0000B46FB7000BF7868FFF79CFA0346002B8A
:102BF000F9D0FB7819467868FFF756FB00BF786874
:102C0000FFF77DFA0346002BF9D000BF00BF08375D
:102C1000BD4680BD80B582B000AF786039603B684A
:102C2000002B0ED008E03B681B7819467868FFF748
:102C3000D3FF3B6801333B603B681B78002BF2D12C
:102C400000E000BF0837BD4680BD80B483B000AF50
:102C5000786039607B681A693B6813403A689A4229
:102C600001D1012300E0002318460C37BD465DF872
:102C7000047B704780B483B000AF786039607B68B4
:102C80003A689A6100BF0C37BD465DF8047B704717
:102C900080B483B000AF786039603B681A047B6809
:102CA0009A6100BF0C37BD465DF8047B7047000099
:102CB00080B586B000AF786013F036FF0346FB6046
:102CC0004FF400413748FFF7E3FF0023FB7513F093
:102CD0002BFF38610DE04FF400613348FFF7B5FF7B
:102CE0000346002B02D10123FB750AE0322013F0CA
:102CF000B9FC13F019FF02463B69D31AB3F5FA7F0A
:102D0000E9D34FF400412748FFF7B4FF0023BB7518
:102D100013F00AFF38610DE04FF400612248FFF71D
:102D200094FF0346002B02D00123BB750AE032203A
:102D300013F098FC13F0F8FE02463B69D31AB3F582
:102D4000FA7FE9D3FB7D002B06D0BB7D002B03D09F
:102D5000164B00221A8005E0144B1B8801339AB2EF
:102D6000124B1A80114B1B88772B12D90022104965
:102D7000042008F01DFF80210E48FFF789FF642022
:102D800013F070FC80210B48FFF774FF074B002203
:102D90001A8007F10C0341F28831184613F0DAFB70
:102DA0008EE700BF001402580010025858DF0124BB
:102DB000F4AD06080018025880B400AF034B1B881E
:102DC0001846BD465DF8047B704700BF58DF0124FC
:102DD00080B485B000AF78600D4BFB600CE07B6881
:102DE0005A1C7A601B781A46FB685340FB60FB68EC
:102DF000084A02FB03F3FB607B681B78002BEED1D3
:102E0000FB6818461437BD465DF8047B704700BF69
:102E1000C59D1C819301000180B485B000AF78602E
:102E200039607A683B685340FB60FB681B0CFA68AA
:102E30001343FB60FB681B0AFA681343FB60FB68E3
:102E4000DBB2002B0CBF01230023DBB21846143782
:102E5000BD465DF8047B704780B584B000AF7860F4
:102E60007868FFF7B5FFF860054BBB60B968F86894
:102E7000FFF7D2FF034618461037BD4680BD00BF9E
:102E8000A37B47C580B584B000AF786009F002FB32
:102E9000F8600023FB7207F10B0201230021F868A0
:102EA00009F0EFFB0346002B02D1FB7A102B07D968
:102EB0001549786800F020F9144B01221A6020E0CF
:102EC000FB7A002B16D0FB7A114A0121F86809F031
:102ED000D8FB0346002B05D1FB7A1A460C4B002188
:102EE00099540EE00849786800F006F9074B012272
:102EF0001A6006E00449786800F0FEF8034B0122EE
:102F00001A601037BD4680BD18AE060870DF012478
:102F10005CDF012480B584B000AF78600E4B1B6885
:102F2000012B0BD17868FFF753FFF8600B4BBB60A8
:102F3000B968F868FFF770FF034609E00849786848
:102F4000FDF7CEF90346002B01D1012300E0002359
:102F500018461037BD4680BD70DF0124A37B47C5EE
:102F60005CDF012480B582B000AF78607B6893F8A5
:102F70002830042B10D17B685B6D5A1C7B685A6526
:102F80007B685B6D064A934206D3786800F068F868
:102F90000449786800F0B0F800BF0837BD4680BD2E
:102FA000E093040054AE060880B483B000AF7860AC
:102FB0007B6893F82830042B02D17B6800225A6585
:102FC00000BF0C37BD465DF8047B704780B582B00A
:102FD00000AF786039607B683A689A657B68002248
:102FE0001A627B6800225A627B68002283F82820DC
:102FF0007B680022DA627B6800221A657B68002207
:103000005A657B6820220021184626F0EBFB7B687E
:10301000303320220021184626F0E4FB0B49786863
:1030200000F06AF80A49786800F066F8094978689B
:1030300000F062F80849786800F05EF8074978689F
:1030400000F05AF800BF0837BD4680BD80AE0608C4
:1030500088AE060890AE0608A4AE0608ACAE060818
:1030600080B582B000AF78607B6801221A627B680D
:1030700000225A627B68002283F828207B680022A5
:10308000DA627B6800221A657B6800225A657B68D9
:1030900020220021184626F0A5FB7B683033202231
:1030A0000021184626F09EFB0D49786800F024F8B0
:1030B0000C49786800F020F80B49786800F01CF89B
:1030C0000A49786800F018F80949786800F014F89F
:1030D0000849786800F010F800BF0837BD4680BD89
:1030E00080AE060888AE060890AE0608A4AE0608B4
:1030F000ACAE0608B0AE060880B582B000AF78600E
:10310000396007E07B689A6D3B68591C39601B7811
:10311000184690473B681B78002BF3D100BF00BFD7
:103120000837BD4680BD000080B582B000AF786032
:103130007B6893F82830002B37D17B6824491846E8
:10314000FDF7CEF80346002B0BD17B68012283F8F4
:1031500028207B680022DA621E497868FFF7CCFFDE
:1031600031E07B681C491846FDF7BAF80346002B8E
:103170000ED17868FFF786FE7B68022283F828204C
:103180007B680022DA6213497868FFF7B5FF1AE01E
:1031900012497868FFF7B0FF11497868FFF7ACFF74
:1031A00010497868FFF7A8FF0DE07B6893F8283096
:1031B000032B04D07B6893F82830042B03D10A49F1
:1031C0007868FFF799FF00BF0837BD4680BD00BF94
:1031D000C8AE0608D0AE0608DCAE0608E4AE0608A7
:1031E000ACAE0608B0AE060810AF060880B582B0D7
:1031F00000AF78600B46FB707B6893F82830012B9A
:1032000005D07B6893F82830022B40F0ED800A222D
:10321000FB78934204D00D22FB78934240F0B680B5
:103220007B681B6D7A681344002283F830207B682A
:1032300093F82830012B38D17B6830331846FFF7DC
:103240000BFE0346012B30D17B68032283F8282034
:103250009A497868FFF750FF99497868FFF74CFF63
:1032600098497868FFF748FF94497868FFF744FF6A
:1032700095497868FFF740FF94497868FFF73CFF6D
:1032800093497868FFF738FF92497868FFF734FF71
:1032900091497868FFF730FF8B497868FFF72CFF7A
:1032A00086497868FFF728FF6CE07B6893F8283040
:1032B000022B38D17B6830331846FFF72BFE0346CC
:1032C000012B30D17B68042283F828207B49786861
:1032D000FFF712FF7A497868FFF70EFF7F49786899
:1032E000FFF70AFF75497868FFF706FF76497868A7
:1032F000FFF702FF75497868FFF7FEFE74497868AA
:10330000FFF7FAFE73497868FFF7F6FE72497868AE
:10331000FFF7F2FE6C497868FFF7EEFE67497868C0
:10332000FFF7EAFE2EE07B68DB6A5A1C7B68DA62F4
:1033300062497868FFF7E0FE7B68DB6A032293420C
:1033400014DB7B68002283F8282065497868FFF742
:10335000D3FE5A497868FFF7CFFE58497868FFF7DF
:10336000CBFE60497868FFF7C7FE0BE05E497868DE
:10337000FFF7C2FE51497868FFF7BEFE5B497868E7
:10338000FFF7BAFE7B6800221A6592E07F22FB7885
:10339000934216D17B681B6D002B40F38A807B68BB
:1033A0001B6D5A1E7B681A657B689B6D08209847C9
:1033B0007B689B6D202098477B689B6D0820984711
:1033C00077E07B681B6D1E2B73DC7B681B6D591CC3
:1033D0007A6811657A681344FA7883F830207B683C
:1033E0009B6D2A20984764E07B6893F82830032B74
:1033F00004D07B6893F82830042B04D13C497868CA
:10340000FFF77AFE56E00A22FB78934203D00D22A2
:10341000FB7893421CD17B685B6A7A680021D154A7
:103420007B685B6A002B0ADD24497868FFF764FE3D
:103430007868FFF779FE7B6800225A623AE01F49FC
:103440007868FFF759FE27497868FFF755FE31E0A5
:103450007F22FB7893421AD17B685B6A002B29DDBF
:103460007B685B6A5A1E7B685A627B685B6A7A6813
:103470000021D1547B689B6D082098477B689B6D29
:10348000202098477B689B6D0820984712E07B6856
:103490005B6A1E2B0EDC7B685B6A591C7A68516282
:1034A0007A68F978D1547B689B6DFA781046984712
:1034B00000E000BF00BF0837BD4680BDACAE0608C7
:1034C00020AF06088CAF0608B0AF0608D8AF0608D4
:1034D00000B0060828B0060850B0060878B0060804
:1034E0009CB00608B0AE0608C8B00608D0AE060804
:1034F000F0B0060880B483B000AF78607B6893F8C2
:10350000283018460C37BD465DF8047B7047000034
:1035100080B400AFBFF34F8F00BF064BDB6803F4EE
:10352000E0620449044B1343CB60BFF34F8F00BFED
:1035300000BFFDE700ED00E00400FA0580B483B0B1
:1035400000AF786039607B683A689A6100BF0C37D9
:10355000BD465DF8047B704780B483B000AF7860EF
:1035600039603B681A047B689A6100BF0C37BD461E
:103570005DF8047B704780B485B000AF03460A460F
:10358000FB8013467B7141F22103BB817B791BB227
:103590001B021AB2B7F9063053401BB2FB8000235E
:1035A000FB7313E0B7F90630002B09DAB7F90630E0
:1035B0005B001AB2B7F90C3053401BB2FB8002E03B
:1035C000FB885B00FB80FB7B0133FB73FB7B072BE2
:1035D000E8D9FB8818461437BD465DF8047B704770
:1035E00080B5A8B002AFF860B9607A600121B86810
:1035F00002F028FEC7F884000221B86802F022FE1B
:10360000C7F880000023A7F89630D7F88430002B45
:1036100003D0D7F88030002B04D1A049F86802F01D
:103620004FFD38E1D7F8840025F0C8FDF867002287
:103630000021D7F8800025F0F5FEB867BB6F002B9E
:1036400003D0BB6FB3F5483F0ED907F110004FF41C
:103650004833934A642125F0C3FF07F1100319464C
:10366000F86802F02DFD16E1FDF7FEF90346032B85
:103670001BD0FDF7F9F90346022B08D0FDF7F4F94A
:103680000346012B01D1874B02E0874B00E0874BBB
:1036900007F11000864A642125F0A2FF07F110030C
:1036A0001946F86802F00CFDF5E00220FDF7C0F9BC
:1036B000FB6F032B6DD0FB6F032B00F39C80FB6F24
:1036C000012B03D0FB6F022B2CD094E00023C7F812
:1036D00090301AE0D7F8903087F87530D7F89030EE
:1036E000744A134497F875201A7097F87520B7F844
:1036F000963011461846FFF73EFF0346A7F896306E
:10370000D7F890300133C7F89030D7F89020BB6FCE
:103710009A42DFD307F11000BB6F674A642125F09E
:103720005FFF70E00023C7F88C3025E0D7F88C10DD
:10373000624BA3FB01239A0913465B0013445B0110
:10374000CA1AD3B2203387F87630D7F88C30594A6A
:10375000134497F876201A7097F87620B7F89630C9
:1037600011461846FFF707FF0346A7F89630D7F82B
:103770008C300133C7F88C30D7F88C20BB6F9A425D
:10378000D4D307F11000BB6F4D4A642125F028FF08
:1037900039E00023C7F8883020E025F013FD034608
:1037A0005A42DBB2D2B258BF534287F87730D7F8CB
:1037B0008830404A134497F877201A7097F877209A
:1037C000B7F8963011461846FFF7D5FE0346A7F81E
:1037D0009630D7F888300133C7F88830D7F888207A
:1037E000BB6F9A42D9D307F11000BB6F354A6421F1
:1037F00025F0F6FE07E03449F86802F061FC03208A
:10380000FDF716F947E04FF47A7012F02BFF012014
:10381000FDF70EF907F110031946F86802F050FCA5
:10382000244A244B1B7807F1100000931346274AC3
:10383000642125F0D5FE07F110031946F86802F05F
:103840003FFCBB6F013B1B4A13441946BB6F013B56
:10385000184A13441B7807F1100000930B461C4ACA
:10386000642125F0BDFE07F110031946F86802F047
:1038700027FCB7F8963007F11000164A642125F0AE
:10388000AFFE07F110031946F86802F019FC12495F
:10389000F86802F015FC9837BD4680BD84BB060869
:1038A000D4BB0608FCBB060808BC060810BC06080A
:1038B00018BC0608000000303CBC0608ABAAAAAA47
:1038C0006CBC06089CBC0608C0BC0608F0BC060818
:1038D00014BD060834BD06084CBD060880B5AAB064
:1038E00002AFF860B9607A600121B86802F0AAFC02
:1038F000C7F884001023C7F880300023C7F89C3035
:103900000023A7F89A30D7F88430002B04D18049DF
:10391000F86802F0D5FBF7E000220021D7F8840018
:1039200025F080FDF867FB6F002B03D0FB6FB3F52C
:10393000483F0ED907F114004FF44833754A64210B
:1039400025F04EFE07F114031946F86802F0B8FBA3
:10395000DAE007F11400FB6F6F4A642125F040FEA6
:1039600007F114031946F86802F0AAFB0023C7F810
:103970009430AEE0D7F8943003F1605307F11400AF
:10398000664A642125F02CFE07F114031846FCF763
:10399000B1FC024607F114031344C7F8903000232A
:1039A000C7F88C3031E0D7F89420D7F88C30134426
:1039B00003F160531B7887F87B3007F11403D7F8C5
:1039C0009020D31AC3F1640197F87B30544AD7F89A
:1039D000900025F005FED7F890300333C7F89030FB
:1039E000D7F89C300133C7F89C3097F87B20B7F8A4
:1039F0009A3011461846FFF7BEFD0346A7F89A30E5
:103A0000D7F88C300133C7F88C30D7F88C20D7F832
:103A100080309A4207D2D7F89420D7F88C301344DC
:103A2000FA6F9A42BFD8D7F890305A1CC7F8902046
:103A300020221A70D7F890305A1CC7F890207C22A8
:103A40001A700023C7F8883021E0D7F89420D7F8FF
:103A50008830134403F160531B7887F87A3097F865
:103A60007A301F2B06D997F87A307E2B02D897F838
:103A70007A1000E02E21D7F890305A1CC7F8902019
:103A80000A461A70D7F888300133C7F88830D7F85B
:103A90008820D7F880309A4207D2D7F89420D7F8F8
:103AA00088301344FA6F9A42CFD8D7F8903000226A
:103AB0001A7007F114031946F86802F001FB01209F
:103AC00012F0D0FDD7F89420D7F880301344C7F80F
:103AD0009430D7F89420FB6F9A42FFF44BAFB7F8BD
:103AE0009A3007F114000093D7F89C300D4A6421F6
:103AF00025F076FD07F114031946F86802F0E0FAA4
:103B00000949F86802F0DCFAA037BD4680BD00BF65
:103B100050BD0608D4BB060878BD0608A0BD06083F
:103B2000ACBD0608B4BD06084CBD060880B5A0B003
:103B300000AFF860B9607A600121B86802F082FBDA
:103B4000F867FB6F002B04D13449F86802F0B8FA2B
:103B500060E03349F86FFCF7C3FB0346002B42D10A
:103B6000FCF782FF034687F87B3097F87B30032B06
:103B70002AD801A252F823F0893B0408993B040893
:103B8000A93B0408B93B040807F11403254A642142
:103B9000184625F025FD1FE007F11403224A642191
:103BA000184625F01DFD17E007F114031F4A642194
:103BB000184625F015FD0FE007F114031C4A642197
:103BC000184625F00DFD07E007F11403194A64219A
:103BD000184625F005FD00BF07F114031946F868E3
:103BE00002F06EFA12E01449F86FFCF779FB034615
:103BF000002B07D10320FCF71BFF1049F86802F0E7
:103C00005FFA03E00E49F86802F05AFA0D49F868C5
:103C100002F056FA8037BD4680BD00BFECBD0608F5
:103C20000CBE060810BE060824BE06083CBE0608E8
:103C300050BE060864BE0608B8B506087CBE060875
:103C400098BE06084CBD060880B5A0B000AFF8606D
:103C5000B9607A6009F0C2FAF867FB6F1B7D83F0E8
:103C60000103DBB2002B04D01749F86802F028FAF0
:103C700027E009F0FDFB034687F87B3097F87B309F
:103C8000002B0DD107F11403104A6421184625F0CA
:103C9000A7FC07F114031946F86802F011FA0CE0CA
:103CA00007F114030A4A6421184625F099FC07F12C
:103CB00014031946F86802F003FA0649F86802F09E
:103CC000FFF98037BD4680BDC8BE0608ECBE0608B9
:103CD00014BF06084CBD060890B5ABB004AFF86041
:103CE000B9607A600121B86802F0ACFAC7F89400B4
:103CF0000221B86802F0A6FAC7F89000D7F894300D
:103D0000002B03D0D7F89030002B04D13449F86849
:103D100002F0D6F961E0D7F8940025F04FFA034697
:103D200087F88F3000220021D7F8900025F07AFB29
:103D3000C7F888002B4A97F88F30D7F888101846B4
:103D400009F084FA034687F8873097F88730002B0C
:103D50001ED107F11003184609F014FB0346002B8F
:103D600037D17A693B7C1946BB69B88B044607F1A9
:103D7000200002940193009113461B4A642125F010
:103D80002FFC07F120031946F86802F099F920E0AA
:103D900097F88730022B0ED197F88F3007F120006B
:103DA000124A642125F01CFC07F120031946F8682B
:103DB00002F086F90DE097F8873007F120000C4AF1
:103DC000642125F00DFC07F120031946F86802F084
:103DD00077F90849F86802F073F99C37BD4690BD41
:103DE00038BF0608000000305CBF06089CBF06080C
:103DF000BCBF06084CBD060880B5A4B002AFF86091
:103E0000B9607A6009F06EFB034687F8873097F84F
:103E10008730032B38D801A252F823F07F3E0408E4
:103E2000413E0408373E04082D3E04081D49F86849
:103E300002F046F92DE01C49F86802F041F928E04B
:103E400007F11003184609F09DFA0346002B11D123
:103E5000BB8B1A46BB6907F1200000931346134A37
:103E6000642125F0BDFB07F120031946F86802F034
:103E700027F90EE00E49F86802F022F909E00D4931
:103E8000F86802F01DF904E00B49F86802F018F92F
:103E900000BF0A49F86802F013F900BF8837BD4631
:103EA00080BD00BFE4BF0608F0BF0608FCBF0608DF
:103EB0002CC0060858C0060868C006084CBD060895
:103EC00080B5A6B002AFF860B9607A600121B86829
:103ED00002F0B8F9C7F88400D7F88430002B04D179
:103EE0004349F86802F0ECF87FE000220021D7F89F
:103EF000840025F097FAC7F88000D7F88030002BAF
:103F000004D0D7F88030B3F5483F0ED907F114003C
:103F10004FF44833374A642125F062FB07F114035C
:103F20001946F86802F0CCF85FE008F01DFEF8676B
:103F3000FB6FDB7A83F00103DBB2002B04D02E4948
:103F4000F86802F0BDF850E0D7F880104FF06050EC
:103F500008F056FE034687F87B3097F87B30002B3D
:103F600031D10023A7F88E300023C7F8883012E043
:103F7000D7F8883003F160531A78B7F88E301146BD
:103F80001846FFF7F8FA0346A7F88E30D7F88830BE
:103F90000133C7F88830D7F88820D7F880309A42A4
:103FA000E6D3B7F88E3007F114000093D7F88030CD
:103FB000124A642125F014FB07F114031946F8682E
:103FC00002F07EF80DE097F87B3007F114000C4A00
:103FD000642125F005FB07F114031946F86802F087
:103FE0006FF80849F86802F06BF89037BD4680BD5D
:103FF00078C00608D4BB0608A4C00608C8C00608D6
:10400000F4C006084CBD060880B588B000AFF86063
:10401000B9607A6007F11403074A0A21184625F0AF
:10402000DFFA07F114031946F86802F049F800BFF7
:104030002037BD4680BD00BF18C10608F0B5B3B03B
:1040400006AFF860B9607A600121B86802F0FAF84A
:10405000C7F8AC000221B86802F0F4F8C7F8A8006D
:104060000321B86802F0EEF8C7F8A4000421B8688C
:1040700002F0E8F8C7F8A0000521B86802F0E2F8FD
:10408000C7F89C000621B86802F0DCF8C7F8980071
:10409000D7F8AC30002B13D0D7F8A830002B0FD0B6
:1040A000D7F8A430002B0BD0D7F8A030002B07D0C6
:1040B000D7F89C30002B03D0D7F89830002B0DD1C7
:1040C00007F11803624A6421184625F089FA07F1BE
:1040D00018031946F86801F0F3FFB6E0D7F8AC0012
:1040E00025F06CF8C7F89400D7F8A80025F066F81A
:1040F000C7F89000D7F8A40025F060F8C7F88C0046
:10410000D7F8A00025F05AF8C7F88800D7F89C0027
:1041100025F054F8C7F88400D7F8980025F04EF839
:10412000C7F88000D7F89430002B03DBD7F8943021
:10413000172B04DD4749F86801F0C2FF85E0D7F886
:104140009030002B03DBD7F890303B2B04DD424945
:10415000F86801F0B5FF78E0D7F88C30002B03DB6E
:10416000D7F88C303B2B04DD3C49F86801F0A8FF00
:104170006BE0D7F88830002B03DDD7F888301F2B91
:1041800004DD3749F86801F09BFF5EE0D7F8843022
:10419000002B03DDD7F884300C2B04DD3149F8689F
:1041A00001F08EFF51E0D7F88030002B03DBD7F809
:1041B0008030632B04DD2C49F86801F081FF44E076
:1041C000D7F89430DBB2FB74D7F89030DBB23B7594
:1041D000D7F88C30DBB27B75D7F88830DBB23B7414
:1041E000D7F88430DBB27B74D7F88030DBB2BB7495
:1041F00007F11003184609F0D9FC08F01BF8F8671E
:1042000007F110031946F86F08F06AF8FB7C1E46A8
:104210003B7D7A7D397C787C0446B87C054607F185
:1042200018000495039402910192009333460F4ABB
:10423000642125F0D5F907F118031946F86801F053
:104240003FFF0B49F86801F03BFFB437BD46F0BDB6
:1042500020C1060860C1060894C10608C8C1060846
:10426000FCC106082CC2060860C20608A8C20608DF
:104270004CBD0608F0B5B7B006AFF860B9607A601B
:104280000121B86801F0DEFFC7F8BC00D7F8BC30E8
:10429000002B0DD107F14803C84A6421184625F0C8
:1042A0009FF907F148031946F86801F009FF82E118
:1042B000C349D7F8BC00FCF713F80346002B3FD1E5
:1042C00007F0B8FFC7F8AC0007F140031946D7F86C
:1042D000AC0007F0B9FF0346002B2CD107F13E03D9
:1042E0001946D7F8AC0008F03FF897F843309C46E1
:1042F00097F8443097F8452097F8401097F8410018
:10430000044697F842000546B7F93E00064607F115
:104310004800059604950394029101920093634628
:10432000A84A642125F05CF907F148031946F868AA
:1043300001F0C6FE3BE1A449F86801F0C1FE36E198
:10434000A249D7F8BC00FBF7CBFF0346002B26D1D0
:1043500007F13803184609F013FC97F83B301E4666
:1043600097F83C3097F83D2097F8381097F83900C7
:10437000044697F83A00054607F14800049503946F
:104380000291019200933346914A642125F028F965
:1043900007F148031946F86801F092FE07E18D49DC
:1043A000D7F8BC00FBF79CFF0346002B2ED100235F
:1043B0007B63002387F83330002387F832300023F3
:1043C00087F8313007F1310307F1320207F1330189
:1043D00007F1340009F02EFC97F833301C4697F8AB
:1043E000323097F83120796BC9B207F14800029159
:1043F000019200932346784A642125F0F1F807F1F1
:1044000048031946F86801F05BFED0E07349D7F81D
:10441000BC00FBF765FF0346002B12D109F0FCFB43
:10442000C7F8B00007F14800D7F8B0306C4A6421F3
:1044300025F0D6F807F148031946F86801F040FE68
:10444000B5E06849D7F8BC00FBF74AFF0346002BEC
:1044500040F0A08007F0EEFEC7F8B80007F128038F
:104460001946D7F8B80007F0EFFE0346002B2CD111
:1044700007F116031946D7F8B80007F075FF97F84B
:104480002B309C4697F82C3097F82D2097F8281061
:1044900097F82900044697F82A000546B7F9160050
:1044A000064607F14800059604950394029101928F
:1044B00000936346434A642125F092F807F14803CC
:1044C0001946F86801F0FCFD03E04749F86801F07F
:1044D000F7FD07F12003184609F052FB97F8233047
:1044E0001E4697F8243097F8252097F8201097F863
:1044F0002100044697F82200054607F1480004957C
:1045000003940291019200933346314A642125F0CD
:1045100067F807F148031946F86801F0D1FD002358
:10452000FB610023FB760023BB7600237B7607F13B
:10453000190307F11A0207F11B0107F11C0009F02A
:1045400079FBFB7E1C46BB7E7A7EF969C9B207F116
:10455000480002910192009323461F4A642125F0EE
:104560003FF807F148031946F86801F0A9FD09F082
:1045700053FBC7F8B40007F14800D7F8B430184A25
:10458000642125F02DF807F148031946F86801F079
:1045900097FD0CE007F14803144A6421184625F002
:1045A0001FF807F148031946F86801F089FD104922
:1045B000F86801F085FDC437BD46F0BDD8C20608D5
:1045C00004C306080CC3060854C3060870C30608D3
:1045D00078C30608B4C30608BCC30608F0C30608BF
:1045E000F8C3060808C406080CC4060824C4060854
:1045F0004CBD0608F0B5A9B006AFF860B9607A60A6
:104600000121B86801F01EFEC7F88400D7F8843095
:10461000002B0DD107F118032F4A6421184624F00E
:10462000DFFF07F118031946F86801F049FD50E073
:1046300000220021D7F8840024F0F4FEC7F880009F
:10464000D7F88030254A93420DD807F11800244B43
:10465000244A642124F0C4FF07F118031946F868BE
:1046600001F02EFD35E0D7F8800009F0B5FAD7F853
:1046700080201D4B134407F110021146184608F024
:10468000E3FF07F0D7FDF86707F110031946F86F4D
:1046900007F026FEFB7C1E463B7D7A7D397C787CCC
:1046A0000446B87C054607F118000495039402916E
:1046B0000192009333460D4A642124F091FF07F1E3
:1046C00018031946F86801F0FBFC0949F86801F085
:1046D000F7FC8C37BD46F0BD5CC406087F436D38DF
:1046E00080436D3878C4060880BC92C7A8C206080B
:1046F0004CBD060880B5A4B002AFF860B9607A601E
:104700000121B86801F09EFDC7F884000221B86855
:1047100001F098FDC7F88000D7F88430002B03D053
:10472000D7F88030002B0DD107F11403254A6421FE
:10473000184624F055FF07F114031946F86801F0F4
:10474000BFFC3CE000220021D7F8840024F0F2FDF9
:104750000346A7F87E3000220021D7F8800024F01D
:10476000E9FD0346DBB2FB7407F094FEB867B7F8C7
:104770007E1007F113020123B86F07F0F3FE034622
:10478000002B0AD1B7F87E30FA7C07F114000092B2
:104790000D4A642124F024FF07E0B7F87E3007F1CA
:1047A00014000A4A642124F01BFF07F11403194680
:1047B000F86801F085FC0649F86801F081FC88374B
:1047C000BD4680BD98C40608BCC40608DCC4060803
:1047D0004CBD060880B5A4B002AFF860B9607A603D
:1047E0000121B86801F02EFDC7F88400D7F88430A5
:1047F000002B0DD107F11803224A6421184624F03A
:10480000EFFE07F118031946F86801F059FC35E08E
:1048100000220021D7F8840024F08CFD0346A7F87D
:1048200082300023FB7507F035FEF867B7F8821079
:1048300007F117020123F86F07F023FF0346002B4F
:104840000AD1B7F88230FA7D07F1180000920E4ABB
:10485000642124F0C5FE07E0B7F8823007F11800A4
:104860000A4A642124F0BCFE07F118031946F868CF
:1048700001F026FC0649F86801F022FC8837BD46A5
:1048800080BD00BFF8C4060814C5060834C5060874
:104890004CBD060880B584B000AFF860B9607A609E
:1048A000F86803F003FE0449F86801F009FC00BF52
:1048B0001037BD4680BD00BF4CBD060880B586B030
:1048C00000AFF860B9607A6003F094FA19F046FA24
:1048D0000D49F86801F0F4FB03F000FC0346FB759A
:1048E000FB7D002B04D00949F86801F0E9FB03E0E7
:1048F0000749F86801F0E4FB0649F86801F0E0FBBD
:1049000000BF1837BD4680BD50C5060868C50608FB
:104910007CC506084CBD060880B584B000AFF860C1
:10492000B9607A6019F010FA03F076FA0549F86870
:1049300001F0C6FB0449F86801F0C2FB00BF103764
:10494000BD4680BD98C506084CBD060880B5A6B01A
:1049500000AFF860B9607A600121B86801F072FCBC
:10496000C7F894000221B86801F06CFCC7F8900009
:10497000D7F89430002B03D0D7F89030002B04D117
:104980001149F86801F09CFB1BE0D7F89020D7F89C
:104990009410F86803F09EFC0346002B0DD107F13C
:1049A0001000D7F89430094A802124F019FE07F14D
:1049B00010031946F86801F083FB0549F86801F017
:1049C0007FFB9837BD4680BDB0C50608D0C5060838
:1049D0004CBD060880B5A8B000AFF860B9607A6039
:1049E0000121B86801F02EFCC7F89C000221B868CC
:1049F00001F028FCC7F89800D7F89C30002B03D0B2
:104A0000D7F89830002B04D11C49F86801F058FB06
:104A100031E0D7F89800FBF76DFCC7F89400D7F8A1
:104A20009430B3F5005F04D91549F86801F048FBEC
:104A300021E0D7F89420D7F89810D7F89C0003F01D
:104A4000A5FA0346002B0ED107F11400D7F89C30CD
:104A50000C4A802124F0C4FD07F114031946F868BC
:104A600001F02EFB03E00849F86801F029FB074933
:104A7000F86801F025FBA037BD4680BDB0C506082B
:104A8000E8C50608D0C5060804C606084CBD0608D9
:104A900080B586B000AFF860B9607A600121B8686F
:104AA00001F0D0FB78617B69002B04D10749F868DD
:104AB00001F006FB07E07969F86803F031FB04496F
:104AC000F86801F0FDFA1837BD4680BD1CC606081F
:104AD0004CBD060880B584B000AFF860B9607A605C
:104AE00080210B48FEF738FD642011F0BBFD8021CA
:104AF0000748FEF723FD0749F86801F0E1FA064987
:104B0000F86801F0DDFA00BF1037BD4680BD00BF78
:104B10000018025834C606084CBD060880B584B09B
:104B200000AFF860B9607A604FF480710748FEF713
:104B300005FD0749F86801F0C3FA0649F86801F075
:104B4000BFFA00BF1037BD4680BD00BF0018025835
:104B500050C606084CBD060880B584B000AFF860AA
:104B6000B9607A604FF480710748FEF7F5FC074999
:104B7000F86801F0A5FA0649F86801F0A1FA00BF4B
:104B80001037BD4680BD00BF0018025878C6060821
:104B90004CBD060880B586B000AFF860B9607A6099
:104BA0000121B86801F04EFB78617B69002B04D1CC
:104BB0001E49F86801F084FA35E01D497869FBF771
:104BC0008FFB0346002B07D11A49F86801F078FAE9
:104BD0000120FBF751FF22E017497869FBF780FBC2
:104BE0000346002B07D11549F86801F069FA022045
:104BF000FBF742FF13E012497869FBF771FB0346AC
:104C0000002B07D10F49F86801F05AFA0020FBF792
:104C100033FF04E00C49F86801F052FA03E00B4955
:104C2000F86801F04DFA1837BD4680BDA0C60608E9
:104C3000C4C60608C8C60608F8C60608FCC60608A4
:104C40002CC7060834C7060868C706084CBD060806
:104C500080B586B000AFF860B9607A600121B868AD
:104C600001F0F0FA78617B69002B04D11E49F868E5
:104C700001F026FA34E01D497869FBF731FB034661
:104C8000002B07D10320FBF7F7FE1949F86801F064
:104C900017FA21E017497869FBF722FB0346002B3E
:104CA00007D10420FBF7E8FE1349F86801F008FA81
:104CB00012E012497869FBF713FB0346002B07D17A
:104CC0000020FBF7D9FE0E49F86801F0F9F903E07E
:104CD0000C49F86801F0F4F90B49F86801F0F0F9B3
:104CE0001837BD4680BD00BFA0C70608C4C6060869
:104CF000C0C70608F8C6060808C8060848C8060857
:104D00004CC806087CC806084CBD060880B588B0AB
:104D100000AFF860B9607A600121B86801F092FADA
:104D2000B861BB69002B04D11649F86801F0C8F9D5
:104D300025E0B869FBF7DEFA78610D211248FDF72E
:104D4000C1FD0023FB610AE0BA69FB6913441B78CB
:104D500019460D48FDF7B6FDFB690133FB61FA69A1
:104D60007B699A42F0D30D210748FDF7ABFD074957
:104D7000F86801F0A5F90649F86801F0A1F92037B3
:104D8000BD4680BDB0C8060800780040CCC8060803
:104D90004CBD060880B584B000AFF860B9607A6099
:104DA0000949F86801F08CF90849F86801F088F9B8
:104DB0000749F86801F084F90649F86801F080F9BC
:104DC00000BF1037BD4680BD20C9060844C906088B
:104DD00064C906084CBD060890B5ADF2544D04AF49
:104DE00007F58863A3F23443186007F58863A3F5D9
:104DF0008763196007F58863A3F23C431A601623A2
:104E0000C7F8343411F0A0FEC7F8300407F11400DD
:104E1000D7F83034734A4FF4807124F0E1FB07F186
:104E2000140207F58863A3F234431146186801F0B1
:104E300047F907F58A730022D7F83414184611F0A1
:104E40008FFEC7F82C04D7F82C34002B10D107F5AF
:104E50008863A3F234436449186801F031F907F517
:104E60008863A3F234436149186801F029F9B4E07A
:104E700007F11400D7F82C345D4A4FF4807124F008
:104E8000AFFB07F1140207F58863A3F23443114620
:104E9000186801F015F907F58863A3F23443554902
:104EA000186801F00DF907F58863A3F234435249FD
:104EB000186801F005F90023C7F83C3477E007F5DE
:104EC0008863A3F54B71D7F83C241346DB001344E9
:104ED0009B000B440C331B78042B21D801A252F801
:104EE00023F000BFF94E0408014F0408094F0408DD
:104EF000114F0408194F0408404BC7F8383413E029
:104F00003F4BC7F838340FE03E4BC7F838340BE05E
:104F10003D4BC7F8383407E03C4BC7F8383403E062
:104F20003B4BC7F8383400BF07F58863A3F54B71D6
:104F3000D7F83C241346DB0013449B000B44043396
:104F40001C6807F58863A3F54B71D7F83C2413461A
:104F5000DB0013449B000B441033196807F588638A
:104F6000A3F54B70D7F83C241346DB0013449B0099
:104F7000034420331B6807F1140002930191D7F812
:104F8000383400932346234A4FF4807124F028FBE1
:104F900007F1140207F58863A3F234431146186839
:104FA00001F08EF8D7F83C340133C7F83C34D7F819
:104FB0003C24D7F82C349A4281D307F58863A3F2B6
:104FC00034430D49186801F07BF807F58863A3F2B4
:104FD00034430649186801F073F807F24447BD46A8
:104FE00090BD00BF80C90608A0C906084CBD0608D0
:104FF000C4C90608D8C9060808CA060834CA06087B
:105000003CCA060844CA06084CCA060854CA060820
:105010005CCA060864CA060880B582B000AF786032
:105020000348FEF71DF800BF0837BD4680BD00BF2E
:10503000904A012490B587B002AFF860B9607A60F9
:105040001349F86801F03CF8124B1B68002B0AD199
:10505000114B0093002300226421104812F0ECFF52
:1050600003460C4A13600B4B1B68002B0BD0094BFB
:105070001C6811F059FD0246002300930023012112
:10508000204613F035F800BF1437BD4690BD00BF71
:105090007CCA060874DF0124195004088CCA06086B
:1050A00080B58AB000AFF860B9607A600121B86855
:1050B00001F0C8F878627B6A002B04D12949F868AE
:1050C00000F0FEFF4AE02848FEF714FA034687F88E
:1050D000233097F82330032B3BD1786AFBF70AF98A
:1050E000F861FB69102B04D92049F86800F0E8FF4B
:1050F00034E007F0CFF9B861FB69DBB2FB7507F16B
:10510000170201230021B86907F02CFA0346002B8F
:1051100004D01749F86800F0D3FF1FE0FB69002BAB
:105120000ED0FB699BB27A6A0121B86907F01AFABE
:105130000346002B04D00F49F86800F0C1FF0DE0D2
:105140000D49F86800F0BCFF0C49F86800F0B8FFA2
:1051500004E00B49F86800F0B3FF00BF2837BD46F4
:1051600080BD00BF98CA0608904A0124BCCA060840
:10517000E4CA060810CB060834CB06084CBD060866
:1051800058CB060880B596B000AFF860B9607A6079
:105190000121B86801F056F878651949F86800F0FF
:1051A0008FFF7B6D002B0BD11649F86800F088FF4C
:1051B000F86802F03DFD1449F86800F081FF16E040
:1051C0000A220021786D24F02DF9386507F11000CE
:1051D0003B6D0E4A402124F003FA07F110031946F3
:1051E000F86800F06DFFF968386D02F055FD084968
:1051F000F86800F065FF00BF5837BD4680BD00BFAE
:1052000088CB0608A0CB0608B0CB0608C0CB0608A2
:105210004CBD060880B584B000AFF860B9607A6014
:10522000FEF776F980B5A0B000AFF860B9607A609B
:105230000121B86801F006F8F867FB6F002B0DD16B
:1052400007F11403144A6421184624F0C9F907F140
:1052500014031946F86800F033FF19E0002200211A
:10526000F86F24F0DFF8B867B86F03F0E3FA07F1DE
:105270001400BB6F094A642124F0B2F907F114034A
:105280001946F86800F01CFF0549F86800F018FF9F
:105290008037BD4680BD00BFD4CB0608FCCB0608D6
:1052A0004CBD0608F0B5D5B006AF07F59C73A3F565
:1052B0009673186007F59C73A3F59873196007F54A
:1052C0009C73A3F59A731A6007F59C73A3F5987302
:1052D0000121186800F0B6FFC7F8340107F59C7388
:1052E000A3F598730221186800F0ACFFC7F83001ED
:1052F00007F59C73A3F598730321186800F0A2FFCB
:10530000C7F82C0107F59C73A3F59873042118685E
:1053100000F098FFC7F8280107F59C73A3F5987370
:105320000521186800F08EFFC7F8240107F59C736B
:10533000A3F598730621186800F084FFC7F82001D0
:10534000D7F83431002B13D0D7F83031002B0FD0E1
:10535000D7F82C31002B0BD0D7F82831002B07D0F1
:10536000D7F82431002B03D0D7F82031002B12D1ED
:1053700007F11403434A4FF48071184624F030F9C2
:1053800007F1140207F59C73A3F59673114618688C
:1053900000F096FE72E000220021D7F8340124F0DC
:1053A00041F8034687F81F3100220021D7F8300169
:1053B00024F038F8034687F81E3100220021D7F880
:1053C0002C0124F02FF8034687F81D31002200211C
:1053D000D7F8280124F026F80346A7F81A3100224E
:1053E0000021D7F8240124F01DF8034687F819316D
:1053F00000220021D7F8200124F014F80346A7F872
:105400001631B7F81A4197F81D2197F81E1197F831
:105410001F01B7F81631019397F81931009323460D
:1054200003F058FA97F81F6197F81E3197F81D217D
:10543000B7F81A1197F81901B7F8164107F11405D2
:105440000494039002910192009333460E4A4FF464
:105450008071284624F0C4F807F1140207F59C7304
:10546000A3F596731146186800F02AFE07F59C73A1
:10547000A3F596730549186800F022FE07F59E779C
:10548000BD46F0BD28CC06088CCC06084CBD0608ED
:1054900080B584B000AFF860B9607A6003F084FA38
:1054A0000549F86800F00CFE0449F86800F008FEB1
:1054B00000BF1037BD4680BDCCCC06084CBD0608E9
:1054C00080B584B000AFF860B9607A6003F0AAFAE2
:1054D0000549F86800F0F4FD0449F86800F0F0FDB3
:1054E00000BF1037BD4680BDE8CC06084CBD06089D
:1054F00080B5A2B002AFF860B9607A600121B868E7
:1055000000F0A0FEF8670221B86800F09BFEB867C3
:10551000FB6F002B02D0BB6F002B0DD107F11003E6
:105520001E4A6421184624F05BF807F1100319465F
:10553000F86800F0C5FD2DE000220021F86F23F08F
:1055400071FF034687F8773000220021B86F23F0FF
:1055500069FF0346A7F87430B7F8742097F87730DE
:105560001146184603F09CFA97F87720B7F8743084
:1055700007F1100000931346094A642124F030F823
:1055800007F110031946F86800F09AFD0549F8681C
:1055900000F096FD8037BD4680BD00BF04CD0608F3
:1055A0003CCD06084CBD060880B584B000AFF8605D
:1055B000B9607A6003F0C4FA0549F86800F080FD2C
:1055C0000449F86800F07CFD00BF1037BD4680BD7F
:1055D00074CD06084CBD060880B584B000AFF860F5
:1055E000B9607A6003F0EAFA0549F86800F068FDEE
:1055F0000449F86800F064FD00BF1037BD4680BD67
:1056000098CD06084CBD060880B5B0B004AFF86070
:10561000B9607A600121B86800F014FEC7F8AC00E8
:105620000221B86800F00EFEC7F8A8000321B86890
:1056300000F008FEC7F8A4000421B86800F002FEDC
:10564000C7F8A000D7F8AC30002B0BD0D7F8A830A3
:10565000002B07D0D7F8A430002B03D0D7F8A03008
:10566000002B0DD107F110032A4A8021184623F0A0
:10567000B7FF07F110031946F86800F021FD45E077
:1056800000220021D7F8AC0023F0CCFEC7F89C0024
:1056900000220021D7F8A80023F0C4FEC7F8980024
:1056A00000220021D7F8A40023F0BCFEC7F8940024
:1056B00000220021D7F8A00023F0B4FE0346A7F88B
:1056C0009230B7F89230D7F89420D7F89810D7F8DE
:1056D0009C0003F0B1FAB7F8923007F11000029382
:1056E000D7F894300193D7F898300093D7F89C30CE
:1056F000094A802123F074FF07F110031946F86866
:1057000000F0DEFC0549F86800F0DAFCB037BD4671
:1057100080BD00BFBCCD0608F8CD06084CBD06080C
:1057200080B5A0B000AFF860B9607A600121B868B8
:1057300000F088FDF867FB6F002B0DD107F1140313
:10574000164A6421184623F04BFF07F1140319464B
:10575000F86800F0B5FC1EE000220021F86F23F08D
:1057600061FE034687F87B3097F87B30184603F0DC
:10577000EBFA97F87B3007F11400094A642123F013
:105780002FFF07F114031946F86800F099FC05494A
:10579000F86800F095FC8037BD4680BD50CE060805
:1057A00078CE06084CBD060880B5A0B000AFF86002
:1057B000B9607A600121B86800F044FDF867FB6FBA
:1057C000002B0DD107F11403164A6421184623F06B
:1057D00007FF07F114031946F86800F071FC1EE09A
:1057E00000220021F86F23F01DFE034687F87B306E
:1057F00097F87B30184603F0EDFA97F87B3007F105
:105800001400094A642123F0EBFE07F11403194642
:10581000F86800F055FC0549F86800F051FC803745
:10582000BD4680BDA8CE0608C8CE06084CBD0608F9
:1058300080B584B000AFF860B9607A6003F010FB07
:105840000549F86800F03CFC0449F86800F038FCB1
:1058500000BF1037BD4680BDF0CE06084CBD06081F
:1058600080B584B000AFF860B9607A6003F036FBB1
:105870000549F86800F024FC0449F86800F020FCB1
:1058800000BF1037BD4680BD10CF06084CBD0608CE
:1058900080B5A0B000AFF860B9607A600121B86847
:1058A00000F0D0FCF867FB6F002B0DD107F114035B
:1058B000164A6421184623F093FE07F11403194693
:1058C000F86800F0FDFB1EE000220021F86F23F0D5
:1058D000A9FD034687F87B3097F87B30184603F024
:1058E0003BFB97F87B3007F11400094A642123F051
:1058F00077FE07F114031946F86800F0E1FB05494B
:10590000F86800F0DDFB8037BD4680BD2CCF06086F
:105910004CCF06084CBD060880B5A0B000AFF860BB
:10592000B9607A600121B86800F08CFCF867FB6F01
:10593000002B0DD107F11403164A6421184623F0F9
:105940004FFE07F114031946F86800F0B9FB1EE09A
:1059500000220021F86F23F065FD034687F87B30B5
:1059600097F87B30184603F03DFB97F87B3007F142
:105970001400094A642123F033FE07F11403194689
:10598000F86800F09DFB0549F86800F099FB803746
:10599000BD4680BD70CF06089CCF06084CBD0608EA
:1059A00080B5A0B000AFF860B9607A600121B86836
:1059B00000F048FCF867FB6F002B0DD107F11403D2
:1059C000164A6421184623F00BFE07F1140319460A
:1059D000F86800F075FB1EE000220021F86F23F04C
:1059E00021FD034687F87B3097F87B30184603F09B
:1059F0003FFB97F87B3007F11400094A642123F03C
:105A0000EFFD07F114031946F86800F059FB05494A
:105A1000F86800F055FB8037BD4680BDD0CF060842
:105A2000F4CF06084CBD060880B584B000AFF8601E
:105A3000B9607A6003F062FB0549F86800F040FB4A
:105A40000449F86800F03CFB00BF1037BD4680BD3C
:105A500020D006084CBD060880B59EB000AFF860A7
:105A6000B9607A60BB68002B03D0BB681B78002B41
:105A70000DD107F11403144A6421184623F0B0FD38
:105A800007F114031946F86800F01AFB19E0B8682A
:105A9000FAF730FC0346DBB21946B86803F06CFB3A
:105AA00007F11400BB68094A642123F099FD07F14E
:105AB00014031946F86800F003FB0549F86800F084
:105AC000FFFA7837BD4680BD3CD0060858D006089E
:105AD0004CBD060880B584B000AFF860B9607A604C
