:020000040800F2
:1000000000000824E90B0008790B0008810B0008A8
:10001000890B0008910B0008990B000800000000F4
:10002000000000000000000000000000A10B00081C
:10003000AF0B000800000000BD0B0008CB0B000850
:100040003D0C00083D0C00083D0C00083D0C00086C
:100050003D0C00083D0C00083D0C00083D0C00085C
:100060003D0C00083D0C00083D0C00083D0C00084C
:100070003D0C00083D0C00083D0C00083D0C00083C
:100080003D0C00083D0C00083D0C00083D0C00082C
:100090003D0C00083D0C00083D0C00083D0C00081C
:1000A0003D0C00083D0C00083D0C00083D0C00080C
:1000B0003D0C00083D0C00083D0C00083D0C0008FC
:1000C0003D0C00083D0C00083D0C00083D0C0008EC
:1000D0003D0C00083D0C0008DB0B00083D0C00083F
:1000E0003D0C00083D0C0008000000003D0C00081D
:1000F0003D0C00083D0C00083D0C00083D0C0008BC
:100100003D0C00083D0C00083D0C00083D0C0008AB
:100110003D0C00083D0C00083D0C00083D0C00089B
:100120003D0C00083D0C00083D0C00083D0C00088B
:100130003D0C00083D0C00083D0C00083D0C00087B
:100140003D0C00083D0C000800000000000000000D
:100150003D0C00083D0C00083D0C00083D0C00085B
:100160003D0C00083D0C00083D0C00083D0C00084B
:100170003D0C00083D0C00083D0C0008000000008C
:100180003D0C00083D0C00083D0C00083D0C00082B
:100190003D0C00083D0C00083D0C00083D0C00081B
:1001A0003D0C00083D0C00083D0C00083D0C00080B
:1001B0003D0C00083D0C00083D0C00083D0C0008FB
:1001C0003D0C00083D0C00083D0C00083D0C0008EB
:1001D0003D0C00083D0C00083D0C00083D0C0008DB
:1001E0003D0C00083D0C00083D0C00083D0C0008CB
:1001F0003D0C00083D0C00083D0C00083D0C0008BB
:100200003D0C00083D0C00083D0C00083D0C0008AA
:100210003D0C00083D0C00083D0C00083D0C00089A
:100220003D0C00083D0C00083D0C000800000000DB
:100230003D0C00083D0C00083D0C00083D0C00087A
:100240003D0C00083D0C00083D0C00083D0C00086A
:100250003D0C00083D0C00083D0C00083D0C00085A
:100260003D0C00083D0C00083D0C00083D0C00084A
:100270003D0C00083D0C00083D0C00083D0C00083A
:100280003D0C00083D0C00083D0C0008000000007B
:080290003D0C00083D0C0008C4
:1002980010B5054C237833B9044B13B10448AFF3B8
:1002A80000800123237010BD5800002400000000C6
:1002B800886E000808B5034B1BB103490348AFF328
:1002C800008008BD000000005C000024886E000863
:1002D80080B400AF494BD3F88830484A43F47003E0
:1002E800C2F88830454B1B69444A43F01003136138
:1002F800434B1B6803F00F03062B07D8404B1B68C2
:1003080023F00F033E4A43F0070313603D4B1B687D
:100318003C4A43F0010313603A4B00221A61394BFF
:100328001A683849384B13400B60354B1B6803F08B
:100338000803002B07D0324B1B6823F00F03304A09
:1003480043F0070313602F4B00229A612D4B0022C4
:10035800DA612C4B00221A622A4B2C4A9A62294BEA
:100368002B4ADA62274B2B4A1A63264B00225A6320
:10037800244B284A9A63234B0022DA63214B254AEF
:100388001A64204B00225A641E4B1B681D4A23F432
:10039800802313601B4B00221A661F4B5B6A1E4AA0
:1003A80043F4804353621D4B1A681D4B1340B3F14D
:1003B800005F02D21B4B01221A60124BD3F8D430D3
:1003C80003F48053002B13D10E4BD3F8D4300D4ACD
:1003D80043F48053C2F8D430134B43F2D2021A606C
:1003E800084BD3F8D430074A23F48053C2F8D430EA
:1003F80000BFBD465DF8047B704700BF00ED00E01C
:1004080000200052004402587FEDF6EA0002020282
:100418000000FF0180020101C00000580010005CCC
:100428000000FFFF088100510040005280B400AF77
:100438000A4BDB6823F00603084A43F00203D36043
:1004480000BF064B5B6803F40053002BF9D000BFD4
:1004580000BFBD465DF8047B704700BF00480258E6
:1004680080B400AF044BDB681B0A03F0070318468F
:10047800BD465DF8047B704700ED00E080B483B0B2
:1004880000AF0346FB80B7F90630002B0BDBFB8877
:1004980003F01F020749B7F906305B09012000FA8B
:1004A80002F241F8232000BF0C37BD465DF8047BFB
:1004B800704700BF00E100E080B483B000AF03469E
:1004C8003960FB80B7F90630002B0ADB3B68DAB2EB
:1004D8000C49B7F906301201D2B20B4483F8002355
:1004E8000AE03B68DAB20849FB8803F00F03043BD3
:1004F8001201D2B20B441A7600BF0C37BD465DF824
:10050800047B704700E100E000ED00E080B489B0B2
:1005180000AFF860B9607A60FB6803F00703FB611D
:10052800FB69C3F10703042B28BF0423BB61FB69E4
:100538000433062B02D9FB69033B00E000237B61EF
:100548004FF0FF32BB6902FA03F3DA43BB681A4083
:100558007B699A404FF0FF317B6901FA03F3D94375
:100568007B680B40134318462437BD465DF8047B6F
:10057800704780B483B000AF78607B681B6843F035
:1005880001027B681A6000BF0C37BD465DF8047B2A
:10059800704780B483B000AF78607B681B6823F035
:1005A80000527B681A6000BF0C37BD465DF8047BBB
:1005B800704780B489B000AF786039607B680833D1
:1005C800FB60FB6853E8003FBB60BB6823F06042F8
:1005D8003B685B071343FB617B680833FA69BA61C0
:1005E8007B617969BA6941E800233B613B69002B6B
:1005F800E4D100BF00BF2437BD465DF8047B7047D7
:1006080080B489B000AF786039607B680833FB60DC
:10061800FB6853E8003FBB60BB6823F060623B683F
:100628005B061343FB617B680833FA69BA617B6137
:100638007969BA6941E800233B613B69002BE4D141
:1006480000BF00BF2437BD465DF8047B704780B407
:1006580083B000AF78607B685B6823F490427B6866
:100668005A607B689B6823F02A027B689A6000BF07
:100678000C37BD465DF8047B704780B483B000AF8B
:1006880078607B68DB6903F40013B3F5001F01D1C0
:10069800012300E0002318460C37BD465DF8047BB3
:1006A800704780B483B000AF78607B68DB6903F47F
:1006B8008003B3F5800F01D1012300E00023184621
:1006C8000C37BD465DF8047B7047000080B485B0E8
:1006D80000AF78600A4BD3F8E02009497B681343E0
:1006E800C1F8E030064BD3F8E0207B681340FB608C
:1006F800FB6800BF1437BD465DF8047B704700BF38
:100708000044025880B485B000AF78600A4BD3F833
:10071800E82009497B681343C1F8E830064BD3F851
:10072800E8207B681340FB60FB6800BF1437BD46B8
:100738005DF8047B704700BF0044025880B582B062
:1007480000AF78608021034801F0B7FA00BF08378E
:10075800BD4680BD000C025880B500AF00F09AF984
:1007680000F06AFA00F012F800F050F900F08CF886
:1007780000F0ACF84FF47A7006F058FA05F086FAF3
:1007880005F0F0FB06F074FAFCE7000080B59CB0B9
:1007980000AF07F124034C220021184606F0C2FAE4
:1007A8003B1D20220021184606F0BCFA022001F069
:1007B8009FFA00233B60324BDB6A314A23F0010386
:1007C800D3622F4BDB6A03F001033B602D4B9B691F
:1007D80023F440432B4A43F480439361294B9B699C
:1007E80003F440433B603B6800BF264B9B6903F41E
:1007F8000053B3F5005FF8D102237B6201233B630A
:1008080040237B630223BB640023FB6404233B6512
:100818000C237B650223BB650223FB6502233B6631
:100828000C237B660023BB660023FB6607F12403C9
:10083800184601F0E1FB0346002B01D000F056F901
:100848003F237B600323BB604FF40063FB600823F6
:100858003B6100237B610023BB614FF48063FB6134
:1008680000233B623B1D0021184602F01FF8034697
:10087800002B01D000F03AF900BF7037BD4680BDAB
:10088800000400580048025880B500AF0D4B0E4ACE
:100898001A600C4B00221A710A4B00225A71094B3C
:1008A80000225A61074B00229A61064B01221A6204
:1008B800044800F045FC0346002B01D000F016F96F
:1008C80000BF80BD74000024004C025880B5BEB043
:1008D80000AF07F1D80320220021184606F022FABB
:1008E80007F1C00300221A605A609A60DA601A6140
:1008F8005A613B46C0220021184606F013FA4FF011
:1009080002024FF00003C7E900230023BB673B4600
:10091800184602F0FBFA0346002B01D000F0E6F877
:100928004FF40030FFF7EEFE0120FFF7CFFE0C2357
:10093800C7F8C0300223C7F8C4300023C7F8C8304E
:100948000023C7F8CC300023C7F8D0300723C7F8F6
:10095800D43007F1C00319462A4803F01FFFFFF7F8
:100968007FFD0346002200211846FFF7CFFD03460E
:1009780019462620FFF7A0FD2620FFF77FFD00235C
:10098800C7F8D8304FF4E133C7F8DC300023C7F894
:10099800E0300023C7F8E4300023C7F8E8300C2320
:1009A800C7F8EC300023C7F8F0300023C7F8F4305C
:1009B80007F1D8031946144804F09EFE0021124896
:1009C800FFF7F7FD00211048FFF71AFE0E48FFF762
:1009D800E0FD0D48FFF73BFE0B48FFF7CAFD00BFDF
:1009E8000948FFF74AFE0346002BF9D00648FFF7EF
:1009F80058FE0346002BF3D000BF00BFF837BD46B2
:100A080080BD00BF000002580044004080B588B097
:100A180000AF07F10C0300221A605A609A60DA608E
:100A28001A611A4BD3F8E030184A43F00103C2F8B0
:100A3800E030164BD3F8E03003F00103BB60BB682D
:100A4800124BD3F8E030114A43F00803C2F8E03003
:100A58000E4BD3F8E03003F008037B607B6800227C
:100A680080210B4801F010F98023FB6001233B61D2
:100A780000237B610023BB6107F10C03194604487E
:100A880000F052FF00BF2037BD4680BD0044025829
:100A9800000C025880B584B000AF3B4600221A60B3
:100AA8005A609A60DA6000F0D3FA01233B700023A1
:100AB8007B7000237B601F233B7287237B7200239C
:100AC800BB720023FB7201233B7301237B7300235A
:100AD800BB730023FB733B46184600F0F1FA042071
:100AE80000F0CEFA00BF1037BD4680BD80B400AF1D
:100AF80072B600BF00BFFDE780B483B000AF0A4BF9
:100B0800D3F8F430084A43F00203C2F8F430064B35
:100B1800D3F8F43003F002037B607B6800BF0C3726
:100B2800BD465DF8047B70470044025880B485B028
:100B380000AF78607B681B680B4A93420ED10B4B61
:100B4800D3F8E030094A43F40023C2F8E030074BF9
:100B5800D3F8E03003F40023FB60FB6800BF1437D0
:100B6800BD465DF8047B7047004C025800440258AB
:100B780080B400AF00BFFDE780B400AF00BFFDE761
:100B880080B400AF00BFFDE780B400AF00BFFDE751
:100B980080B400AF00BFFDE780B400AF00BFBD4622
:100BA8005DF8047B704780B400AF00BFBD465DF8B8
:100BB800047B704780B400AF00BFBD465DF8047B7E
:100BC800704780B500AF06F017F800F00DF900BFC8
:100BD80080BD80B500AF04F0E9FF00BF80BD000014
:100BE800DFF838D0FFF722FCFFF772FB0C480D49FD
:100BF8000D4A002302E0D458C4500433C4188C4270
:100C0800F9D30A4A0A4C002301E013600432A242D5
:100C1800FBD306F08FF8FFF79FFD7047000008240C
:100C28000000002458000024FC6E0008580000242E
:100C380084030024FEE7000080B582B000AF0320E3
:100C480000F0D4F901F0E8FF0246154B9B691B0A36
:100C580003F00F031349CB5C03F01F0322FA03F3DD
:100C68007B600F4B9B6903F00F030E4AD35C03F0C4
:100C78001F037A6822FA03F30B4A13600B4A7B6856
:100C880013600F2000F07AF80346002B01D00123EF
:100C980002E0FFF731FF002318460837BD4680BD44
:100CA80000440258A46E0008040000240000002438
:100CB80080B500AF264B274ADA67254B0022DA6752
:100CC800234B254AC3F88020214B0022C3F88020FB
:100CD8001F4B40F27122C3F884201D4B0022C3F839
:100CE80084201B4B1D4AC3F88820194B0022C3F8E7
:100CF8008820174B1822C3F88C20154B0022C3F804
:100D08008C20134B164AC3F89020114B0022C3F8CD
:100D180090200F4B4FF49B72C3F894200C4B002289
:100D2800C3F894200A4B0F4AC3F89820084B0022B6
:100D3800C3F89820064B0C4AC3F89C20044B0022A9
:100D4800C3F89C2000F012F80023184680BD00BFAD
:100D5800004402583150010023C0000AFF0728034D
:100D6800FFC3FFE83330D731AADE200080B400AFDC
:100D780000BFBD465DF8047B7047000080B582B0B7
:100D880000AF7860154B1B78002B01D1012321E0BF
:100D9800134B1A68114B1B7819464FF47A73B3FB3F
:100DA800F1F3B2FBF3F3184600F045F90346002BC4
:100DB80001D001230EE07B680F2B0AD80022796846
:100DC8004FF0FF3000F01DF9064A7B6813600023DE
:100DD80000E0012318460837BD4680BD4C000024BA
:100DE800000000244800002480B400AF064B1B78A4
:100DF8001A46064B1B681344044A136000BFBD46DD
:100E08005DF8047B704700BF4C0000249800002464
:100E180080B400AF034B1B681846BD465DF8047BE1
:100E2800704700BF9800002480B584B000AF786098
:100E3800FFF7EEFFB8607B68FB60FB68B3F1FF3F2C
:100E480005D00A4B1B781A46FB681344FB6000BFA9
:100E5800FFF7DEFF0246BB68D31AFA689A42F7D852
:100E680000BF00BF1037BD4680BD00BF4C00002446
:100E780080B400AF034B1B681B0C1846BD465DF8D9
:100E8800047B70470010005C80B485B000AF7860C8
:100E98007B6803F00703FB600B4BDB68BB60BA6839
:100EA8004FF6FF031340BB60FB681A02BB681A4386
:100EB800064B1343BB60044ABB68D36000BF1437BA
:100EC800BD465DF8047B704700ED00E00000FA05C0
:100ED80080B400AF044BDB681B0A03F00703184615
:100EE800BD465DF8047B704700ED00E080B483B038
:100EF80000AF03463960FB80B7F90630002B0ADBE8
:100F08003B68DAB20C49B7F906301201D2B20B4489
:100F180083F800230AE03B68DAB20849FB8803F04B
:100F28000F03043B1201D2B20B441A7600BF0C37F0
:100F3800BD465DF8047B704700E100E000ED00E08D
:100F480080B489B000AFF860B9607A60FB6803F0DC
:100F58000703FB61FB69C3F10703042B28BF0423C4
:100F6800BB61FB690433062B02D9FB69033B00E034
:100F780000237B614FF0FF32BB6902FA03F3DA43C7
:100F8800BB681A407B699A404FF0FF317B6901FAD0
:100F980003F3D9437B680B40134318462437BD46F7
:100FA8005DF8047B7047000080B582B000AF7860C0
:100FB8007B68013BB3F1807F01D301230FE00A4A2C
:100FC8007B68013B53600F214FF0FF30FFF78EFF26
:100FD800054B00229A60044B07221A60002318462A
:100FE8000837BD4680BD00BF10E000E080B582B084
:100FF80000AF78607868FFF747FF00BF0837BD4645
:1010080080BD80B586B000AF0346B9607A60FB81C9
:10101800FFF75EFF78617A68B9687869FFF790FF33
:101028000246B7F90E3011461846FFF75FFF00BFBA
:101038001837BD4680BD80B582B000AF786078684B
:10104800FFF7B2FF034618460837BD4680BD0000CB
:1010580080B400AFBFF35F8F00BF074B5B6A064ADF
:1010680023F480335362054B00225A6000BFBD460B
:101078005DF8047B704700BF00ED00E090ED00E0F4
:1010880080B483B000AF78600B4A7B6843F00103FB
:1010980053600A4B5B6A094A43F480335362BFF3D7
:1010A8004F8F00BFBFF36F8F00BF00BF0C37BD4627
:1010B8005DF8047B704700BF90ED00E000ED00E0B4
:1010C80080B483B000AF78607B685A781B4B9A6015
:1010D8001A4B1B69194A23F001031361174A7B68ED
:1010E8005B68D3607B681B7B1A077B68DB7A1B060F
:1010F8001A437B689B7ADB041A437B685B7B9B04FF
:101108001A437B689B7B5B041A437B68DB7B1B046D
:101118001A437B685B7A1B021A437B681B7A5B0065
:1011280013437A6812781146044A0B43136100BFCF
:101138000C37BD465DF8047B704700BF90ED00E0BA
:1011480080B582B000AF78607B68002B01D10123A5
:1011580054E07B685B7FDBB2002B05D17B68002203
:101168001A777868FFF7E2FC7B6802225A777B6877
:101178001B79002B0CD17B681B68224A5A617B685B
:101188001B689A687B681B6822F018029A600CE05A
:101198007B6899687B68DB681A46786800F034F8E1
:1011A8000346002B01D0012328E07B685B79002BE4
:1011B80005D17B681B684FF0FF321A6104E07B6839
:1011C8001B687A6812691A617B681B689B6823F040
:1011D80060017B685A697B681B680A439A607B6870
:1011E8001B689B6823F080017B689A697B681B6891
:1011F8000A439A607B6801225A7700231846083709
:10120800BD4680BDB71DC10480B487B000AFF8608B
:10121800B9607A600023FB751F233B61BB6803F04C
:101228000103002B02D10123FB7563E000BF3B697A
:101238005A1E3A61002B09D03B6903F01F03BA68B4
:1012480022FA03F303F00103002BF0D07B68182B7C
:1012580046D801A252F823F0EF120008E91200085C
:10126800E9120008E9120008E9120008E91200086A
:10127800E9120008E9120008DD120008E912000866
:10128800E9120008E9120008E9120008E91200084A
:10129800E9120008E9120008D1120008E912000852
:1012A800E9120008E9120008E9120008E91200082A
:1012B800E9120008E9120008C51200083B69062B6C
:1012C80013D90123FB7510E03B69072B0FD90123C4
:1012D800FB750CE03B690F2B0BD90123FB7508E06C
:1012E8000123FB7506E000BF04E000BF02E000BF79
:1012F80000E000BFFB7D002B0DD1FB681B68BA68BE
:101308005A61FB681B689B6823F01801FB681B681F
:101318007A680A439A60FB7D18461C37BD465DF81B
:10132800047B704780B58AB000AFF860B9607A6016
:10133800BB683B627B68FB610823FB75404B1B7DE8
:10134800012B01D1022376E03D4B01221A75BB68BF
:10135800B3F1006F06D3BB68B3F1016F02D201236A
:10136800BB610CE0BB68B3F1016F06D3BB68B3F196
:10137800026F02D20223BB6101E001235BE0304B24
:1013880000229A61B9694CF2503000F0C1F8034666
:1013980087F8273097F82730002B47D1BB69012BF6
:1013A80006D1284BDB68274A43F00203D36007E0E5
:1013B800244BD3F80C31234A43F00203C2F80C3112
:1013C800BFF36F8F00BFBFF34F8F00BFFB691A6871
:1013D8003B6A1A603B6A04333B62FB690433FB6176
:1013E800FB7D013BFB75FB7D002BEFD1BFF36F8FBE
:1013F80000BFBFF34F8F00BFB9694CF2503000F007
:1014080087F8034687F82730BB69012B06D10D4BB7
:10141800DB680C4A23F00203D36007E0094BD3F8DA
:101428000C31084A23F00203C2F80C31044B0022A5
:101438001A7597F8273018462837BD4680BD00BF73
:101448009C0000240020005280B400AF184BDB68D9
:1014580003F00103002B0DD0154B164A5A60144BAC
:10146800154A5A60124BDB6803F00103002B01D0C8
:10147800012318E00E4BD3F80C3103F00103002BC5
:1014880010D00B4B0B4AC3F80421094B0A4AC3F886
:101498000421074BD3F80C3103F00103002B01D0D2
:1014A800012300E000231846BD465DF8047B704721
:1014B8000020005223016745AB89EFCD80B400AF0F
:1014C800124BDB68114A43F00103D3600F4BDB6812
:1014D80003F00103002B01D1012311E00B4BD3F8DA
:1014E8000C310A4A43F00103C2F80C31074BD3F818
:1014F8000C3103F00103002B01D1012300E000238C
:101508001846BD465DF8047B704700BF00200052B6
:1015180080B586B000AF7860396004237B61002312
:101528003B61FFF775FCF8603B68022B13D1404B19
:101538007B6110E07B68B3F1FF3F0CD0FFF768FCDC
:101548000246FB68D31A7A689A4202D37B68002B5A
:1015580001D1032368E07A69364B1340002B0AD186
:10156800354B1A697B6913407A699A420CBF01238B
:101578000023DBB20CE0304BD3F81031DA437B693F
:10158800134023F00043002B0CBF01230023DBB2E0
:10159800002BCFD13B68012B05D1274B1A69274B6C
:1015A80013403B6107E0244BD3F81021234B134031
:1015B80043F000433B613B6923F00043002B16D006
:1015C8001F4B9A693B6913431D4A93613A69194B4A
:1015D8001340002B03D1184A3B69536105E0164AB2
:1015E8003B6923F00043C2F8143101231CE03B6837
:1015F800012B0BD1104B1B6903F48033B3F5803FEB
:1016080011D10D4B4FF480325A610CE00A4BD3F8DC
:10161800103103F48033B3F5803F04D1064B4FF407
:101628008032C3F81421002318461837BD4680BD00
:1016380004000080F0FF10E0002000520000EE17C8
:101648009C00002480B584B000AF78603960002326
:10165800FB735E4B1B7D012B01D10223B2E05B4B78
:1016680001221A75594B00229A617B685B6803F066
:101678000103002B09D001214CF25030FFF748FF3D
:101688000346002B01D00123FB737B685B6803F0E2
:101698000203002B09D002214CF25030FFF738FF2B
:1016A8000346002B01D00123FB73FB7B002B40F08A
:1016B80085807B681B68012B36D17B681A697B683B
:1016C8005B681946104600F087F87B685B6803F092
:1016D8000103002B0FD001214CF25030FFF718FF07
:1016E8000346002B01D00123FB73394BDB68384AD2
:1016F80023F00803D3607B685B6803F00203002BC8
:101708005CD002214CF25030FFF702FF0346002B59
:1017180001D00123FB732E4BD3F80C312C4A23F054
:101728000803C2F80C3149E03B684FF0FF321A60F9
:101738007B689B68BB6039E07B6859687B681B697C
:101748001A46B86800F0B2F87B685B6803F00103DA
:10175800002B0CD001214CF25030FFF7D9FE034684
:10176800FB731B4BDA681A491A4B1340CB607B6832
:101778005B6803F00203002B0ED002214CF25030BC
:10178800FFF7C6FE0346FB73114BD3F80C21104933
:10179800104B1340C1F80C31FB7B002B03D03B6886
:1017A800BA681A600AE0BB680133BB607B68DA6814
:1017B8007B689B681344BA689A42BDD3034B0022E6
:1017C8001A75FB7B18461037BD4680BD9C00002467
:1017D80000200052FBF8FFFF80B483B000AF7860B0
:1017E80039603B6803F00303032B22D12E4BDB68DF
:1017F8002D4A23F03003D3602B4BD3F80C312A4AFF
:1018080023F03003C2F80C31274BDA6826497B688D
:101818001343CB60244BD3F80C2123497B68134333
:10182800C1F80C31204B9B691F4A43F010039361A8
:1018380033E03B6803F00103002B11D01A4BDB683F
:10184800194A23F03003D360174BDA6816497B68CE
:101858001343CB60144BDB68134A43F08803D3600F
:101868003B6803F00203002B17D00F4BD3F80C3161
:101878000D4A23F03003C2F80C310B4BD3F80C217E
:1018880009497B681343C1F80C31074BD3F80C3175
:10189800054A43F08803C2F80C3100BF0C37BD4637
:1018A8005DF8047B704700BF0020005280B485B00B
:1018B80000AFF860B9607A60BB6803F00103002BE1
:1018C80010D0184BDB68174A23F4E663D360154B36
:1018D800DA68FB6819027B680B431343114A43F02B
:1018E8008403D360BB6803F00203002B14D00D4BB4
:1018F800D3F80C310B4A23F4E663C2F80C31094BD8
:10190800D3F80C21FB6819027B680B431343054A83
:1019180043F08403C2F80C3100BF1437BD465DF8AC
:10192800047B70470020005280B489B000AF786013
:1019380039600023FB61894B7B6194E13B681A683D
:101948000121FB6901FA03F313403B613B69002B5A
:1019580000F086813B685B6803F00303012B05D028
:101968003B685B6803F00303022B30D17B689B68FC
:10197800BB61FB695B00032202FA03F3DB43BA692C
:101988001340BB613B68DA68FB695B0002FA03F34A
:10199800BA691343BB617B68BA699A607B685B6804
:1019A800BB610122FB6902FA03F3DB43BA69134006
:1019B800BB613B685B681B0903F00102FB6902FA23
:1019C80003F3BA691343BB617B68BA695A603B6821
:1019D8005B6803F00303032B17D07B68DB68BB61EC
:1019E800FB695B00032202FA03F3DB43BA69134085
:1019F800BB613B689A68FB695B0002FA03F3BA694A
:101A08001343BB617B68BA69DA603B685B6803F0C3
:101A18000303022B23D1FB69DA087B68083253F8E9
:101A28002230BB61FB6903F007039B000F2202FA17
:101A380003F3DB43BA691340BB613B681A69FB696E
:101A480003F007039B0002FA03F3BA691343BB616F
:101A5800FB69DA087B680832B96943F822107B68A9
:101A68001B68BB61FB695B00032202FA03F3DB43DB
:101A7800BA691340BB613B685B6803F00302FB690A
:101A88005B0002FA03F3BA691343BB617B68BA6966
:101A98001A603B685B6803F44033002B00F0E08079
:101AA8002F4BD3F8F4302E4A43F00203C2F8F43037
:101AB8002B4BD3F8F43003F00203FB60FB68294A90
:101AC800FB699B08023352F82330BB61FB6903F0C2
:101AD80003039B000F2202FA03F3DB43BA691340A6
:101AE800BB617B68204A934252D07B681F4A93426D
:101AF80031D07B681E4A93422BD07B681D4A9342A3
:101B080025D07B681C4A93421FD07B681B4A9342AE
:101B180019D07B681A4A934213D07B68194A9342BA
:101B28000DD07B68184A934207D07B68174A9342C6
:101B380001D109232DE00A232BE0082329E00723FC
:101B480027E0062325E0052323E0042321E00323DF
:101B58001FE002231DE001231BE000BF80000058A6
:101B680000440258000400580000025800040258BB
:101B780000080258000C02580010025800140258BD
:101B880000180258001C025800200258002402586D
:101B98000023FA6902F0030292009340BA691343E2
:101BA800BB613849FB699B080233BA6941F82320B5
:101BB8004FF0B0431B68BB613B69DB43BA69134014
:101BC800BB613B685B6803F48013002B03D0BA69E0
:101BD8003B691343BB614FF0B042BB6913604FF0E0
:101BE800B0435B68BB613B69DB43BA691340BB61C7
:101BF8003B685B6803F40013002B03D0BA693B69A8
:101C08001343BB614FF0B042BB6953607B695B68AB
:101C1800BB613B69DB43BA691340BB613B685B68E6
:101C280003F40033002B03D0BA693B691343BB614B
:101C38007B69BA695A607B691B68BB613B69DB4396
:101C4800BA691340BB613B685B6803F48033002BBF
:101C580003D0BA693B691343BB617B69BA691A60EF
:101C6800FB690133FB613B681A68FB6922FA03F3DD
:101C7800002B7FF463AE00BF00BF2437BD465DF87C
:101C8800047B70470004005880B483B000AF7860CC
:101C98000B467B8013467B707B78002B03D07A88B9
:101CA8007B689A6103E07B881A047B689A6100BFAD
:101CB8000C37BD465DF8047B704780B485B000AF33
:101CC80078600B467B807B685B69FB607A88FB6881
:101CD80013401A04FB68D9437B880B401A437B687E
:101CE8009A6100BF1437BD465DF8047B7047000059
:101CF80080B584B000AF7860294BDB6803F0070338
:101D0800062B0AD0264BDB6803F03F037A689A4219
:101D180001D0012340E000233EE0214BDB6823F0A3
:101D28003F021F497B681343CB60FFF771F8F860E7
:101D380009E0FFF76DF80246FB68D31AB3F57A7F1E
:101D480001D9012328E0164B5B6803F40053B3F56F
:101D5800005FEED17B681E2B08D07B682E2B05D048
:101D68007B681D2B02D07B682D2B14D1FFF750F810
:101D7800F86009E0FFF74CF80246FB68D31AB3F5A0
:101D88007A7F01D9012307E0054BDB6803F4803330
:101D9800B3F5803FEED1002318461037BD4680BD0D
:101DA8000048025880B582B000AF894B1B6803F029
:101DB8000F03062B0FD8864B1B6823F00F03844AAA
:101DC80043F007031360824B1B6803F00F03072BD4
:101DD80001D00123F7E0FFF71BF878607D4B1B6803
:101DE8007C4A43F00103136008E0FFF711F802464C
:101DF8007B68D31A022B01D90323E4E0754B1B68D7
:101E080003F00403002BF0D0724B5B68714A43F077
:101E1800804353606F4B00221A616F4B6F4A1A6000
:101E28006F4B6E4A1A606F4B1B681846FEF7A6FF89
:101E38000346002B01D00123C5E0FEF7E9FF7860D7
:101E48000AE0FEF7E5FF02467B68D31A41F28832C2
:101E5800934201D90323B6E05E4B1B6903F03803B4
:101E6800002BEED1FEF7D4FF78605A4B1A68594917
:101E78005D4B13400B6008E0FEF7CAFF02467B6823
:101E8800D31A642B01D903239DE0524B1B6803F43A
:101E98000033002BF0D1FEF7BBFF78604D4B1B6879
:101EA8004C4A23F08073136008E0FEF7B1FF024646
:101EB8007B68D31A022B01D9032384E0454B1B68A6
:101EC80003F00073002BF0D1FEF7A2FF7860414BBE
:101ED8001B68404A23F08063136008E0FEF798FF10
:101EE80002467B68D31A022B01D903236BE0394BD6
:101EF8001B6803F00063002BF0D1FEF789FF7860C0
:101F0800344B1B68334A23F08053136008E0FEF714
:101F18007FFF02467B68D31A022B01D9032352E0C4
:101F28002C4B1B6803F00053002BF0D1294B0022E7
:101F38009A61284B0022DA61264B00221A62254B4F
:101F48002A4A9A62234B2A4ADA62224B294A1A639E
:101F5800204B00225A631F4B264A9A631D4B0022CE
:101F6800DA631C4B234A1A641A4B00225A64194B31
:101F78001B68184A23F480231360164B00221A6644
:101F8800144B4FF0FF329A66124BD3F8D030114AF7
:101F980043F48033C2F8D0300D4B1B6803F00803BC
:101FA800002B0FD00A4B1B6823F00F03084A43F09D
:101FB80007031360064B1B6803F00F03072B01D0C0
:101FC800012300E0002318460837BD4680BD00BF46
:101FD8000020005200440258000000240090D00362
:101FE800040000244800002445EDF6FF0002020228
:101FF8000000FF018002010180B58CB000AF78605D
:102008007B68002B02D1012300F048BC7B681B6869
:1020180003F00103002B00F08880994B1B6903F043
:102028003803FB62964B9B6ABB62FB6A102B07D096
:10203800FB6A182B11D1BB6A03F00303022B0CD1E6
:102048008F4B1B6803F40033002B6DD07B685B68F3
:10205800002B69D1012300F021BC7B685B68B3F5D4
:10206800803F06D1864B1B68854A43F48033136052
:102078002EE07B685B68002B0CD1814B1B68804A83
:1020880023F4803313607E4B1B687D4A23F480233E
:1020980013601DE07B685B68B3F5A02F0CD1784B0B
:1020A8001B68774A43F480231360754B1B68744A96
:1020B80043F4803313600BE0714B1B68704A23F4C0
:1020C800803313606E4B1B686D4A23F480231360C2
:1020D8007B685B68002B13D0FEF79AFE786208E0F5
:1020E800FEF796FE02467B6AD31A642B01D90323B6
:1020F800D4E3634B1B6803F40033002BF0D014E0E7
:10210800FEF786FE786208E0FEF782FE02467B6AEA
:10211800D31A642B01D90323C0E3594B1B6803F47A
:102128000033002BF0D100E000BF7B681B6803F090
:102138000203002B00F0CA80514B1B6903F03803DF
:102148003B624F4B9B6AFB613B6A002B07D03B6AA3
:10215800182B56D1FB6903F00303002B51D1484BD0
:102168001B6803F00403002B05D07B68DB68002B99
:1021780001D1012392E3424B1B6823F019027B68CB
:10218800DB683F4913430B60FEF742FE786208E0C4
:10219800FEF73EFE02467B6AD31A022B01D90323BF
:1021A8007CE3374B1B6803F00403002BF0D0FEF7E9
:1021B8005FFE034641F20302934217D87B681B690E
:1021C800402B08D12E4B5B6823F47C332C4A43F414
:1021D800003353607AE02A4B5B6823F47C327B68D7
:1021E8001B691B03264913434B606FE0244B5B6854
:1021F80023F0FE427B681B691B06214913434B6091
:1022080064E07B68DB68002B47D01D4B1B6823F01C
:1022180019027B68DB681A4913430B60FEF7F8FD67
:10222800786208E0FEF7F4FD02467B6AD31A022BB7
:1022380001D9032332E3124B1B6803F00403002B7C
:10224800F0D0FEF715FE034641F20302934219D877
:102258007B681B69402B08D1094B5B6823F47C33EE
:10226800074A43F40033536030E0054B5B6823F4BE
:102278007C327B681B691B03014913434B6025E0D3
:10228800004402589A4B5B6823F0FE427B681B6946
:102298001B06974913434B6018E0954B1B68944AFB
:1022A80023F001031360FEF7B3FD786208E0FEF740
:1022B800AFFD02467B6AD31A022B01D90323EDE254
:1022C8008B4B1B6803F00403002BF0D17B681B6861
:1022D80003F01003002B00F0A980854B1B6903F065
:1022E8003803BB61824B9B6A7B61BB69082B07D0B3
:1022F800BB69182B3AD17B6903F00303012B35D155
:102308007B4B1B6803F48073002B05D07B68DB696B
:10231800802B01D00123C1E2FEF7AAFD034641F25A
:102328000302934217D87B681B6A202B08D1704B95
:102338005B6823F0F8436E4A43F08043536075E0CE
:102348006B4B5B6823F0F8427B681B6A9B06684905
:1023580013434B606AE0664BDB6823F07C527B6872
:102368001B6A1B0662491343CB605FE07B68DB692D
:10237800002B42D05E4B1B685D4A43F0800313601C
:10238800FEF746FD786208E0FEF742FD02467B6AEA
:10239800D31A022B01D9032380E2554B1B6803F49F
:1023A8008073002BF0D0FEF763FD034641F2030271
:1023B800934217D87B681B6A202B08D14C4B5B686B
:1023C80023F0F8434A4A43F0804353602EE0484BD9
:1023D8005B6823F0F8427B681B6A9B0644491343F9
:1023E8004B6023E0424BDB6823F07C527B681B6A1E
:1023F8001B063F491343CB6018E03D4B1B683C4A22
:1024080023F080031360FEF703FD786208E0FEF70F
:10241800FFFC02467B6AD31A022B01D903233DE253
:10242800334B1B6803F48073002BF0D17B681B6867
:1024380003F00803002B36D07B685B69002B19D0AA
:102448002B4B5B6F2A4A43F001035367FEF7E0FC0E
:10245800786208E0FEF7DCFC02467B6AD31A022B9E
:1024680001D903231AE2224B5B6F03F00203002B0E
:10247800F0D018E01E4B5B6F1D4A23F00103536731
:10248800FEF7C6FC786208E0FEF7C2FC02467B6AEB
:10249800D31A022B01D9032300E2154B5B6F03F01B
:1024A8000203002BF0D17B681B6803F02003002B8C
:1024B80039D07B689B69002B1CD00D4B1B680C4ADC
:1024C80043F480531360FEF7A3FC786208E0FEF73C
:1024D8009FFC02467B6AD31A022B01D90323DDE154
:1024E800034B1B6803F40053002BF0D01BE000BF24
:1024F800004402589B4B1B689A4A23F4805313608C
:10250800FEF786FC786208E0FEF782FC02467B6AEA
:10251800D31A022B01D90323C0E1924B1B6803F4A1
:102528000053002BF0D17B681B6803F00403002BD9
:1025380000F081808C4B1B688B4A43F480731360D6
:10254800FEF766FC786208E0FEF762FC02467B6AEA
:10255800D31A642B01D90323A0E1834B1B6803F42E
:102568008073002BF0D07B689B68012B06D17D4BD4
:102578001B6F7C4A43F0010313672DE07B689B685F
:10258800002B0CD1774B1B6F764A23F0010313679E
:10259800744B1B6F734A23F0040313671CE07B68BA
:1025A8009B68052B0CD16F4B1B6F6E4A43F00403DD
:1025B80013676C4B1B6F6B4A43F0010313670BE007
:1025C800684B1B6F674A23F001031367654B1B6F4A
:1025D800644A23F0040313677B689B68002B15D0BB
:1025E800FEF716FC78620AE0FEF712FC02467B6AE8
:1025F800D31A41F28832934201D903234EE1594B51
:102608001B6F03F00203002BEED014E0FEF700FC72
:1026180078620AE0FEF7FCFB02467B6AD31A41F2B5
:102628008832934201D9032338E14E4B1B6F03F0E4
:102638000203002BEED17B685B6A002B00F02D8132
:10264800484B1B6903F03803182B00F0BD807B68EA
:102658005B6A022B40F09E80424B1B68414A23F084
:1026680080731360FEF7D4FB786208E0FEF7D0FBB6
:1026780002467B6AD31A022B01D903230EE1394B98
:102688001B6803F00073002BF0D1364B9A6A374B66
:1026980013407A68916A7A68D26A12010A4331490A
:1026A80013438B627B681B6B013BC3F308027B6897
:1026B8005B6B013B5B029BB21A437B689B6B013BE4
:1026C8001B0403F4FE031A437B68DB6B013B1B0608
:1026D80003F0FE43234913430B63224BDB6A214A71
:1026E80023F00103D3621F4B5A6B214B13407A68C6
:1026F800926CD2001B4913434B631A4BDB6A23F0DD
:102708000C027B681B6C17491343CB62154BDB6AC1
:1027180023F002027B685B6C12491343CB62114BB6
:10272800DB6A104A43F48033D3620E4BDB6A0D4AEE
:1027380043F40033D3620B4BDB6A0A4A43F4802329
:10274800D362084BDB6A074A43F00103D362054BA7
:102758001B68044A43F080731360FEF759FB7862E4
:1027680011E000BF00440258004802580CFCFFFF6B
:102778000700FFFFFEF74CFB02467B6AD31A022BC9
:1027880001D903238AE0474B1B6803F00073002B31
:10279800F0D082E0434B1B68424A23F080731360F9
:1027A800FEF736FB786208E0FEF732FB02467B6AEA
:1027B800D31A022B01D9032370E03A4B1B6803F0AC
:1027C8000073002BF0D168E0364B9B6A3B61354BB8
:1027D8001B6BFB607B685B6A012B31D03B6903F0A4
:1027E80003027B689B6A9A422AD13B691B0903F062
:1027F8003F027B68DB6A9A4222D1FB68C3F3080276
:102808007B681B6B013B9A421AD1FB685B0A03F099
:102818007F027B685B6B013B9A4211D1FB681B0C02
:1028280003F07F027B689B6B013B9A4208D1FB68EF
:102838001B0E03F07F027B68DB6B013B9A4201D0E1
:1028480001232BE0174B5B6BDB08C3F30C033B61E5
:102858007B689B6C3A699A421FD0124BDB6A114A1B
:1028680023F00103D362FEF7D3FA786200BFFEF7C4
:10287800CFFA02467B6A9342F9D00A4B5A6B0A4B4D
:1028880013407A68926CD200064913434B63054B98
:10289800DB6A044A43F00103D36200231846303749
:1028A800BD4680BD004402580700FFFF80B586B0D2
:1028B80000AF786039607B68002B01D101239CE16F
:1028C8008A4B1B6803F00F033A689A4210D9874B6A
:1028D8001B6823F00F0285493B6813430B60834B49
:1028E8001B6803F00F033A689A4201D0012384E180
:1028F8007B681B6803F00403002B10D07B681A69FF
:102908007B4B9B6903F070039A4208D9784B9B690B
:1029180023F070027B681B69754913438B617B68E0
:102928001B6803F00803002B10D07B685A69704BB2
:10293800DB6903F070039A4208D96D4BDB6923F019
:1029480070027B685B696A491343CB617B681B68CB
:1029580003F01003002B10D07B689A69644BDB6985
:1029680003F4E0639A4208D9614BDB6923F4E0621F
:102978007B689B695E491343CB617B681B6803F0E6
:102988002003002B10D07B68DA69594B1B6A03F0CF
:1029980070039A4208D9564B1B6A23F070027B6871
:1029A800DB69534913430B627B681B6803F002031E
:1029B800002B10D07B68DA684D4B9B6903F00F033E
:1029C8009A4208D94A4B9B6923F00F027B68DB685F
:1029D800474913438B617B681B6803F00103002B95
:1029E80055D0434B9B6923F470627B689B684049D0
:1029F80013438B617B685B68022B07D13C4B1B68D8
:102A080003F40033002B21D10123F6E07B685B68D7
:102A1800032B07D1364B1B6803F00073002B15D12D
:102A28000123EAE07B685B68012B07D1304B1B6808
:102A380003F48073002B09D10123DEE02C4B1B68C3
:102A480003F00403002B01D10123D6E0284B1B69B6
:102A580023F007027B685B68254913430B61FEF787
:102A6800D7F978610AE0FEF7D3F902467B69D31AF1
:102A780041F28832934201D90323BEE01C4B1B6903
:102A880003F038027B685B68DB009A42EBD17B6815
:102A98001B6803F00203002B10D07B68DA68144B24
:102AA8009B6903F00F039A4208D2114B9B6923F0EC
:102AB8000F027B68DB680E4913438B610B4B1B6865
:102AC80003F00F033A689A4214D2084B1B6823F0AC
:102AD8000F0206493B6813430B60044B1B6803F065
:102AE8000F033A689A4205D0012386E0002000527D
:102AF800004402587B681B6803F00403002B10D0C5
:102B08007B681A693F4B9B6903F070039A4208D2AD
:102B18003C4B9B6923F070027B681B69394913435E
:102B28008B617B681B6803F00803002B10D07B685F
:102B38005A69344BDB6903F070039A4208D2314B6F
:102B4800DB6923F070027B685B692E491343CB6114
:102B58007B681B6803F01003002B10D07B689A6910
:102B6800284BDB6903F4E0639A4208D2254BDB6902
:102B780023F4E0627B689B6922491343CB617B683D
:102B88001B6803F02003002B10D07B68DA691D4B0B
:102B98001B6A03F070039A4208D21A4B1B6A23F08F
:102BA80070027B68DB69174913430B6200F034F845
:102BB8000246144B9B691B0A03F00F031249CB5CB6
:102BC80003F01F0322FA03F33B610E4B9B6903F0EA
:102BD8000F030D4AD35C03F01F033A6922FA03F38B
:102BE8000A4A13600A4A3B6913600A4B1B68184675
:102BF800FEF7C4F80346FB73FB7B18461837BD463F
:102C080080BD00BF00440258A46E000804000024E0
:102C1800000000244800002480B489B000AFB34B02
:102C28001B6903F03803182B00F2558101A252F8F2
:102C380023F000BFA12C0008DF2E0008DF2E0008BB
:102C4800DF2E0008DF2E0008DF2E0008DF2E000828
:102C5800DF2E0008C72C0008DF2E0008DF2E000832
:102C6800DF2E0008DF2E0008DF2E0008DF2E000808
:102C7800DF2E0008CD2C0008DF2E0008DF2E00080C
:102C8800DF2E0008DF2E0008DF2E0008DF2E0008E8
:102C9800DF2E0008D32C0008944B1B6803F0200398
:102CA800002B09D0914B1B68DB0803F00303904A03
:102CB80022FA03F3BB6111E18D4BBB610EE18D4B31
:102CC800BB610BE18C4BBB6108E1884B9B6A03F04D
:102CD80003037B61854B9B6A1B0903F03F033B6140
:102CE800824BDB6A03F00103FB60804B5B6BDB0804
:102CF800C3F30C03FA6802FB03F307EE903AF8EE0D
:102D0800677AC7ED027A3B69002B00F0E1807B69A6
:102D1800022B00F083807B69022B00F2A1807B6983
:102D2800002B03D07B69012B56D099E06F4B1B68B1
:102D380003F02003002B2DD06C4B1B68DB0803F03D
:102D480003036B4A22FA03F37B607B6807EE903A31
:102D5800F8EE676A3B6907EE903AF8EE677A86EE16
:102D6800A77A624B1B6BC3F3080307EE903AF8EEA1
:102D7800676A97ED026ADFED615AC6EE257A76EE4C
:102D8800A77AF7EE006A77EEA67A67EE277AC7ED9C
:102D9800077A87E03B6907EE903AF8EE677ADFED4D
:102DA800586A86EEA77A514B1B6BC3F3080307EEEC
:102DB800903AF8EE676A97ED026ADFED505AC6EE70
:102DC800257A76EEA77AF7EE006A77EEA67A67EEAE
:102DD800277AC7ED077A65E03B6907EE903AF8EE87
:102DE800677ADFED486A86EEA77A404B1B6BC3F320
:102DF800080307EE903AF8EE676A97ED026ADFED8E
:102E08003F5AC6EE257A76EEA77AF7EE006A77EE95
:102E1800A67A67EE277AC7ED077A43E03B6907EEA3
:102E2800903AF8EE677ADFED386A86EEA77A2F4B8C
:102E38001B6BC3F3080307EE903AF8EE676A97ED49
:102E4800026ADFED2E5AC6EE257A76EEA77AF7EEFD
:102E5800006A77EEA67A67EE277AC7ED077A21E04F
:102E68003B6907EE903AF8EE677ADFED266A86EE60
:102E7800A77A1E4B1B6BC3F3080307EE903AF8EED4
:102E8800676A97ED026ADFED1D5AC6EE257A76EE7F
:102E9800A77AF7EE006A77EEA67A67EE277AC7ED8B
:102EA800077A00BF114B1B6B5B0A03F07F030133EA
:102EB8003B603B6807EE903AB8EE677AD7ED076A51
:102EC800C6EE877AFCEEE77A17EE903ABB6105E02A
:102ED8000023BB6102E0074BBB6100BFBB6918461A
:102EE8002437BD465DF8047B704700BF0044025894
:102EF8000090D00300093D0040787D0100000046A5
:102F08000024744C0024744A20BCBE4B2DE9B04FF9
:102F1800CAB000AFC7F81401002387F8273100238F
:102F280087F82631D7F81431D3E9002302F000647A
:102F3800002554EA050349D0D7F814319B6EB3F540
:102F4800401F2FD0B3F5401F28D8B3F5001F1AD063
:102F5800B3F5001F22D8002B03D0B3F5801F07D08C
:102F68001CE0B84BDB6AB74A43F40033D3621AE07B
:102F7800D7F8143108330221184601F0D1F9034675
:102F880087F827310FE0D7F8143128330221184683
:102F980001F078FA034687F8273104E0012387F81F
:102FA800273100E000BF97F82731002B0AD1A54B45
:102FB8001B6D23F44011D7F814319B6EA14A0B43C3
:102FC800136503E097F8273187F82631D7F81431CD
:102FD800D3E9002302F480784FF0000958EA090386
:102FE80047D0D7F814319B6D042B2AD801A252F888
:102FF80023F000BF113000081F30000835300008EA
:1030080053300008533000088E4BDB6A8D4A43F476
:103018000033D3621AE0D7F8143108330021184678
:1030280001F07EF9034687F827310FE0D7F814310D
:1030380028330021184601F025FA034687F827317E
:1030480004E0012387F8273100E000BF97F8273113
:10305800002B0AD17B4B1B6D23F00701D7F81431E5
:103068009B6D784A0B43136503E097F8273187F87F
:103078002631D7F81431D3E9002302F4007A4FF04F
:10308800000B5AEA0B034CD0D7F81431DB6DB3F5BB
:10309800807F30D0B3F5807F29D8C02B2DD0C02BAE
:1030A80025D8802B18D0802B21D8002B02D0402B7C
:1030B80007D01CE0634BDB6A624A43F40033D362F7
:1030C8001CE0D7F8143108330021184601F028F91C
:1030D800034687F8273111E0D7F814312833002147
:1030E800184601F0CFF9034687F8273106E0012397
:1030F80087F8273102E000BF00E000BF97F82731CA
:10310800002B0AD14F4B1B6D23F4E071D7F8143113
:10311800DB6D4C4A0B43136503E097F8273187F8BA
:103128002631D7F81431D3E9002302F48063C7F8B5
:1031380008310023C7F80C31D7E942120B46134374
:1031480053D0D7F81431D3F8A830B3F5000F35D0E1
:10315800B3F5000F2ED8B3F5C00F31D0B3F5C00FBB
:1031680028D8B3F5800F1AD0B3F5800F22D8002BDA
:1031780003D0B3F5001F07D01CE0324BDB6A314A9D
:1031880043F40033D3621CE0D7F81431083300212C
:10319800184601F0C5F8034687F8273111E0D7F83B
:1031A800143128330021184601F06CF9034687F8DA
:1031B800273106E0012387F8273102E000BF00E04D
:1031C80000BF97F82731002B0BD11E4B9B6D23F4C2
:1031D8006001D7F81431D3F8A8301A4A0B43936525
:1031E80003E097F8273187F82631D7F81431D3E967
:1031F800002302F40063C7F800310023C7F8043144
:10320800D7E940120B46134356D0D7F81431D3F8F8
:10321800AC30B3F1806F38D0B3F1806F31D8B3F1EF
:10322800407F34D0B3F1407F2BD8B3F1007F1DD05D
:10323800B3F1007F25D8002B06D0B3F1807F0AD0E8
:103248001FE000BF00440258A24BDB6AA14A43F4C6
:103258000033D3621CE0D7F8143108330021184634
:1032680001F05EF8034687F8273111E0D7F81431EA
:1032780028330021184601F005F9034687F827315D
:1032880006E0012387F8273102E000BF00E000BF15
:1032980097F82731002B0BD18E4B9B6D23F0E06103
:1032A800D7F81431D3F8AC308A4A0B43936503E05E
:1032B80097F8273187F82631D7F81431D3E9002356
:1032C80002F00073C7F8F8300023C7F8FC30D7E9DC
:1032D8003E120B4613433AD0D7F81431DB6C302B2F
:1032E8001FD0302B19D8202B0CD0202B15D8002B11
:1032F80019D0102B11D1774BDB6A764A43F400338F
:10330800D36211E0D7F8143108330221184601F0CE
:1033180007F8034687F8273106E0012387F82731A5
:1033280002E000BF00E000BF97F82731002B0AD168
:10333800684BDB6C23F03001D7F81431DB6C654A3D
:103348000B43D36403E097F8273187F82631D7F881
:103358001431D3E9002302F48053C7F8F030002376
:10336800C7F8F430D7E93C120B46134351D0D7F8CD
:1033780014311B6EB3F5804F35D0B3F5804F2ED87E
:10338800B3F5405F31D0B3F5405F28D8B3F5005F9F
:103398001AD0B3F5005F22D8002B03D0B3F5805FB5
:1033A80007D01CE04B4BDB6A4A4A43F40033D36234
:1033B8001CE0D7F8143108330021184600F0B0FF9C
:1033C800034687F8273111E0D7F814312833002154
:1033D800184601F057F8034687F8273106E001231D
:1033E80087F8273102E000BF00E000BF97F82731D7
:1033F800002B0AD1374B1B6D23F4E041D7F8143169
:103408001B6E344A0B43136503E097F8273187F89E
:103418002631D7F81431D3E9002302F40053C7F852
:10342800E8300023C7F8EC30D7E93A120B461343CB
:1034380056D0D7F814315B6EB3F5A02F33D0B3F55F
:10344800A02F2CD8B3F5802F2FD0B3F5802F26D8F6
:10345800B3F5403F2BD0B3F5403F20D8B3F5003F3C
:1034680012D0B3F5003F1AD8002B22D0B3F5803F15
:1034780015D1D7F8143108330121184600F050FF50
:10348800034687F8273115E0D7F81431283301218E
:10349800184600F0F7FF034687F827310AE00123B2
:1034A80087F8273106E000BF04E000BF02E000BF54
:1034B80000E000BF97F82731002B0DD1054B1B6D9D
:1034C80023F4E021D7F814315B6E024A0B431365ED
:1034D80006E000BF0044025897F8273187F82631E4
:1034E800D7F81431D3E9002302F48043C7F8E03059
:1034F8000023C7F8E430D7E938120B46134355D0F8
:10350800D7F81431D3F8B030B3F1A04F33D0B3F1BA
:10351800A04F2CD8B3F1804F2FD0B3F1804F26D8CD
:10352800B3F1405F2BD0B3F1405F20D8B3F1005F17
:1035380012D0B3F1005F1AD8002B22D0B3F1805F0C
:1035480015D1D7F8143108330121184600F0E8FEE8
:10355800034687F8273115E0D7F8143128330121BD
:10356800184600F08FFF034687F827310AE0012349
:1035780087F8273106E000BF04E000BF02E000BF83
:1035880000E000BF97F82731002B0BD1A34B9B6DB0
:1035980023F0E041D7F81431D3F8B0309F4A0B43F9
:1035A800936503E097F8273187F82631D7F8143167
:1035B800D3E9002302F40043C7F8D8300023C7F842
:1035C800DC30D7E936120B46134337D0D7F814311D
:1035D8001B6FB3F1005F0ED0B3F1005F16D8002B5C
:1035E80018D0B3F1805F11D18C4BDB6A8B4A43F45E
:1035F8000033D3620FE0D7F814310833012118469D
:1036080000F08EFE034687F8273104E0012387F88F
:10361800273100E000BF97F82731002B0AD17F4BF4
:103628001B6D23F04051D7F814311B6F7B4A0B43B5
:10363800136503E097F8273187F82631D7F8143156
:10364800D3E9002302F08073C7F8D0300023C7F80D
:10365800D430D7E934120B46134339D0D7F8143194
:103668009B6C032B1CD801A252F823F0B13600083A
:103678008536000893360008B1360008674BDB6AC8
:10368800664A43F40033D3620FE0D7F814310833A5
:103698000221184600F044FE034687F8273104E06B
:1036A800012387F8273100E000BF97F82731002B66
:1036B8000AD15A4BDB6C23F00301D7F814319B6C09
:1036C800564A0B43D36403E097F8273187F826312D
:1036D800D7F81431D3E9002302F48003C7F8C830BF
:1036E8000023C7F8CC30D7E932120B46134300F059
:1036F8009F804B4B1B684A4A43F480731360FDF765
:1037080087FBC7F820010BE0FDF782FB0246D7F8DC
:103718002031D31A642B03D9032387F8273105E016
:103728003F4B1B6803F48073002BEDD097F82731CB
:10373800002B79D1394B1A6FD7F81431D3F8B4303C
:10374800534003F44073002B15D0344B1B6F23F404
:103758004073C7F81C31314B1B6F304A43F4803338
:1037680013672E4B1B6F2D4A23F4803313672B4AA4
:10377800D7F81C311367D7F81431D3F8B430B3F540
:10378800807F18D1FDF744FBC7F820010DE0FDF755
:103798003FFB0246D7F82031D21A41F288339A42C9
:1037A80003D9032387F8273105E01C4B1B6F03F06F
:1037B8000203002BEBD097F82731002B29D1D7F83B
:1037C8001431D3F8B43003F44073B3F5407F0ED10D
:1037D800124B1B6923F47C51D7F81431D3F8B43059
:1037E8001A09104B13400D4A0B43136105E00B4BAC
:1037F8001B690A4A23F47C531361084B196FD7F8E5
:103808001431D3F8B430C3F30B03044A0B431367E2
:103818000EE097F8273187F8263109E0004402586E
:1038280000480258CFFFFF0097F8273187F8263164
:10383800D7F81431D3E9002302F00103C7F8C030E8
:103848000023C7F8C430D7E930120B46134300F001
:103858008980D7F81431DB6F282B6BD801A252F876
:1038680023F000BF453900083D3900083D390008FC
:103878003D3900083D3900083D3900083D39000848
:103888003D390008113900083D3900083D39000864
:103898003D3900083D3900083D3900083D39000828
:1038A8003D390008273900083D3900083D3900082E
:1038B8003D3900083D3900083D3900083D39000808
:1038C8003D390008453900083D3900083D390008F0
:1038D8003D3900083D3900083D3900083D390008E8
:1038E8003D390008453900083D3900083D390008D0
:1038F8003D3900083D3900083D3900083D390008C8
:103908003D39000845390008D7F81431083301213A
:10391800184600F005FD034687F827310FE0D7F871
:10392800143128330121184600F0ACFD034687F80E
:10393800273104E0012387F8273100E000BF97F81A
:103948002731002B0AD1BF4B5B6D23F03801D7F824
:103958001431DB6FBB4A0B43536503E097F82731FB
:1039680087F82631D7F81431D3E9002302F002038F
:10397800C7F8B8300023C7F8BC30D7E92E120B4679
:10398800134341D0D7F814319B6F052B24D801A2DB
:1039980052F823F0E9390008B5390008CB39000896
:1039A800E9390008E9390008E9390008D7F814317D
:1039B80008330121184600F0B3FC034687F8273185
:1039C8000FE0D7F8143128330121184600F05AFDCA
:1039D800034687F8273104E0012387F8273100E000
:1039E80000BF97F82731002B0AD1964B5B6D23F067
:1039F8000701D7F814319B6F924A0B43536503E0D4
:103A080097F8273187F82631D7F81431D3E90023FE
:103A180002F00403C7F8B0300023C7F8B430D7E980
:103A28002C120B46134344D0D7F81431D3F89430F2
:103A3800052B25D801A252F823F000BF913A0008BF
:103A48005D3A0008733A0008913A0008913A000874
:103A5800913A0008D7F8143108330121184600F0CC
:103A68005FFC034687F827310FE0D7F81431283375
:103A78000121184600F006FD034687F8273104E0C7
:103A8800012387F8273100E000BF97F82731002B82
:103A98000BD16C4B9B6D23F00701D7F81431D3F889
:103AA8009430684A0B43936503E097F8273187F809
:103AB8002631D7F81431D3E9002302F02003C7F8E0
:103AC800A8300023C7F8AC30D7E92A120B461343B5
:103AD80055D0D7F81431D3F89030B3F1A04F33D084
:103AE800B3F1A04F2CD8B3F1804F2FD0B3F1804F52
:103AF80026D8B3F1405F2BD0B3F1405F20D8B3F1A3
:103B0800005F12D0B3F1005F1AD8002B22D0B3F1B6
:103B1800805F15D1D7F8143108330021184600F01A
:103B2800FFFB034687F8273115E0D7F8143128330F
:103B38000221184600F0A6FC034687F827310AE060
:103B4800012387F8273106E000BF04E000BF02E048
:103B580000BF00E000BF97F82731002B0BD1394B8D
:103B68005B6D23F0E041D7F81431D3F89030354A33
:103B78000B43536503E097F8273187F82631D7F8C8
:103B88001431D3E9002302F04003C7F8A030002322
:103B9800C7F8A430D7E928120B46134358D0D7F8F2
:103BA8001431D3F89C30B3F5A05F33D0B3F5A05FE0
:103BB8002CD8B3F5805F2FD0B3F5805F26D8B3F546
:103BC800406F2BD0B3F5406F20D8B3F5006F12D0FB
:103BD800B3F5006F1AD8002B22D0B3F5806F15D13A
:103BE800D7F8143108330021184600F099FB034632
:103BF80087F8273115E0D7F8143128330221184601
:103C080000F040FC034687F827310AE0012387F8D3
:103C1800273106E000BF04E000BF02E000BF00E07B
:103C280000BF97F82731002B0ED1064B9B6D23F46C
:103C3800E051D7F81431D3F89C30024A0B4393650E
:103C480006E000BF0044025897F8273187F826316C
:103C5800D7F81431D3E9002302F08003C7F898306D
:103C68000023C7F89C30D7E926120B46134355D0DA
:103C7800D7F81431D3F8A030B3F5204F33D0B3F5CB
:103C8800204F2CD8B3F5004F2FD0B3F5004F26D8CE
:103C9800B3F5C04F2BD0B3F5C04F20D8B3F5804F44
:103CA80012D0B3F5804F1AD8002B22D0B3F5005F9D
:103CB80015D1D7F8143108330021184600F030FB2D
:103CC800034687F8273115E0D7F814312833022145
:103CD800184600F0D7FB034687F827310AE001238E
:103CE80087F8273106E000BF04E000BF02E000BF0C
:103CF80000E000BF97F82731002B0BD1A14B9B6D3B
:103D080023F46041D7F81431D3F8A0309D4A0B430F
:103D1800936503E097F8273187F82631D7F81431EF
:103D2800D3E9002302F00803C7F890300023C7F84E
:103D38009430D7E924120B4613431ED0D7F8143118
:103D4800D3F88430B3F5805F0CD1D7F81431283319
:103D58000221184600F096FB0346002B02D00123EF
:103D680087F82631874B5B6D23F44051D7F814311F
:103D7800D3F88430834A0B435365D7F81431D3E919
:103D8800002302F01003C7F888300023C7F88C30EE
:103D9800D7E922120B4613431ED0D7F81431D3F8B3
:103DA8009830B3F5807F0CD1D7F81431283302212D
:103DB800184600F067FB0346002B02D0012387F862
:103DC8002631704B9B6D23F44071D7F81431D3F82A
:103DD80098306C4A0B439365D7F81431D3E9002324
:103DE80002F40023C7F880300023C7F88430D7E9ED
:103DF80020120B4613433ED0D7F81431D3F8A43021
:103E0800B3F5003F22D0B3F5003F1BD8002B03D0F9
:103E1800B3F5803F0BD015E0D7F8143108330021F3
:103E2800184600F07DFA034687F827310FE0D7F8E7
:103E3800143128330221184600F024FB034687F882
:103E4800273104E0012387F8273100E000BF97F805
:103E58002731002B0BD14B4B9B6D23F44031D7F806
:103E68001431D3F8A430474A0B43936503E097F81D
:103E7800273187F82631D7F81431D3E9002302F423
:103E88008023BB670023FB67D7E91E120B46134349
:103E98003BD0D7F81431D3F88830B3F5401F1FD082
:103EA800B3F5401F18D8B3F5801F03D0B3F5001F32
:103EB80007D011E0334BDB6A324A43F40033D36254
:103EC8000FE0D7F8143128330121184600F0DAFA48
:103ED800034687F8273104E0012387F8273100E0FB
:103EE80000BF97F82731002B0BD1264B5B6D23F4CD
:103EF8004011D7F81431D3F88830224A0B43536560
:103F080003E097F8273187F82631D7F81431D3E939
:103F1800002302F480333B6700237B67D7E91C1238
:103F28000B46134334D0D7F814311B6D002B03D044
:103F3800B3F5803F07D011E0124BDB6A114A43F416
:103F48000033D3620EE0D7F8143108330221184643
:103F580000F0E6F9034687F8273103E0012387F8E4
:103F6800273100BF97F82731002B0DD1054BDB6CAB
:103F780023F48031D7F814311B6D024A0B43D36404
:103F880006E000BF0044025897F8273187F8263129
:103F9800D7F81431D3E9002302F00053BB6600239D
:103FA800FB66D7E91A120B4613430CD0D7F8143125
:103FB80028330221184600F065FA0346002B02D088
:103FC800012387F82631D7F81431D3E9002302F406
:103FD80000333B6600237B66D7E918120B46134370
:103FE80038D0D7F81431D3F88030B3F5407F18D0E3
:103FF800B3F5407F11D8B3F5007F14D0B3F5007F37
:104008000BD8002B11D0B3F5807F06D1C34BDB6AE8
:10401800C24A43F40033D36208E0012387F827310A
:1040280004E000BF02E000BF00E000BF97F82731BE
:10403800002B0BD1B94B5B6D23F44071D7F81431C9
:10404800D3F88030B54A0B43536503E097F827311E
:1040580087F82631D7F81431D3E9002302F4801306
:10406800BB650023FB65D7E916120B46134309D03D
:10407800AA4B1B6D23F00041D7F814315B6FA74A98
:104088000B431365D7F81431D3E9002302F08053AA
:104098003B6500237B65D7E914120B4613430AD00E
:1040A8009E4B1B6923F48041D7F81431D3F8B830FC
:1040B8009A4A0B431361D7F81431D3E9002302F469
:1040C8000013BB640023FB64D7E912120B461343A9
:1040D80009D0924B1B6D23F08071D7F81431DB6E39
:1040E8008E4A0B431365D7F81431D3E9002302F045
:1040F80080433B6400237B64D7E910120B461343CB
:104108000ED0864B1B69854A23F400431361834B09
:104118001969D7F81431D3F8BC30804A0B431361BE
:10412800D7F81431D3E9002302F00043BB6300231E
:10413800FB63D7E90E120B46134309D0774BDB6CB0
:1041480023F04051D7F814315B6D744A0B43D364A4
:10415800D7F81431D3E9002302F400033B630023AA
:104168007B63D7E90C120B4613430AD06B4B5B6D8C
:1041780023F44001D7F81431D3F88C30674A0B4345
:104188005365D7F81431D3E900230021B96203F04D
:104198000103FB62D7E90A120B46134311D0D7F883
:1041A800143108330021184600F0BAF8034687F89E
:1041B800273197F82731002B03D097F8273187F854
:1041C8002631D7F81431D3E900230021396203F0EE
:1041D80002037B62D7E908120B46134311D0D7F8C4
:1041E800143108330121184600F09AF8034687F87D
:1041F800273197F82731002B03D097F8273187F814
:104208002631D7F81431D3E900230021B96103F02E
:104218000403FB61D7E906120B46134311D0D7F804
:10422800143108330221184600F07AF8034687F85B
:10423800273197F82731002B03D097F8273187F8D3
:104248002631D7F81431D3E900230021396103F06E
:1042580008037B61D7E904120B46134311D0D7F842
:10426800143128330021184600F00CF9034687F86A
:10427800273197F82731002B03D097F8273187F893
:104288002631D7F81431D3E900230021B96003F0AF
:104298001003FB60D7E902120B46134311D0D7F87D
:1042A800143128330121184600F0ECF8034687F84A
:1042B800273197F82731002B03D097F8273187F853
:1042C8002631D7F81431D3E900230021396003F0EF
:1042D80020037B60D7E900120B46134311D0D7F8AF
:1042E800143128330221184600F0CCF8034687F829
:1042F800273197F82731002B03D097F8273187F813
:10430800263197F82631002B01D1002300E0012344
:10431800184607F59477BD46BDE8B08F00440258AB
:1043280080B584B000AF786039600023FB73534BCD
:104338009B6A03F00303032B01D1012399E04F4B40
:104348001B684E4A23F080631360FCF761FDB86078
:1043580008E0FCF75DFD0246BB68D31A022B01D9C1
:10436800032386E0454B1B6803F00063002BF0D164
:10437800424B9B6A23F47C327B681B681B033F49D2
:1043880013438B627B685B68013BC3F308027B685D
:104398009B68013B5B029BB21A437B68DB68013B6D
:1043A8001B0403F4FE031A437B681B69013B1B06CD
:1043B80003F0FE43314913438B63304BDB6A23F030
:1043C800C0027B685B692D491343CB622B4BDB6AC8
:1043D80023F020027B689B6928491343CB62274B53
:1043E800DB6A264A23F01003D362244BDA6B244B92
:1043F80013407A68D269D20020491343CB631F4B1C
:10440800DB6A1E4A43F01003D3623B68002B06D1D7
:104418001A4BDB6A194A43F40023D3620FE03B6866
:10442800012B06D1154BDB6A144A43F48013D3627F
:1044380005E0124BDB6A114A43F40013D3620F4BB9
:104448001B680E4A43F080631360FCF7E1FCB86018
:1044580008E0FCF7DDFC0246BB68D31A022B01D941
:10446800032306E0054B1B6803F00063002BF0D024
:10447800FB7B18461037BD4680BD00BF004402587C
:104488000700FFFF80B584B000AF78603960002373
:10449800FB73534B9B6A03F00303032B01D10123E6
:1044A80099E04F4B1B684E4A23F080531360FCF78A
:1044B800AFFCB86008E0FCF7ABFC0246BB68D31A57
:1044C800022B01D9032386E0454B1B6803F00053F8
:1044D800002BF0D1424B9B6A23F07C727B681B68EF
:1044E8001B053F4913438B627B685B68013BC3F341
:1044F80008027B689B68013B5B029BB21A437B689E
:10450800DB68013B1B0403F4FE031A437B681B6949
:10451800013B1B0603F0FE43314913430B64304B48
:10452800DB6A23F440627B685B692D491343CB62E5
:104538002B4BDB6A23F400727B689B692849134381
:10454800CB62274BDB6A264A23F48073D362244B61
:104558005A6C244B13407A68D269D200204913431D
:104568004B641F4BDB6A1E4A43F48073D3623B687B
:10457800002B06D11A4BDB6A194A43F48003D36235
:104588000FE03B68012B06D1154BDB6A144A43F454
:104598000003D36205E0124BDB6A114A43F08073D3
:1045A800D3620F4B1B680E4A43F080531360FCF72D
:1045B8002FFCB86008E0FCF72BFC0246BB68D31A56
:1045C800022B01D9032306E0054B1B6803F00053B7
:1045D800002BF0D0FB7B18461037BD4680BD00BFCE
:1045E800004402580700FFFF80B485B000AFF860B0
:1045F800B9607A60FB681968BB6803FB03F213466D
:104608005B001344DB4301EA0302BB6803FB03F3CB
:10461800796801FB03F31A43FB681A6000BF14377B
:10462800BD465DF8047B704780B485B000AFF86084
:10463800B9607A60FB685A68BB68DB431A40BB689C
:10464800796801FB03F31A43FB685A6000BF14370B
:10465800BD465DF8047B704780B485B000AFF86054
:10466800B9607A60FB689968BB6803FB03F213467C
:104678005B001344DB4301EA0302BB6803FB03F35B
:10468800796801FB03F31A43FB689A6000BF14378B
:10469800BD465DF8047B704780B485B000AFF86014
:1046A800B9607A60FB68D968BB6803FB03F21346FC
:1046B8005B001344DB4301EA0302BB6803FB03F31B
:1046C800796801FB03F31A43FB68DA6000BF14370B
:1046D800BD465DF8047B704780B485B000AFF860D4
:1046E800B9607A60FB68196ABB6803FB03F3BA68B0
:1046F80002FB03F3BA6803FB02F213461B019B1A81
:10470800DB4301EA0302BB6803FB03F3B96801FB5F
:1047180003F3B96801FB03F3796801FB03F31A4358
:10472800FB681A6200BF1437BD465DF8047B70470A
:1047380080B485B000AFF860B9607A60FB68596AE8
:10474800BB681B0ABA68120A02FB03F3BA68120AAA
:1047580002FB03F3BA68120A03FB02F213461B01B9
:104768009B1ADB4301EA0302BB681B0AB968090A02
:1047780001FB03F3B968090A01FB03F3B968090AE5
:1047880001FB03F3796801FB03F31A43FB685A62E0
:1047980000BF1437BD465DF8047B704780B588B00C
:1047A80000AF786039603B681B683B613B6993FAEE
:1047B800A3F3FB60FB687B617B69002B01D120239D
:1047C80003E07B69B3FA83F3DBB2FB6148E03B6843
:1047D8001A680121FB6901FA03F31340BB61BB6945
:1047E800002B3AD03B685B68012B03D03B685B68C1
:1047F800022B0ED13B689B681A46B9697868FFF7A7
:104808002BFF3B6819683B68DB681A467868FFF736
:104818000BFF3B681B691A46B9697868FFF73CFFCC
:104828003B685B68022B11D1BB69FF2B07D83B683B
:104838005B691A46B9697868FFF74EFF06E03B687E
:104848005B691A46B9697868FFF772FF3B685B686D
:104858001A46B9697868FFF7C7FEFB690133FB613F
:104868003B681A68FB6922FA03F3002BAFD10023D7
:1048780018462037BD4680BD80B400AF074B1B6883
:1048880003F40033B3F5003F01D1012300E0002316
:104898001846BD465DF8047B704700BF00440258C7
:1048A80080B400AF064B1B6803F00403042B01D14E
:1048B800012300E000231846BD465DF8047B7047DD
:1048C8000044025880B400AF044B1B6803F018037F
:1048D8001846BD465DF8047B704700BF0044025887
:1048E80080B400AF074B1B6803F48073B3F5807F77
:1048F80001D1012300E000231846BD465DF8047B82
:10490800704700BF0044025880B400AF064B1B6FCD
:1049180003F00203022B01D1012300E00023184613
:10492800BD465DF8047B70470044025880B400AF70
:10493800044B1B6903F038031846BD465DF8047B39
:10494800704700BF0044025880B400AF044B9B6915
:1049580003F470631846BD465DF8047B704700BFDA
:104968000044025880B400AF044B9B6903F00F0366
:104978001846BD465DF8047B704700BF00440258E6
:1049880080B400AF044BDB6903F070031846BD46E2
:104998005DF8047B704700BF0044025880B400AF44
:1049A800044BDB6903F4E0631846BD465DF8047BFD
:1049B800704700BF0044025880B485B000AF7860EB
:1049C8007B68DAB20E4B1344FB60FB681A687B689D
:1049D800190E7B681B0A03F01F0301FA03F31A4040
:1049E8007B681B0A03F01F0322FA03F31A047B688F
:1049F800134318461437BD465DF8047B704700BF63
:104A08004C44025880B582B000AF78607868FFF7F0
:104A1800D3FF034618460837BD4680BD80B400AFB3
:104A2800044B9B6A03F003031846BD465DF8047BFC
:104A3800704700BF0044025880B400AF074BDB6AE0
:104A480003F48033B3F5803F01D1012300E0002354
:104A58001846BD465DF8047B704700BF0044025805
:104A680080B400AF074BDB6A03F40033B3F5003FB3
:104A780001D1012300E000231846BD465DF8047B00
:104A8800704700BF0044025880B400AF074BDB6A90
:104A980003F48023B3F5802F01D1012300E0002324
:104AA8001846BD465DF8047B704700BF00440258B5
:104AB80080B400AF064BDB6A03F00103012B01D180
:104AC800012300E000231846BD465DF8047B7047CB
:104AD8000044025880B400AF044B1B6BC3F30803B7
:104AE80001331846BD465DF8047B70470044025800
:104AF80080B400AF044B9B6A1B0903F03F031846C0
:104B0800BD465DF8047B70470044025880B400AF8E
:104B1800054B1B6B5B0A03F07F0301331846BD4648
:104B28005DF8047B704700BF0044025880B400AFB2
:104B3800054B1B6B1B0C03F07F0301331846BD4666
:104B48005DF8047B704700BF0044025880B400AF92
:104B5800054B1B6B1B0E03F07F0301331846BD4644
:104B68005DF8047B704700BF0044025880B400AF72
:104B7800044B5B6BDB08C3F30C031846BD465DF8BA
:104B8800047B70470044025880B400AF074B1B6891
:104B980003F00063B3F1006F01D1012300E00023AB
:104BA8001846BD465DF8047B704700BF00440258B4
:104BB80080B400AF074BDB6A03F40023B3F5002F82
:104BC80001D1012300E000231846BD465DF8047BAF
:104BD800704700BF0044025880B400AF074BDB6A3F
:104BE80003F48013B3F5801F01D1012300E00023F3
:104BF8001846BD465DF8047B704700BF0044025864
:104C080080B400AF074BDB6A03F40013B3F5001F51
:104C180001D1012300E000231846BD465DF8047B5E
:104C2800704700BF0044025880B400AF064BDB6AEF
:104C380003F01003102B01D1012300E000231846D4
:104C4800BD465DF8047B70470044025880B400AF4D
:104C5800044B9B6BC3F3080301331846BD465DF84C
:104C6800047B70470044025880B400AF044B9B6A31
:104C78001B0B03F03F031846BD465DF8047B7047E5
:104C88000044025880B400AF054B9B6B5B0A03F0ED
:104C98007F0301331846BD465DF8047B704700BFAB
:104CA8000044025880B400AF054B9B6B1B0C03F00B
:104CB8007F0301331846BD465DF8047B704700BF8B
:104CC8000044025880B400AF054B9B6B1B0E03F0E9
:104CD8007F0301331846BD465DF8047B704700BF6B
:104CE8000044025880B400AF044BDB6BDB08C3F30D
:104CF8000C031846BD465DF8047B70470044025813
:104D080080B400AF074B1B6803F00053B3F1005F9A
:104D180001D1012300E000231846BD465DF8047B5D
:104D2800704700BF0044025880B400AF074BDB6AED
:104D380003F48003B3F5800F01D1012300E00023C1
:104D48001846BD465DF8047B704700BF0044025812
:104D580080B400AF074BDB6A03F40003B3F5000F20
:104D680001D1012300E000231846BD465DF8047B0D
:104D7800704700BF0044025880B400AF074BDB6A9D
:104D880003F08073B3F1807F01D1012300E0002399
:104D98001846BD465DF8047B704700BF00440258C2
:104DA80080B400AF074BDB6A03F48073B3F5807FF0
:104DB80001D1012300E000231846BD465DF8047BBD
:104DC800704700BF0044025880B400AF044B1B6C0E
:104DD800C3F3080301331846BD465DF8047B7047EA
:104DE8000044025880B400AF044B9B6A1B0D03F0CB
:104DF8003F031846BD465DF8047B704700440258DF
:104E080080B400AF054B1B6C5B0A03F07F030133D2
:104E18001846BD465DF8047B704700BF0044025841
:104E280080B400AF054B1B6C1B0C03F07F030133F0
:104E38001846BD465DF8047B704700BF0044025821
:104E480080B400AF054B1B6C1B0E03F07F030133CE
:104E58001846BD465DF8047B704700BF0044025801
:104E680080B400AF044B5B6CDB08C3F30C0318463B
:104E7800BD465DF8047B70470044025880B58AB08F
:104E880002AF78600023FB610023BB61FFF7C6FD1A
:104E980078617B69022B1FD07B69022B24D87B6940
:104EA800002B03D07B69012B0ED01DE0FFF7F8FC27
:104EB8000346002B1AD0FFF705FD0346DB08384AE6
:104EC80022FA03F3FB6111E0FFF70AFD0346002B0A
:104ED8000ED0344BFB610BE0FFF7CEFC0346002BF2
:104EE80008D0314BFB6105E000BF04E000BF02E0E1
:104EF80000BF00E000BF7B6800221A607B680022C8
:104F08005A607B6800229A60FFF7F2FD3861FFF76C
:104F1800E1FDF860FFF7CCFD0346002B02D0FFF758
:104F280025FEB8613B69002B35D0FFF785FD0346A8
:104F3800002B0CD0FFF7EAFD03460093BB69FA6823
:104F48003969F86900F064F902467B681A60FFF76E
:104F580087FD0346002B0CD0FFF7E8FD03460093BE
:104F6800BB69FA683969F86900F052F902467B684A
:104F78005A60FFF789FD0346002B0CD0FFF7E6FDCA
:104F880003460093BB69FA683969F86900F040F98B
:104F980002467B689A6000BF2037BD4680BD00BFCF
:104FA8000090D00300093D0040787D0180B58AB0AB
:104FB80002AF78600023FB610023BB61FFF72EFD81
:104FC80078617B69022B1FD07B69022B24D87B690F
:104FD800002B03D07B69012B0ED01DE0FFF760FC8E
:104FE8000346002B1AD0FFF76DFC0346DB08384A4E
:104FF80022FA03F3FB6111E0FFF772FC0346002B72
:105008000ED0344BFB610BE0FFF736FC0346002B58
:1050180008D0314BFB6105E000BF04E000BF02E0AF
:1050280000BF00E000BF7B6800221A607B68002296
:105038005A607B6800229A60FFF716FE3861FFF716
:1050480005FEF860FFF7F0FD0346002B02D0FFF7DE
:1050580049FEB8613B69002B35D0FFF7A9FD03462F
:10506800002B0CD0FFF70EFE03460093BB69FA68CD
:105078003969F86900F0CCF802467B681A60FFF7D6
:10508800ABFD0346002B0CD0FFF70CFE0346009344
:10509800BB69FA683969F86900F0BAF802467B68B2
:1050A8005A60FFF7ADFD0346002B0CD0FFF70AFE50
:1050B80003460093BB69FA683969F86900F0A8F8F3
:1050C80002467B689A6000BF2037BD4680BD00BF9E
:1050D8000090D00300093D0040787D0180B58AB07A
:1050E80002AF78600023FB610023BB61FFF796FCE9
:1050F80078617B69022B1FD07B69022B24D87B69DE
:10510800002B03D07B69012B0ED01DE0FFF7C8FBF5
:105118000346002B1AD0FFF7D5FB0346DB08394AB4
:1051280022FA03F3FB6111E0FFF7DAFB0346002BD9
:105138000ED0354BFB610BE0FFF79EFB0346002BBF
:1051480008D0324BFB6105E000BF04E000BF02E07D
:1051580000BF00E000BF7B6800221A607B68002265
:105168005A607B6800229A60FFF73CFE3861FFF7BF
:105178002BFEF860FFF714FE0346002B02D0FFF762
:105188006FFEB8613B69002B38D0FB69002B35D026
:10519800FFF7CAFD0346002B0CD0FFF731FE03468C
:1051A8000093BB69FA683969F86900F031F802467A
:1051B8007B681A60FFF7CCFD0346002B0CD0FFF785
:1051C8002FFE03460093BB69FA683969F86900F055
:1051D8001FF802467B685A60FFF7CEFD0346002B96
:1051E8000CD0FFF72DFE03460093BB69FA683969B6
:1051F800F86900F00DF802467B689A6000BF203716
:10520800BD4680BD0090D00300093D0040787D0177
:1052180080B487B000AFF860B9607A603B60FB6823
:1052280007EE903AF8EE676ABB6807EE903AF8EE38
:10523800677A86EEA77A7B6807EE903AF8EE676A97
:105248003B6807EE903AB8EE676ADFED105AC6EE93
:10525800257A76EEA77A67EE277AC7ED057A3B6A54
:1052680007EE903AB8EE677AD7ED056AC6EE877A08
:10527800C7ED057AD7ED057AFCEEE77A17EE903A96
:1052880018461C37BD465DF8047B70470000004691
:1052980090B587B000AF786000237B617868FFF72E
:1052A800B1FB0346624A934200F0A980604A9342E8
:1052B80000F2AE805F4A934200F0A1805D4A9342BB
:1052C80000F2A6805C4A934200F091805A4A9342C9
:1052D80000F29E80594A934200F08980574A9342CF
:1052E80000F29680564A934273D0554A934200F290
:1052F8008F80544A93426CD0524A934200F288807D
:10530800514A934258D0504A934200F281804F4A02
:10531800934251D04D4A93427AD84D4A93423ED057
:105328004B4A934274D84B4A934238D0494A9342E5
:105338006ED8494A93421AD0484A934268D100F03D
:1053480095F80446FFF700FB03461B0A03F00F031A
:10535800434AD35C03F01F0324FA03F3184600F012
:10536800E7F80346184600F011F978615BE000F0B1
:105378007DF80446FFF7E8FA03461B0A03F00F031B
:10538800374AD35C03F01F0324FA03F3184600F0EE
:10539800CFF80346184600F0E1F8786143E0FFF7DC
:1053A800F3FB0346002B35D007F108031846FFF737
:1053B800FDFDFB687B612DE0FFF7A2FC0346002B97
:1053C8002AD007F108031846FFF788FEFB687B61BF
:1053D80022E0FFF765FA0346002B1FD0FFF772FAA9
:1053E8000346DB081F4A22FA03F37B6116E0FFF746
:1053F80077FA0346002B13D01B4B7B6110E0FFF7B5
:1054080083FA0346002B0DD04FF400437B6109E07B
:1054180000BF08E000BF06E000BF04E000BF02E0F4
:1054280000BF00E000BF7B6918461C37BD4690BD31
:105438000803050708000507080304070800040710
:105448000803030708000307080302070800020708
:105458000803010708000107080000070803000700
:10546800B46E00080090D00300093D0080B584B0F8
:1054780000AF0023FB60FFF759FA0346182B4BD8FF
:1054880001A252F823F000BFF55400082155000886
:10549800215500082155000821550008215500080C
:1054A8002155000821550008075500082155000816
:1054B80021550008215500082155000821550008EC
:1054C80021550008215500080D55000821550008F0
:1054D80021550008215500082155000821550008CC
:1054E800215500082155000813550008FFF7EAF96F
:1054F8000346DB080B4A22FA03F3FB600DE00A4B74
:10550800FB600AE0094BFB6007E03B461846FFF7E3
:10551800B5FC3B68FB6000E000BFFB68184610372D
:10552800BD4680BD0090D00300093D0040787D0154
:1055380080B582B000AF7860FFF714FA034603F035
:105548000F03054AD35C03F01F037A6822FA03F3BA
:1055580018460837BD4680BDB46E000880B582B0D5
:1055680000AF7860FFF70CFA03461B0903F0070346
:10557800054AD35C03F01F037A6822FA03F318463E
:105588000837BD4680BD00BFB46E000880B582B044
:1055980000AF7860FFF702FA03461B0A03F007031F
:1055A800054AD35C03F01F037A6822FA03F318460E
:1055B8000837BD4680BD00BFB46E000880B483B014
:1055C80000AF78607B681B6803F00103012B01D1F1
:1055D800012300E0002318460C37BD465DF8047B24
:1055E800704780B483B000AF786039607B68DB6A4D
:1055F80023F00F033A6892B21A437B68DA6200BF5D
:105608000C37BD465DF8047B704780B483B000AFAB
:10561800786039607B685B6823F440523B681A43C2
:105628007B685A6000BF0C37BD465DF8047B704745
:1056380080B483B000AF786039607B689B6823F4DE
:1056480040723B681A437B689A6000BF0C37BD46BE
:105658005DF8047B7047000080B487B000AFF86045
:10566800B9607A603B607B680B2B3CD83B6A002BA7
:1056780039D03B68B3F5004F22D17B68DBB21A46BC
:105688001C4B53F82230BA68B2FBF3F35A003B6A5A
:105698005B081A443B6AB2FBF3F39BB27B617A69FD
:1056A8004FF6F07313403B617B695B089BB203F0D4
:1056B80007033A6913433B61FB683A69DA6012E011
:1056C8007B68DBB21A460B4B53F82230BA68B2FB40
:1056D800F3F23B6A5B081A443B6AB2FBF3F39BB2F2
:1056E8001A46FB68DA6000BF1C37BD465DF8047BCC
:1056F800704700BFC46E000880B586B002AF7860FE
:1057080039600123FB730023BB607868FFF756FFFD
:105718000346002B7FD17B681A68414B13403A68D7
:1057280091683A68126911433A68526911433A68B4
:10573800D2690A431A437B681A603B68DB681946DA
:105748007868FFF762FF3B689B6919467868FFF73E
:105758006FFF7B68334A934204D13348FFF798FDC3
:10576800B8603DE07B68314A934204D13048FFF786
:105778008FFDB86034E07B682E4A934204D12C48F0
:10578800FFF786FDB8602BE07B682B4A934204D173
:105798002748FFF77DFDB86022E07B68274A9342DF
:1057A80004D12348FFF774FDB86019E07B68244AE8
:1057B800934204D11C48FFF76BFDB86010E07B688A
:1057C800204A934204D11A48FFF762FDB86007E007
:1057D8007B681D4A934203D11548FFF759FDB8600D
:1057E800BB68002B11D03B685B68002B0DD00023F1
:1057F800FB733B681A683B68D9693B685B68009330
:105808000B46B9687868FFF727FF3B681B6819469D
:105818007868FFF7E6FEFB7B18461037BD4680BD6B
:10582800F369FFEF0010014008030007004400403F
:105838000800000700480040004C004000500040AD
:105848000014014000780040007C004080B483B020
:1058580000AF786072B600BF7B680022A3F8002111
:105868007B680022A3F802217B680022A3F80421A8
:1058780062B600BF00BF0C37BD465DF8047B7047B9
:1058880080B483B000AF78607B68B3F804319BB212
:10589800B3F5807F0CBF01230023DBB218460C3719
:1058A800BD465DF8047B704780B483B000AF786074
:1058B8007B68B3F804319BB2002B0CBF0123002393
:1058C800DBB218460C37BD465DF8047B704780B4E0
:1058D80083B000AF03463960FB713B683A68B2F8A1
:1058E800002192B21344FA791A7072B600BF3B686D
:1058F800B3F800319BB201339BB2DBB29AB23B687A
:10590800A3F800213B68B3F804319BB201339AB283
:105918003B68A3F8042162B600BF00BF0C37BD4640
:105928005DF8047B704780B485B000AF78607B6811
:105938007A68B2F8022192B213441B78FB7372B6EC
:1059480000BF7B68B3F802319BB201339BB2DBB274
:105958009AB27B68A3F802217B68B3F804319BB242
:10596800013B9AB27B68A3F8042162B600BFFB7BB7
:1059780018461437BD465DF8047B704780B483B081
:1059880000AF78607B68DB6903F00203022B01D16A
:10599800012300E0002318460C37BD465DF8047B60
:1059A800704780B483B000AF78607B68DB6903F030
:1059B8000403042B01D1012300E0002318460C370F
:1059C800BD465DF8047B704780B483B000AF786053
:1059D8007B68DB6903F00803082B01D1012300E091
:1059E800002318460C37BD465DF8047B704780B429
:1059F80083B000AF78607B68DB6903F02003202B5D
:105A080001D1012300E0002318460C37BD465DF89C
:105A1800047B704780B483B000AF78607B68DB6933
:105A280003F08003802B01D1012300E000231846F6
:105A38000C37BD465DF8047B704780B483B000AF77
:105A480078607B6802221A6200BF0C37BD465DF899
:105A5800047B704780B483B000AF78607B68042211
:105A68001A6200BF0C37BD465DF8047B704780B4EE
:105A780083B000AF78607B6808221A6200BF0C37D9
:105A8800BD465DF8047B704780B489B000AF78608C
:105A98007B68FB60FB6853E8003FBB60BB6843F072
:105AA8002003FB617B68FA69BA617B617969BA692D
:105AB80041E800233B613B69002BE9D100BF00BFEF
:105AC8002437BD465DF8047B704780B489B000AFC9
