:020000040804EE
:1000000000000824CD590608E1540608E954060802
:10001000F1540608F95406080155060800000000CE
:10002000000000000000000000000000D1CE050824
:10003000095506080000000091D10508F9D105080E
:10004000215A0608215A0608215A0608215A06088C
:10005000215A0608215A0608215A0608215A06087C
:10006000215A0608215A0608215A06081955060879
:100070009D550608215A0608215A0608215A0608E5
:10008000215A0608215A0608215A0608215A06084C
:10009000215A0608215A0608215A0608215A06083C
:1000A000215A06084D560608215A0608215A060804
:1000B000215A0608215A0608215A0608215A06081C
:1000C000215A0608215A0608215A0608215A06080C
:1000D000215A06085956060891560608215A06085C
:1000E000215A0608215A060800000000215A060875
:1000F000215A0608215A0608215A0608C956060838
:10010000215A060811570608215A0608215A0608DE
:10011000215A0608215A0608215A060825570608BA
:10012000215A060839570608215A0608215A060896
:10013000215A0608215A0608215A0608215A06089B
:10014000215A0608215A060800000000000000009D
:10015000215A0608215A0608215A0608215A06087B
:10016000215A0608215A0608215A0608215A06086B
:10017000215A0608215A0608215A060800000000E4
:10018000215A0608215A0608BD570608215A0608B2
:10019000215A0608F557060803580608215A06088A
:1001A000215A0608215A0608215A0608215A06082B
:1001B000215A0608215A0608215A0608215A06081B
:1001C000215A0608215A0608215A0608215A06080B
:1001D000215A0608215A0608215A0608215A0608FB
:1001E000215A0608215A0608215A0608215A0608EB
:1001F000215A0608215A0608215A0608215A0608DB
:10020000215A0608215A0608215A0608215A0608CA
:10021000215A0608215A0608215A0608215A0608BA
:10022000215A0608215A0608115806080000000045
:10023000215A0608215A0608215A0608215A06089A
:10024000215A06082558060831580608215A06087A
:10025000215A0608215A0608215A0608215A06087A
:10026000215A0608215A0608215A0608215A06086A
:10027000215A0608215A0608215A0608215A06085A
:10028000215A0608215A0608215A060800000000D3
:08029000215A0608215A060854
:1002A00010B5054C237833B9044B13B10448AFF3B0
:1002B00000800123237010BDF0070024000000001F
:1002C000CC03070808B5034B1BB103490348AFF340
:1002D000008008BD00000000F4070024CC030708DC
:1002E00010F8012B11F8013B012A28BF9A42F7D0E0
:1002F000D01A7047034613F8012B002AFBD1181AB5
:1003000001387047000000000000000000000000FD
:1003100001F0FF01102A2BDB10F0070F08D010F8B6
:10032000013B013A8B422DD010F0070F42B3F6D1BA
:10033000F0B441EA012141EA014122F007047FF0D3
:1003400000070023F0E80256083C85EA010586EA2A
:10035000010685FA47F5A3FA87F586FA47F6A5FA66
:1003600087F68EB9EED1F0BC01F0FF0102F0070272
:1003700032B110F8013B013A83EA010313B1F8D11D
:100380000020704701387047002D06BF35460338FE
:10039000073815F0010F07D1013015F4807F02BF37
:1003A000013015F4C03F0130F0BC0138704700BF88
:1003B00053B94AB9002908BF00281CBF4FF0FF31CC
:1003C0004FF0FF3000F088B9ADF1080C6DE904CEB4
:1003D00000F006F8DDF804E0DDE9022304B0704720
:1003E0002DE9F047089D8E4604468846002B4AD1E9
:1003F0008A42174662D9B2FA82F64EB1C6F120039C
:1004000001FA06F820FA03F3B74043EA0808B440BB
:100410004FEA174E1FFA87FCB8FBFEF1230C0EFBC8
:10042000118843EA084301FB0CF29A4209D9FB18F0
:1004300001F1FF3080F0EA809A4240F2E780023911
:100440003B449A1AA3B2B2FBFEF00EFB102243EA21
:10045000024300FB0CFC9C4509D9FB1800F1FF325C
:1004600080F0D6809C4540F2D3803B44023840EA7D
:100470000140A3EB0C0300211DB1F3400022C5E9AC
:100480000032BDE8F0878B4205D90DB1C5E9000106
:1004900000210846F5E7B3FA83F1002946D17345F8
:1004A00002D3824200F20581841A6EEB030201201E
:1004B0009046002DE5D0C5E90048E2E7002A00F0AB
:1004C0009080B2FA82F6002E40F0A4808A1A030CC3
:1004D0004FEA174E80B2BCB20121B2FBFEFC0EFB0C
:1004E0001C2243EA024304FB0CF29A4207D9FB1890
:1004F0000CF1FF3802D29A4200F2E080C4469B1A07
:10050000B3FBFEF20EFB123340EA034302FB04F49A
:100510009C4207D9FB1802F1FF3002D29C4200F244
:10052000CA8002461B1B42EA0C40A5E7C1F1200627
:100530008B4022FA06F71F430EFA01F420FA06F365
:100540002EFA06FE4FEA1749234300FA01F81FFA74
:1005500087FCBEFBF9F01C0C09FB10EE44EA0E44CC
:1005600000FB0CFEA64502FA01F209D93C1900F184
:10057000FF3A80F09C80A64540F2998002383C44C6
:10058000A4EB0E041FFA83FEB4FBF9F309FB13443A
:100590004EEA044403FB0CFCA44508D93C1903F1C2
:1005A000FF3E80F08280A4457FD9023B3C4443EA71
:1005B0000040A4EB0C04A0FB02EC64457346E1464A
:1005C00062D35FD05DB1B8EB030264EB090404FAB7
:1005D00006F622FA01F31E43CC40C5E9006400216F
:1005E0004FE7B1FBF2FC010C41EA0E4180B240EA58
:1005F00001423B4638463C46B846BE462026B1FB43
:10060000F7F1A2EB080241EA0C4166E7014618E760
:1006100010462CE7C6F120022EFA02F3B740B14093
:1006200020FA02F24FEA174E0A43B3FBFEF8BCB2BF
:100630000EFB1833110C41EA034108FB04F9B040EA
:1006400089454FEA104380B23ED9791808F1FF3C42
:1006500001D289451FD8A1EB0901B1FBFEF909FBC5
:1006600004F80EFB191192B242EA0142424529D226
:10067000BA1809F1FF31C4D24245C2D2A9F1020130
:100680003A44BEE7F0459DD2BEEB02036CEB070C8B
:100690000138E14696E7A7EB09094944A8F1020CA5
:1006A000B1FBFEF909FB04F8DBE773467FE7504630
:1006B00066E70846FDE63B44023A33E7ACF1020C3C
:1006C0003B441CE749469CE7A1EB0901C446B1FB4A
:1006D000FEF909FB04F8C4E7704700BF80B582B09B
:1006E00000AF0123FB711C4B01221A701B480FF055
:1006F000F5F810221A491B480FF048FA01F044FFA0
:100700000346FB710FF0E2F910F052FD002001F0FA
:10071000DDFC154A022100200EF014FE124A0021D1
:1007200000200EF00FFE104A012100200EF00AFEFC
:100730000D4A032100200EF005FE0B4A0421002083
:100740000EF000FE084A052100200EF0FBFDFB79AB
:1007500018460837BD4680BD0C08002400580040EC
:100760000010025800340140E403070880B500AFD0
:10077000044A022100200EF0E5FD00F00BF900BF55
:1007800080BD00BFF8030708B0B588B004AF0123EF
:10079000FB73204B02221A701F4A002100200EF02A
:1007A000D1FD1DF0D7FA1DF0D1F81DF0ADFB10F012
:1007B000C9FD0346FB7310F0C5FD0346002B1DD198
:1007C000164A022100200EF0AFFC3B1D184610F027
:1007D00033FDBB7903F5FA63BB813B791C467B791A
:1007E0001D46BB89FA79397A787A02900191009294
:1007F0002A4621461A201DF0B9FA05E0054AFB7B7E
:100800009370044B07221A70FB7B18461037BD46C5
:10081000B0BD00BF0C0800240C040708240407081E
:1008200080B582B000AF204B03221A700123FB7108
:100830001E4A002100200EF085FD05F0EDFE034666
:10084000FB71FB79002B0BD0194A042101200EF01B
:100850006BFC154AFB799370134B07221A7004E066
:10086000144A022100200EF05FFC08F00FF8034646
:10087000FB71FB79002B0BD00F4A042101200EF0F5
:1008800053FC094AFB799370074B07221A7004E066
:100890000A4A022100200EF047FC0EF0F1FEFB791F
:1008A00018460837BD4680BD0C08002434040708EC
:1008B0004C0407086804070884040708980407081C
:1008C00080B582B000AF214B04221A700123FB7166
:1008D0001F4A002100200EF035FD0FF0F1FF034606
:1008E000FB71FB79002B0BD01A4A042101200EF07A
:1008F0001BFC164AFB799370144B07221A7004E014
:10090000154A022100200EF00FFC10221349144852
:100910000FF0A6FC0346FB71FB79002B0BD0114AAC
:10092000042101200EF000FC084AFB799370074B6C
:1009300007221A7004E00C4A022100200EF0F4FB9A
:10094000FB7918460837BD4680BD00BF0C0800245F
:10095000B0040708C8040708E004070800000258AC
:1009600000140058F80407081005070880B500AF08
:10097000064B05221A70054B06221A70044A002104
:1009800000200EF0DFFC0023184680BD0C08002478
:100990002805070880B500AF00F07CF900BF80BDD6
:1009A00080B5C2B000AF07F58473A3F582731860F9
:1009B00007F58473A3F58473196007F58473A3F5B1
:1009C000847307F108001B68084A4FF480712DF00A
:1009D000D7FF07F108030122194605200EF056FD46
:1009E00000BF07F58477BD4680BD00BF40050708FE
:1009F00080B5C0B000AF3B46084A4FF4807118463E
:100A00002DF0BEFF3B460122194605200EF03EFDAB
:100A100000BF07F58077BD4680BD00BF5C050708B5
:100A200080B500AF032000F003F800BF80BD0000D8
:100A300080B483B000AF0346FB71FB79032B0BD866
:100A400001A252F823F000BF590A0408590A040809
:100A5000590A0408590A040800BF00BF0C37BD46F4
:100A60005DF8047B704700BF80B400AF03231846D5
:100A7000BD465DF8047B704780B483B000AF034689
:100A8000FB71064AFB791370054B00221A7000BFF8
:100A90000C37BD465DF8047B704700BF0F0800248B
:100AA0001008002480B400AF034B1B781846BD46E5
:100AB0005DF8047B704700BF0F08002480B483B04A
:100AC00000AF0346FB71FB795C2B06D10E4B1B7804
:100AD0000133DAB20C4B1A7002E00B4B00221A7091
:100AE000094B1B78092B07D9084B00221A70064BBB
:100AF00000221A70012300E0002318460C37BD467F
:100B00005DF8047B704700BF100800240F08002424
:100B100080B483B000AF78607B68DB6903F040038A
:100B2000402B01D1012300E0002318460C37BD46BD
:100B30005DF8047B704780B483B000AF78607B6859
:100B4000DB6903F08003802B01D1012300E0002347
:100B500018460C37BD465DF8047B704780B483B0FF
:100B600000AF78600B46FB70FA787B689A6200BF32
:100B70000C37BD465DF8047B704780B483B000AF8E
:100B8000786039607B681A693B6813403A689A421A
:100B900001D1012300E0002318460C37BD465DF863
:100BA000047B704780B483B000AF786039607B68A5
:100BB0003A689A6100BF0C37BD465DF8047B704708
:100BC00080B483B000AF786039603B681A047B68FA
:100BD0009A6100BF0C37BD465DF8047B704700008A
:100BE00080B584B000AF0346FB71FB79FB73FB7BE0
:100BF0001946034801F07EFE00BF1037BD4680BD98
:100C00000010014080B584B000AF78600023FB6025
:100C100014E00E4AFB6852F8333079681846FFF743
:100C20005FFB0346002B06D1084AFB68DB00134438
:100C300001221A7106E0FB680133FB60FB68022B9E
:100C4000E7DD00BF00BF1037BD4680BDA80400240B
:100C500080B582B000AF78600B4A022100200EF010
:100C600071FB00F043F80346002B07D0074A04212C
:100C700001200EF059FA064B02225A7000201AF099
:100C80006DF900BFFDE700BF840507089805070858
:100C90001408002480B586B004AF0F4B02930F4BAD
:100CA00001930523009300234FF4A0620C490D48E3
:100CB00019F0A1FF78607B68002B06D10A4A052154
:100CC00001200EF031FA00BFFDE71AF075FB00BFFE
:100CD0000837BD4680BD00BF84300024841C00243A
:100CE000C0050708510C0408D0050708F0B5CFB0BF
:100CF00006AF012387F81731FFF746FD034687F853
:100D0000173197F81731002B05D0CC4A0521012067
:100D10000EF00AFA04E0CA4A002100200EF004FA9C
:100D2000FFF77EFD034687F8173197F81731002B40
:100D300005D0C44A052101200EF0F6F904E0C24AAC
:100D4000002100200EF0F0F9FFF7BAFD034687F806
:100D5000173197F81731002B05D0BC4A0521012027
:100D60000EF0E2F904E0BA4A002100200EF0DCF9AE
:100D7000FFF7FCFD034687F8173197F81731002B72
:100D800005D0B44A052101200EF0CEF904E0B24AA4
:100D9000002100200EF0C8F907F0D4FC08F0ACF9EF
:100DA00097F81731002B05D0AC4A052101200EF031
:100DB000BBF904E0AA4A002100200EF0B5F907F5BE
:100DC0009073A3F5887318464FF480731A46002178
:100DD0002DF006FF0023C7F8103107F1080318466D
:100DE00010F02AFAD7F8103107F11002D018D7F80E
:100DF0001031C3F5807107F59073A3F58C739B7860
:100E00009C4607F59073A3F58C735B781A4607F53B
:100E10009073A3F58C731B781C4607F59073A3F5AC
:100E20008C73DB781D4607F59073A3F58C731B79E3
:100E30001E4607F59073A3F58C735B7904930396B4
:100E40000295019400926346864A2DF099FD024670
:100E5000D7F810311344C7F8103107F59073A3F297
:100E6000191300221A7007F59073A3F58D730022F1
:100E70001A7007F59073A3F21B1300221A707B1DE2
:100E8000BA1DF91D002010F031FAD7F8103107F122
:100E90001002D018D7F81031C3F5807107F59073A0
:100EA000A3F219131B781C4607F59073A3F58D73F5
:100EB0001B781A4607F59073A3F21B131B78019356
:100EC00000922346684A2DF05BFD0246D7F81031A8
:100ED0001344C7F81031D7F8103107F11002D018B9
:100EE000D7F81031C3F58073604A19462DF048FDDC
:100EF0000246D7F810311344C7F810310023C7F861
:100F00001C3117E000BF5A48FFF715FE0346002BBF
:100F1000F9D007F59073A3F58872D7F81C31134404
:100F20001B7819465248FFF719FED7F81C310133D8
:100F3000C7F81C3107F59073A3F58872D7F81C31F8
:100F400013441B78002BDDD100BF4948FFF7E0FDBB
:100F50000346002BF9D00023C7F8183117E000BF73
:100F60004448FFF7E8FD0346002BF9D007F59073DE
:100F7000A3F58872D7F8183113441B7819463D48F9
:100F8000FFF7ECFDD7F818310133C7F8183107F532
:100F90009073A3F58872D7F8183113441B78002B8F
:100FA000DDD100BF3348FFF7B3FD0346002BF9D076
:100FB0000AF03CFC304820F0DDFE002301930123C1
:100FC000009300234FF420622C492D4819F077FE3E
:100FD0000346012B01D0012371E10023019301237A
:100FE000009300234FF420622649274819F067FE3A
:100FF0000346012B01D0012361E10023019301236A
:10100000009300234FF4A0622049214819F057FEB5
:101010000346012B01D0012351E100230193012359
:10102000009300234FF420721A491B4819F047FE21
:101030000346012B32D0012341E100BFEC05070834
:101040000C06070820060708400607085006070890
:1010500070060708800607089C060708B006070800
:10106000C4060708D0060708000707081C0707087A
:101070000010014000440040740800245007070895
:10108000C51604085C070708791604086C070708EA
:101090009DF60408740707085D1304088A4801F0E8
:1010A00049FA034600220192012200924FF4206285
:1010B0008649874819F003FE0346012B01D001231E
:1010C000FDE0844801F036FA034600220192012235
:1010D00000924FF420628049804819F0F0FD0346E9
:1010E000012B01D00123EAE00023019301230093A7
:1010F00000234FF4A0627A497A4819F0E0FD0346D4
:10110000012B01D00123DAE0002301930123009396
:10111000002380227449754819F0D1FD0346012B44
:1011200001D00123CBE0002301930123009300238E
:1011300080226F496F4819F0C2FD0346012B01D090
:101140000123BCE0002301930123009300234FF40B
:1011500020626949694819F0B2FD0346012B01D0AC
:101160000123ACE0002301930123009300234FF4FB
:1011700020626349634819F0A2FD0346012B01D0A8
:1011800001239CE0002301930123009300234FF4EB
:1011900020625D495D4819F092FD0346012B01D0A4
:1011A00001238CE0002301930123009300234FF4DB
:1011B00020725749574819F082FD0346012B01D090
:1011C00001237CE0544801F0B5F903460022019266
:1011D000012200924FF420625049514819F06FFDEE
:1011E0000346012B01D0012369E000230193012371
:1011F000009300234FF480724A494B4819F05FFD79
:101200000346012B01D0012359E000230193012360
:10121000009300234FF480724449454819F04FFD74
:101220000346012B01D0012349E000230193012350
:10123000009300234FF420723E493F4819F03FFDD0
:101240000346012B01D0012339E000230193012340
:10125000009300234FF4A0623849394819F02FFD5C
:101260000346012B01D0012329E000230193012330
:10127000009300234FF480723249334819F01FFD68
:101280000346012B01D0012319E000230193012320
:10129000009300234FF420722C492D4819F00FFDC4
:1012A0000346012B01D0012309E0012019F082FF40
:1012B0002849294801F0A2FE07F008F80023184643
:1012C00007F59277BD46F0BD00440040800707084F
:1012D000ED150408007800408C0707081115040874
:1012E00094070708A9130408A0070708F1160408C3
:1012F000A807070825170408B007070815C204083F
:10130000C007070801C40408CC07070899C50408EA
:10131000D80707085917040800100140E407070818
:1013200001140408F00707087517040800080708E7
:10133000F917040810080708E12C0408200807081A
:101340002DC704082C0807083118040838080708B6
:10135000C9C80408E10B04081808002480B582B04D
:1013600000AF78600FF054FD0D4B1B6801330C4A41
:1013700013600B4B1B68B3F5E15F0CD9084B0022DF
:101380001A600FF0DFFF0346002B04D1002205494D
:1013900002200EF07BF84FF47A7019F00BFFE1E7B2
:1013A000C40400244808070880B584B000AF786002
:1013B000114802F007F90346FB73FB7B032B02D0B5
:1013C000FB7B042B13D10C4B1B6A012B09D105F0BD
:1013D0006FF903460949184605F014FB064B002235
:1013E0001A6205F065F90346184605F07AFA64209A
:1013F00019F0E0FEDCE700BF1808002458080708D1
:1014000080B586B000AF78607B687B617B695B6E7E
:101410004FF0FF31184618F087FF0346012B6DD1BE
:1014200062E0FFF73FFB0346FB73FB7B022B15D10A
:101430003B69DBB21946334801F05CFA3B69DBB229
:101440001846FFF73BFB0346002B4DD005F030F963
:1014500003462D49184605F0D5FA45E0FB7B042BE1
:101460001ED13B69DBB21846FFF728FB0346002B71
:1014700006D005F01DF903462349184605F0C2FAC7
:1014800005F016F902463B69DBB21946104605F035
:1014900005FA05F00DF90346184605F022FA23E097
:1014A0001A4802F08FF80346BB73BB7B032B02D0B4
:1014B000BB7B042B12D1154801F08EFD05F0F8F826
:1014C00002463B69DBB21946104605F0E7F905F024
:1014D000EFF80346184605F004FA05E03B69DBB275
:1014E00019460A4801F09AFE7B691B68184601F00C
:1014F0003BFB38613B69B3F1FF3F92D1012019F00A
:1015000059FE83E7007800405C08070818080024AB
:1015100080B588B000AF78607B68FB61FB695B6E6B
:101520000021184618F000FF0346012B56D1FFF7A3
:10153000B9FA0346FB76FB7E012B11D105E0BB68AF
:10154000DBB21946274801F0D5F9FB691B6818463C
:1015500001F00AFBB860BB68B3F1FF3FEFD13DE09B
:10156000FB7E022B11D105E0FB68DBB219461E4859
:1015700001F0C0F9FB691B68184601F0F5FAF86044
:10158000FB68B3F1FF3FEFD128E0FB7E032B11D1C5
:1015900005E03B69DBB21946124801F0ABF9FB6983
:1015A0001B68184601F0E0FA38613B69B3F1FF3F70
:1015B000EFD113E0FB7E042B10D105E07B69DBB299
:1015C0001946094801F096F9FB691B68184601F0B5
:1015D000CBFA78617B69B3F1FF3FEFD1012019F0BD
:1015E000E9FD9BE7004400400010014080B586B053
:1015F00000AF78607B687B617B695B6E4FF0FF3189
:10160000184618F091FE0346012B2CD1FFF74AFA39
:101610000346FB74FB7C012B11D105E0BB68DBB2F8
:101620001946134801F066F97B691B68184601F0FA
:101630009BFAB860BB68B3F1FF3FEFD113E0FB7CCE
:10164000032B10D105E0FB68DBB21946094801F015
:1016500051F97B691B68184601F086FAF860FB684F
:10166000B3F1FF3FEFD1012019F0A4FDC4E700BFA3
:10167000007800400044004080B584B000AF78603E
:101680000D48FFF7BFFAFFF70DFA0346FB73FB7B2C
:10169000002B0CD1094801F088FA0346002B03D037
:1016A000074820F091FE02E0054820F08DFE022060
:1016B00019F080FDE4E700BF78050708004400400A
:1016C0007408002480B584B000AF78600748FFF745
:1016D00099FAFFF7E7F90346FB73FB7B002B01D177
:1016E00007F03CFD022019F065FDEFE774050708DF
:1016F00080B582B000AF78604FF480710848FFF782
:101700005FFA4FF47A7019F055FD4FF48071044878
:10171000FFF748FA4FF47A7019F04CFD00BFEBE781
:10172000000C025880B582B000AF78604FF40071B1
:101730000848FFF737FA4FF47A7019F03BFD4FF481
:1017400000710448FFF73CFA4FF47A7019F032FD4B
:1017500000BFEBE7000C025880B582B000AF7860A4
:101760000348FFF74FFA642019F024FD00BFF7E7A4
:101770008005070880B586B000AF786001237B61E3
:1017800000233B6110E0194A3B69DB0013441B79DD
:10179000002B06D100237B610022154903200DF0A8
:1017A00075FE3B6901333B613B69022BEBDD7B69D5
:1017B000002B03D00F4B01221A7002E00D4B0022C8
:1017C0001A700023FB6008E0084AFB68DB00134442
:1017D00000221A71FB680133FB60FB68022BF3DD0A
:1017E0004FF4FA7019F0E6FCC8E700BFA804002423
:1017F000A8080708C004002480B582B000AF786054
:101800000A4B1B78DBB2002B01D00EF06FF90EF003
:1018100089F90346012B03D1C82019F0CBFCEFE76F
:101820004FF4167019F0C6FCEAE700BFC0040024AC
:1018300080B588B000AF78604FF480612B48FFF727
:101840009CF90346002B0CBF01230023DBB2FB777E
:1018500019F012FFB8610023FB750AF0CFFC0346B4
:10186000002B05D10023FB75642019F0A3FC3BE09D
:101870004FF480611D48FFF780F90346002B0CBF31
:1018800001230023DBB2BB7519F0F6FE3861BA7D87
:10189000FB7F9A4204D0BB7DFB773B69BB6120E0B4
:1018A0003A69BB69D31AFB60BB7D002B0DD0FB6886
:1018B000632B0AD9FB7D002B07D107F077FC0120B1
:1018C000FFF7DAF80123FB750BE0BB7D002B08D195
:1018D000FB68632B05D90020FFF7CEF800200AF043
:1018E00073FC0A2019F066FCB7E700BF001002582D
:1018F00080B483B000AF78607B689B6903F001031C
:10190000012B01D1012300E0002318460C37BD460E
:101910005DF8047B704780B483B000AF78607B686B
:101920009B6903F00203022B01D1012300E0002395
:1019300018460C37BD465DF8047B704780B483B011
:1019400000AF78607B689B6903F00403042B01D12E
:10195000012300E0002318460C37BD465DF8047BE8
:10196000704780B483B000AF78607B689B6903F0F8
:101970001003102B01D1012300E0002318460C377F
:10198000BD465DF8047B704780B483B000AF7860DB
:101990007B689B6903F40043B3F5004F01D1012339
:1019A00000E0002318460C37BD465DF8047B704705
:1019B00080B483B000AF786039607B685B6823F4E3
:1019C00000423B681A437B685A6000BF0C37BD4633
:1019D0005DF8047B7047000080B487B000AFF8600A
:1019E000B9607A603B60BB68C3F309027B6803F4AB
:1019F00000631A433B681B0403F47F031A433B6AEA
:101A00001A437B6A134323F000437B61FB685A68E7
:101A10007B6A5B0D03F48061064B0B43DB431A408A
:101A20007B691A43FB685A6000BF1C37BD465DF8EE
:101A3000047B7047FF7BFF0380B483B000AF786006
:101A40007B685B6ADBB218460C37BD465DF8047BE9
:101A5000704780B483B000AF78600B46FB70FA78B3
:101A60007B689A6200BF0C37BD465DF8047B704707
:101A700080B588B002AFF8607B600B46FB721346FE
:101A8000BB720FF0D3FD38610DE00FF0CFFD0246C1
:101A90003B69D31A0A2B06D9FB681B68184621F04C
:101AA00015FC022396E0FB681B681846FFF76CFFE5
:101AB0000346002BE9D1FB681868FB7A590097F8B8
:101AC000203001331A46454B01934FF000730093C9
:101AD00013460022FFF780FF0FF0A8FD386117E0E2
:101AE000FB681B681846FFF73CFF0346002B01D03C
:101AF00001236FE00FF09AFD02463B69D31A0A2BCF
:101B000006D9FB681B68184621F0E0FB032361E05F
:101B1000FB681B681846FFF7FEFE0346002BDFD06C
:101B2000FB681B68BA7A11461846FFF792FF00233C
:101B3000FB752FE00FF07AFD386117E0FB681B683A
:101B40001846FFF70EFF0346002B01D0012341E0AA
:101B50000FF06CFD02463B69D31A0A2B06D9FB68CD
:101B60001B68184621F0B2FB032333E0FB681B68B7
:101B70001846FFF7D0FE0346002BDFD0FB6818683D
:101B8000FB7D7A6813441B781946FFF762FFFB7DE3
:101B90000133FB75FA7D97F820309A42CAD30FF0D3
:101BA00045FD38610DE00FF041FD02463B69D31A57
:101BB0000A2B06D9FB681B68184621F087FB032314
:101BC00008E0FB681B681846FFF792FE0346002BEF
:101BD000E9D0002318461837BD4680BD002000809C
:101BE00090B589B002AFF8607B600B46FB7213467C
:101BF000BB720FF01BFD38610DE00FF017FD0246C0
:101C00003B69D31A0A2B06D9FB681B68184621F0DA
:101C10005DFB0223B8E0FB681B681846FFF7B4FEC3
:101C20000346002BE9D1FB681868FB7A5900584B32
:101C300001930023009301230022FFF7CDFE0FF054
:101C4000F5FC386117E0FB681B681846FFF789FE52
:101C50000346002B01D0012396E00FF0E7FC02467B
:101C60003B69D31A0A2B06D9FB681B68184621F07A
:101C70002DFB032388E0FB681B681846FFF74BFE2B
:101C80000346002BDFD0FB681B68BA7A1146184662
:101C9000FFF7DFFE0FF0CAFC386117E0FB681B6836
:101CA0001846FFF75EFE0346002B01D001236BE0D0
:101CB0000FF0BCFC02463B69D31A0A2B06D9FB681D
:101CC0001B68184621F002FB03235DE0FB681B68DC
:101CD0001846FFF70DFE0346002BDFD0FB681B689C
:101CE00000211846FFF764FEFB681868FB7A59006C
:101CF000FB7A5B0043F001031C4697F82830254A25
:101D000001924FF0007200922246FFF765FE0FF03D
:101D10008DFC38610023FB7530E00FF087FC3861E3
:101D200017E0FB681B681846FFF71BFE0346002BF5
:101D300001D0012328E00FF079FC02463B69D31A59
:101D40000A2B06D9FB681B68184621F0BFFA03234B
:101D50001AE0FB681B681846FFF7F0FD0346002BEE
:101D6000DFD0FB681968FB7D7A68D4180846FFF756
:101D700063FE03462370FB7D0133FB75FA7D97F804
:101D800028309A42C9D3002318461C37BD4690BD5F
:101D9000002000800024008080B584B000AF78600F
:101DA0000023FB60786800F095F8786800F00BF885
:101DB0000346002B02D06FF00303FB60FB6818465C
:101DC0001037BD4680BD80B584B000AF7860002379
:101DD000FB73786824F01CFF0346002B01D001231D
:101DE000FB73FB7B18461037BD4680BD80B586B0BF
:101DF00000AFF860B9607A603B603B687A68B968A8
:101E0000F86825F001F80346002B03D06FF00303B8
:101E10007B6101E000237B617B6918461837BD4672
:101E200080BD80B586B000AFF860B9607A603B6075
:101E30003B687A68B968F86825F0AAF80346002B71
:101E400003D06FF003037B6101E000237B617B69BA
:101E500018461837BD4680BD80B582B000AF7860A7
:101E6000786825F0A9FE0346042B14BF0123002344
:101E7000DBB218460837BD4680BD80B584B000AFE0
:101E8000786039603968786825F0A6FC0346002B35
:101E900003D06FF00303FB6001E00023FB60FB68ED
:101EA00018461037BD4680BD80B582B000AF78605F
:101EB000786817F021FB00BF0837BD4680BD80B5AC
:101EC00082B000AF7860786817F040FB00BF083739
:101ED000BD4680BD80B582B000AF7860786822F0E2
:101EE000A9FF00BF0837BD4680BD80B483B000AFF6
:101EF00078607B681B6803F00103012B01D101238B
:101F000000E0002318460C37BD465DF8047B70479F
:101F100080B483B000AF78607B685B6903F0010335
:101F2000012B01D1012300E0002318460C37BD46E8
:101F30005DF8047B704780B483B000AF78607B6845
:101F40005B6903F48053B3F5805F01D1012300E0A6
:101F5000002318460C37BD465DF8047B704780B4FB
:101F600083B000AF78607B6830331B78DBB21846F3
:101F70000C37BD465DF8047B704780B483B000AF7A
:101F800078600B46FB707B682033FA781A7000BFCC
:101F90000C37BD465DF8047B704780B586B000AF56
:101FA000F8600B467A60FB72F868FFF79EFF034605
:101FB000002B01D1012335E00FF038FB7861FB7A6B
:101FC0001946F868FFF7D9FF08E00FF02FFB02462B
:101FD0007B69D31A0A2B01D9032323E0F868FFF7A2
:101FE000AAFF0346002BF0D00FF020FB786108E039
:101FF0000FF01CFB02467B69D31A0A2B01D903237D
:1020000010E0F868FFF784FF0346002BF0D07B68F0
:10201000002B06D0F868FFF7A2FF03461A467B683C
:102020001A70002318461837BD4680BD80B584B0AD
:1020300000AF78600B46FB707868FFF756FF0346E9
:10204000002B01D101231BE00FF0F0FAF860FB78C0
:1020500019467868FFF791FF08E00FF0E7FA0246AB
:10206000FB68D31A0A2B01D9032309E07868FFF72C
:1020700062FF0346002BF0D07868FFF770FF002363
:1020800018461037BD4680BD80B582B000AF03460C
:10209000FB71FB79002B10D1FB79002B06D14FF49B
:1020A0008062002107482CF09BFD07E04FF480621E
:1020B000002105482CF094FD00E000BF0837BD4624
:1020C00080BD00BF00F8003800FC003880B582B049
:1020D00000AF0346FB71FB79002B04D1FB79184656
:1020E000FFF7D2FF00E000BF0837BD4680BD80B4D7
:1020F00083B000AF78607B681B6843F001027B68A7
:102100001A6000BF0C37BD465DF8047B704780B491
:1021100083B000AF78607B681B6823F001027B68A6
:102120001A6000BF0C37BD465DF8047B704780B471
:1021300083B000AF78607B68DB6903F04003402B1D
:1021400001D1012300E0002318460C37BD465DF89D
:10215000047B704780B483B000AF78607B68DB6934
:1021600003F08003802B01D1012300E000231846F7
:102170000C37BD465DF8047B704780B489B000AF72
:1021800078607B68FB60FB6853E8003FBB60BB681E
:1021900043F01003FB617B68FA69BA617B6179697E
:1021A000BA6941E800233B613B69002BE9D100BFDC
:1021B00000BF2437BD465DF8047B704780B489B00A
:1021C00000AF78607B68FB60FB6853E8003FBB6052
:1021D000BB6843F08003FB617B68FA69BA617B618D
:1021E0007969BA6941E800233B613B69002BE9D179
:1021F00000BF00BF2437BD465DF8047B704780B444
:1022000089B000AF78607B68FB60FB6853E8003FF3
:10221000BB60BB6823F08003FB617B68FA69BA612D
:102220007B617969BA6941E800233B613B69002B16
:10223000E9D100BF00BF2437BD465DF8047B70477D
:1022400080B483B000AF78607B681B6803F08003C4
:10225000802B01D1012300E0002318460C37BD4636
:102260005DF8047B704780B489B000AF78607B680C
:102270000833FB60FB6853E8003FBB60BB6843F07A
:102280004003FB617B680833FA69BA617B61796955
:10229000BA6941E800233B613B69002BE7D100BFED
:1022A00000BF2437BD465DF8047B704780B485B01D
:1022B00000AF786039603B68002B03D17B6828331E
:1022C000FB6002E07B682433FB60FB681846143730
:1022D000BD465DF8047B704780B483B000AF786082
:1022E0000B46FB70FA787B689A6200BF0C37BD46DC
:1022F0005DF8047B7047000080B485B000AF786063
:1023000039607B68FB600C4A3B6813441B781A46B3
:10231000FB6813441B6808493A680A44127811465E
:10232000FA680A4443F00103136000BF1437BD4646
:102330005DF8047B704700BFF498070880B485B04F
:1023400000AF786039607B68FB600C4A3B681344DF
:102350001B781A46FB6813441B6808493A680A440C
:1023600012781146FA680A4423F00103136000BF93
:102370001437BD465DF8047B704700BFF49807082A
:1023800080B487B000AFF860B9607A60FB687B61A9
:102390000D4ABB6813441B781A467B6913445A687C
:1023A0000A4B13400849BA680A44127811467A6900
:1023B0000A4411467A6813434B6000BF1C37BD4680
:1023C0005DF8047B704700BFF49807080000FFFF2A
:1023D00080B485B000AF786039607B68FB60074AE5
:1023E0003B6813441B781A46FB6813445B689BB236
:1023F00018461437BD465DF8047B7047F49807080B
:1024000080B487B000AFF860B9607A60FB687B6128
:10241000074ABB6813441B781A467B6913441A4663
:102420007B68D36000BF1C37BD465DF8047B7047F6
:10243000F498070880B487B000AFF860B9607A609C
:10244000FB687B61074ABB6813441B781A467B69AB
:1024500013441A467B68936000BF1C37BD465DF885
:10246000047B7047F498070880B485B000AF7860AB
:1024700039607B68FB600C4A3B6813441B781A4642
:10248000FB6813441B6808493A680A4412781146ED
:10249000FA680A4443F00803136000BF1437BD46CE
:1024A0005DF8047B704700BFF498070880B485B0DE
:1024B00000AF786039607B68FB600C4A3B6813446E
:1024C0001B781A46FB6813441B6808493A680A449B
:1024D00012781146FA680A4443F00403136000BFFF
:1024E0001437BD465DF8047B704700BFF4980708B9
:1024F00080B485B000AF786039607B68FB600C4ABF
:102500003B6813441B781A46FB6813441B68084950
:102510003A680A4412781146FA680A4443F01003F4
:10252000136000BF1437BD465DF8047B704700BFE1
:10253000F498070880B485B000AF78600023FB6092
:1025400015E01049FA6813465B019B1A9B000B4487
:102550001B687A689A4207D1FA6813465B019B1A96
:102560009B00084A134406E0FB680133FB60FB68EC
:10257000022BE6DD002318461437BD465DF8047BC8
:10258000704700BFC8040024B0B584B002AF002378
:102590007B6022E0B5497A6813465B019B1A9B0079
:1025A0000B441B681846FFF7B2FDB0497A68134622
:1025B0005B019B1A9B000B4468331868AB497A682F
:1025C00013465B019B1A9B000B446C331B68194636
:1025D000FFF7B4FE7B6801337B607B68022BD9DD9B
:1025E0004FF400630093A24BA24A0121A2480EF0CF
:1025F000C4FE4FF400630093A04BA14A0221A148FE
:102600000EF0BBFE03220021012017F03EFB034623
:10261000964A5366954B9C6E944BDD6E01219A4809
:10262000FFF744FE03461A4629462046FFF702FFFD
:102630008E4B9B6E8D4AD16E8C4AB2F87420184630
:10264000FFF79EFE894B9B6E884AD16E874A126FB8
:102650001846FFF7D5FE854B9B6E844AD26E114615
:102660001846FFF745FF814B9B6E804AD26E11469C
:102670001846FFF7F9FE7D4B9B6E7C4AD26E1146E1
:102680001846FFF713FF8048FFF7EDFD774B9B6E71
:10269000764AD26E11461846FFF72EFE7A48FFF7AB
:1026A0006CFD4FF480530093784B794A05217948AB
:1026B0000EF063FE4FF480530093774B774A062168
:1026C00077480EF05AFE03220021012017F0DDFAB0
:1026D0000346664AC2F8E030644BD3F8E440634BEB
:1026E000D3F8E85001216F48FFF7E0FD03461A4692
:1026F00029462046FFF79EFE5C4BD3F8E4305B4A48
:10270000D2F8E810594AB2F8F0201846FFF738FE20
:10271000564BD3F8E430554AD2F8E810534AD2F871
:10272000EC201846FFF76CFE504BD3F8E4304F4ACC
:10273000D2F8E82011461846FFF7DAFE4B4BD3F8E3
:10274000E4304A4AD2F8E82011461846FFF78CFEDA
:10275000464BD3F8E430454AD2F8E82011461846F3
:10276000FFF7A4FE4F48FFF77EFD404BD3F8E4305F
:102770003E4AD2F8E82011461846FFF7BDFD494809
:10278000FFF7FBFC4FF440630093474B474A0B2194
:1027900047480EF0F2FD4FF440630093454B464A24
:1027A0000C2146480EF0E9FD03220021012017F01C
:1027B0006CFA03462D4AC2F85C312C4BD3F86041C9
:1027C0002A4BD3F8645101213D48FFF76FFD0346C2
:1027D0001A4629462046FFF72DFE244BD3F86031D8
:1027E000224AD2F86411214AB2F86C211846FFF748
:1027F000C7FD1E4BD3F860311C4AD2F864111B4A46
:10280000D2F868211846FFF7FBFD184BD3F860316A
:10281000164AD2F8642111461846FFF769FE134B99
:10282000D3F86031114AD2F8642111461846FFF7F7
:102830001BFE0E4BD3F860310C4AD2F864211146CE
:102840001846FFF733FE1E48FFF70DFD074BD3F880
:102850006031064AD2F8642111461846FFF74CFD54
:102860001748FFF78AFC00233B6039E0C8040024C6
:10287000E0380024BC080708CC040024E040002411
:10288000C8080708FC04002400100140E058002498
:10289000D408070848050024E0680024E008070879
:1028A0007805002400440040E0840024EC08070878
:1028B000C4050024E0900024F8080708F40500246B
:1028C000007800400A493A6813465B019B1A9B0056
:1028D0000B441B681846FFF70AFC3B6801333B605A
:1028E0003B68022BEEDD002318460837BD46B0BD1D
:1028F000C804002480B584B000AF78600B46FB703C
:102900007868FFF717FEB860BB68002B1FD0134B29
:10291000FB6005E0FB68013BFB60FB68002B18D007
:10292000BB683433FA78114618460EF059FD034659
:1029300083F00103DBB2002BECD17868FFF780FC59
:102940000346002B06D17868FFF738FC02E000BF91
:1029500000E000BF1037BD4680BD00BF20A10700CA
:1029600080B584B000AF786039607868FFF7E2FD29
:10297000F860FB68002B11D03B68002B0ED008E0FC
:102980003B681B7819467868FFF7B4FF3B68013352
:102990003B603B681B78002BF2D100E000BF103792
:1029A000BD4680BD80B584B000AF78607868FFF721
:1029B000C1FDF860FB68002B42D0FB681B68DB6937
:1029C00003F00203002B03D0FB681B6802221A628B
:1029D000FB681B68DB6903F00403002B03D0FB6872
:1029E0001B6804221A62FB681B68DB6903F400336E
:1029F000002B04D0FB681B684FF400321A62786821
:102A0000FFF7A8FB0346002B1BD07868FFF718FCE4
:102A10000346002B15D0FB68343307F10B02114637
:102A200018460EF023FD0346002B05D0FB7A19460D
:102A30007868FFF751FC04E07868FFF7E0FB00E0FE
:102A400000BF1037BD4680BD80B58AB000AF78604A
:102A50000023BB607868FFF76DFDB861BB69002B90
:102A60007CD0BB699B6F7B61BB699A6EBB69DB6E77
:102A700019461046FFF7ACFC03467B82BB69B3F8EE
:102A800074301A467B8AD31AFB60FA687B699A42D3
:102A900065D0FA687B699A4214D97B697B620CE045
:102AA000BB69181DBB691A6F7B6A13441B781946F2
:102AB0000EF096FC7B6A01337B627A6AFB689A426D
:102AC000EED32AE07B693B620CE0BB69181DBB6951
:102AD0001A6F3B6A13441B7819460EF081FC3B6A5F
:102AE00001333B62BB69B3F874301A463B6A9342C8
:102AF000EBD30023FB610CE0BB69181DBB691A6FA7
:102B0000FB6913441B7819460EF06AFCFB6901331C
:102B1000FB61FA69FB689A42EED3BB695B6E07F111
:102B200008021146184617F065FABB68002B07D05B
:102B30000C4B4FF080521A60BFF34F8FBFF36F8F73
:102B4000BB69FA689A67BB699B6FBA69B2F874206F
:102B5000934204D1BB6900229A6700E000BF283786
:102B6000BD4680BD04ED00E080B584B000AF786064
:102B70007868FFF7DFFCF860FB68002B02D14FF0AC
:102B8000FF330EE0FB68043307F10B0211461846D1
:102B90000EF06CFC0346002B01D0FB7A01E04FF0F5
:102BA000FF3318461037BD4680BD80B584B000AFF6
:102BB00078607868FFF7BEFCF860FB68002B01D1F5
:102BC000002305E0FB68043318460EF0CCFC0346F6
:102BD00018461037BD4680BD80B584B000AF786020
:102BE0007868FFF7A7FCF860FB68002B01D1002391
:102BF00006E0FB68343318460EF079FC034600BF4C
:102C000018461037BD4680BD80B582B000AF7860F1
:102C10000B46FB7000BF7868FFF79CFA0346002B59
:102C2000F9D0FB7819467868FFF756FB00BF786843
:102C3000FFF77DFA0346002BF9D000BF00BF08372D
:102C4000BD4680BD80B582B000AF786039603B681A
:102C5000002B0ED008E03B681B7819467868FFF718
:102C6000D3FF3B6801333B603B681B78002BF2D1FC
:102C700000E000BF0837BD4680BD80B483B000AF20
:102C8000786039607B681A693B6813403A689A42F9
:102C900001D1012300E0002318460C37BD465DF842
:102CA000047B704780B483B000AF786039607B6884
:102CB0003A689A6100BF0C37BD465DF8047B7047E7
:102CC00080B483B000AF786039603B681A047B68D9
:102CD0009A6100BF0C37BD465DF8047B7047000069
:102CE00080B586B000AF786018F0C6FC0346FB6084
:102CF0004FF400413748FFF7E3FF0023FB7518F05E
:102D0000BBFC38610DE04FF400613348FFF7B5FFBD
:102D10000346002B02D10123FB750AE0322018F094
:102D200049FA18F0A9FC02463B69D31AB3F5FA7FB9
:102D3000E9D34FF400412748FFF7B4FF0023BB75E8
:102D400018F09AFC38610DE04FF400612248FFF75B
:102D500094FF0346002B02D00123BB750AE032200A
:102D600018F028FA18F088FC02463B69D31AB3F52C
:102D7000FA7FE9D3FB7D002B06D0BB7D002B03D06F
:102D8000164B00221A8005E0144B1B8801339AB2BF
:102D9000124B1A80114B1B88772B12D90022104935
:102DA00004200CF073FB80210E48FFF789FF64209C
:102DB00018F000FA80210B48FFF774FF074B002240
:102DC0001A8007F10C0341F28831184618F06AF9AD
:102DD0008EE700BF0014025800100258E09C002447
:102DE000040907080018025880B400AF034B1B8881
:102DF0001846BD465DF8047B704700BFE09C002488
:102E000080B485B000AF78600D4BFB600CE07B6850
:102E10005A1C7A601B781A46FB685340FB60FB68BB
:102E2000084A02FB03F3FB607B681B78002BEED1A2
:102E3000FB6818461437BD465DF8047B704700BF39
:102E4000C59D1C819301000180B485B000AF7860FE
:102E500039607A683B685340FB60FB681B0CFA687A
:102E60001343FB60FB681B0AFA681343FB60FB68B3
:102E7000DBB2002B0CBF01230023DBB21846143752
:102E8000BD465DF8047B704780B584B000AF7860C4
:102E90007868FFF7B5FFF860054BBB60B968F86864
:102EA000FFF7D2FF034618461037BD4680BD00BF6E
:102EB000A37B47C580B584B000AF78600CF05CFEA2
:102EC000F8600023FB7207F10B0201230021F86870
:102ED0000CF049FF0346002B02D1FB7A102B07D9D7
:102EE0001549786800F020F9144B01221A6020E09F
:102EF000FB7A002B16D0FB7A114A0121F8680CF0FE
:102F000032FF0346002B05D1FB7A1A460C4B0021F9
:102F100099540EE00849786800F006F9074B012241
:102F20001A6006E00449786800F0FEF8034B0122BD
:102F30001A601037BD4680BD28090708F89C002498
:102F4000E49C002480B584B000AF78600E4B1B6811
:102F5000012B0BD17868FFF753FFF8600B4BBB6078
:102F6000B968F868FFF770FF034609E00849786818
:102F7000FDF7B6F90346002B01D1012300E0002341
:102F800018461037BD4680BDF89C0024A37B47C57A
:102F9000E49C002480B582B000AF78607B6893F831
:102FA0002830042B10D17B685B6D5A1C7B685A65F6
:102FB0007B685B6D064A934206D3786800F068F838
:102FC0000449786800F0B0F800BF0837BD4680BDFE
:102FD000E09304006409070880B483B000AF786010
:102FE0007B6893F82830042B02D17B6800225A6555
:102FF00000BF0C37BD465DF8047B704780B582B0DA
:1030000000AF786039607B683A689A657B68002217
:103010001A627B6800225A627B68002283F82820AB
:103020007B680022DA627B6800221A657B680022D6
:103030005A657B682022002118462BF0D1FD7B6861
:1030400030332022002118462BF0CAFD0B49786846
:1030500000F06AF80A49786800F066F8094978686B
:1030600000F062F80849786800F05EF8074978686F
:1030700000F05AF800BF0837BD4680BD9009070828
:1030800098090708A0090708B4090708BC09070838
:1030900080B582B000AF78607B6801221A627B68DD
:1030A00000225A627B68002283F828207B68002275
:1030B000DA627B6800221A657B6800225A657B68A9
:1030C0002022002118462BF08BFD7B683033202214
:1030D000002118462BF084FD0D49786800F024F893
:1030E0000C49786800F020F80B49786800F01CF86B
:1030F0000A49786800F018F80949786800F014F86F
:103100000849786800F010F800BF0837BD4680BD58
:103110009009070898090708A0090708B4090708D3
:10312000BC090708C009070880B582B000AF786005
:10313000396007E07B689A6D3B68591C39601B78E1
:10314000184690473B681B78002BF3D100BF00BFA7
:103150000837BD4680BD000080B582B000AF786002
:103160007B6893F82830002B37D17B6824491846B8
:10317000FDF7B6F80346002B0BD17B68012283F8DC
:1031800028207B680022DA621E497868FFF7CCFFAE
:1031900031E07B681C491846FDF7A2F80346002B76
:1031A0000ED17868FFF786FE7B68022283F828201C
:1031B0007B680022DA6213497868FFF7B5FF1AE0EE
:1031C00012497868FFF7B0FF11497868FFF7ACFF44
:1031D00010497868FFF7A8FF0DE07B6893F8283066
:1031E000032B04D07B6893F82830042B03D10A49C1
:1031F0007868FFF799FF00BF0837BD4680BD00BF64
:10320000D8090708E0090708EC090708F4090708C6
:10321000BC090708C0090708200A0708F0B59DB0D7
:1032200006AF78600B46FB707B6893F82830012B63
:1032300005D07B6893F82830022B40F03A810A22AF
:10324000FB78934204D00D22FB78934240F0028138
:103250007B681B6D7A681344002283F830207B68FA
:1032600093F82830012B5ED17B6830331846FFF786
:103270000BFE0346012B56D17B68032283F82820DE
:10328000A6497868FFF750FFA5497868FFF74CFF1B
:10329000A4497868FFF748FF07F1500318460DF07E
:1032A000CBFF97F850301E4697F8513097F85220D0
:1032B00097F8531097F85400044697F855000546C0
:1032C00007F108000495039402910192009333469C
:1032D000954A40212BF054FB07F108031946786802
:1032E000FFF722FF8D497868FFF71EFF8F49786846
:1032F000FFF71AFF8E497868FFF716FF8D49786847
:10330000FFF712FF8C497868FFF70EFF8B4978684A
:10331000FFF70AFF85497868FFF706FF7F4978685D
:10332000FFF702FF92E07B6893F82830022B5ED112
:103330007B6830331846FFF705FE0346012B56D154
:103340007B68042283F8282074497868FFF7ECFE34
:1033500073497868FFF7E8FE79497868FFF7E4FE7B
:1033600007F1480318460DF067FF97F848301E46EE
:1033700097F8493097F84A2097F84B1097F84C0087
:10338000044697F84D00054607F10800049503949C
:103390000291019200933346634A40212BF0F0FAE8
:1033A00007F1080319467868FFF7BEFE5B497868A5
:1033B000FFF7BAFE5D497868FFF7B6FE5C497868AA
:1033C000FFF7B2FE5B497868FFF7AEFE5A497868AE
:1033D000FFF7AAFE59497868FFF7A6FE53497868B7
:1033E000FFF7A2FE4D497868FFF79EFE2EE07B684E
:1033F000DB6A5A1C7B68DA6248497868FFF794FEFA
:103400007B68DB6A0322934214DB7B68002283F82B
:1034100028204C497868FFF787FE40497868FFF715
:1034200083FE3E497868FFF77FFE47497868FFF7DB
:103430007BFE0BE045497868FFF776FE37497868F0
:10344000FFF772FE42497868FFF76EFE7B68002244
:103450001A65B2E07F22FB78934216D17B681B6D20
:10346000002B40F3AA807B681B6D5A1E7B681A658F
:103470007B689B6D082098477B689B6D2020984750
:103480007B689B6D0820984797E07B681B6D1E2B1F
:1034900000F393807B681B6D591C7A6811657A680C
:1034A0001344FA7883F830207B689B6D2A20984774
:1034B00083E07B6893F82830032B04D07B6893F873
:1034C0002830042B04D123497868FFF72DFE75E0DE
:1034D0000A22FB78934203D00D22FB7893423BD122
:1034E0007B685B6A7A680021D1547B685B6A002B39
:1034F0000ADD0A497868FFF717FE7868FFF72CFEA7
:103500007B6800225A6259E004497868FFF70CFE94
:103510000D497868FFF708FE50E000BFBC090708B6
:10352000300A07089C0A0708C40A0708F00A0708B7
:10353000180B0708400B0708680B0708900B0708D3
:10354000B80B0708DC0B0708C0090708080C0708B8
:10355000E0090708300C07087F22FB7893421AD154
:103560007B685B6A002B29DD7B685B6A5A1E7B687F
:103570005A627B685B6A7A680021D1547B689B6DD4
:10358000082098477B689B6D202098477B689B6D3F
:103590000820984712E07B685B6A1E2B0EDC7B6874
:1035A0005B6A591C7A6851627A68F978D1547B68F1
:1035B0009B6DFA781046984700E000BF00BF5C376B
:1035C000BD46F0BD80B483B000AF78607B6893F8EF
:1035D000283018460C37BD465DF8047B7047000064
:1035E00080B400AFBFF34F8F00BF064BDB6803F41E
:1035F000E0620449044B1343CB60BFF34F8F00BF1D
:1036000000BFFDE700ED00E00400FA0580B483B0E0
:1036100000AF786039607B683A689A6100BF0C3708
:10362000BD465DF8047B704780B483B000AF78601E
:1036300039603B681A047B689A6100BF0C37BD464D
:103640005DF8047B704780B485B000AF03460A463E
:10365000FB8013467B7141F22103BB817B791BB256
:103660001B021AB2B7F9063053401BB2FB8000238D
:10367000FB7313E0B7F90630002B09DAB7F906300F
:103680005B001AB2B7F90C3053401BB2FB8002E06A
:10369000FB885B00FB80FB7B0133FB73FB7B072B11
:1036A000E8D9FB8818461437BD465DF8047B70479F
:1036B00080B5A8B002AFF860B9607A600121B8683F
:1036C00003F062FAC7F884000221B86803F05CFADC
:1036D000C7F880000023A7F89630D7F88430002B75
:1036E00003D0D7F88030002B04D1A049F86803F04C
:1036F00089F938E1D7F884002AF03EFFF867002204
:103700000021D7F880002BF06FF8B867BB6F002B53
:1037100003D0BB6FB3F5483F0ED907F110004FF44B
:103720004833934A64212BF02BF907F11003194613
:10373000F86803F067F916E1FDF796F90346032BE5
:103740001BD0FDF791F90346022B08D0FDF78CF949
:103750000346012B01D1874B02E0874B00E0874BEA
:1037600007F11000864A64212BF00AF907F11003D3
:103770001946F86803F046F9F5E00220FDF758F91C
:10378000FB6F032B6DD0FB6F032B00F39C80FB6F53
:10379000012B03D0FB6F022B2CD094E00023C7F841
:1037A00090301AE0D7F8903087F87530D7F890301D
:1037B000744A134497F875201A7097F87520B7F873
:1037C000963011461846FFF73EFF0346A7F896309D
:1037D000D7F890300133C7F89030D7F89020BB6FFE
:1037E0009A42DFD307F11000BB6F674A64212BF0C8
:1037F000C7F870E00023C7F88C3025E0D7F88C10AC
:10380000624BA3FB01239A0913465B0013445B013F
:10381000CA1AD3B2203387F87630D7F88C30594A99
:10382000134497F876201A7097F87620B7F89630F8
:1038300011461846FFF707FF0346A7F89630D7F85A
:103840008C300133C7F88C30D7F88C20BB6F9A428C
:10385000D4D307F11000BB6F4D4A64212BF090F8D0
:1038600039E00023C7F8883020E02AF089FE0346BB
:103870005A42DBB2D2B258BF534287F87730D7F8FA
:103880008830404A134497F877201A7097F87720C9
:10389000B7F8963011461846FFF7D5FE0346A7F84D
:1038A0009630D7F888300133C7F88830D7F88820A9
:1038B000BB6F9A42D9D307F11000BB6F354A642120
:1038C0002BF05EF807E03449F86803F09BF803201A
:1038D000FDF7AEF847E04FF47A7017F06BFC01206B
:1038E000FDF7A6F807F110031946F86803F08AF807
:1038F000244A244B1B7807F1100000931346274AF3
:1039000064212BF03DF807F110031946F86803F025
:1039100079F8BB6F013B1B4A13441946BB6F013B4F
:10392000184A13441B7807F1100000930B461C4AF9
:1039300064212BF025F807F110031946F86803F00D
:1039400061F8B7F8963007F11000164A64212BF0A1
:1039500017F807F110031946F86803F053F81249F5
:10396000F86803F04FF89837BD4680BD4018070847
:1039700090180708B8180708C4180708CC180708D3
:10398000D418070800000030F8180708ABAAAAAA44
:1039900028190708581907087C190708AC190708DF
:1039A000D0190708F0190708081A070880B5AAB047
:1039B00002AFF860B9607A600121B86803F0E4F8FA
:1039C000C7F884001023C7F880300023C7F89C3064
:1039D0000023A7F89A30D7F88430002B04D17C4913
:1039E000F86803F00FF8EFE000220021D7F8840018
:1039F0002AF0FAFEF86707F11400FB6F754A64219C
:103A00002AF0BEFF07F114031946F86802F0FAFF26
:103A1000714A07F11400704B009313466F4A6421FA
:103A20002AF0AEFF07F114031946F86802F0EAFF26
:103A30000023C7F89430ACE0674AD7F894301344B9
:103A400007F11400664A64212AF09AFF07F1140373
:103A50001846FCF74FFC024607F114031344C7F85D
:103A600090300023C7F88C3030E0D7F89420D7F896
:103A70008C301344584AD35C87F87B3007F1140329
:103A8000D7F89020D31AC3F1640197F87B30554AD8
:103A9000D7F890002AF074FFD7F890300333C7F8B6
:103AA0009030D7F89C300133C7F89C3097F87B20D2
:103AB000B7F89A3011461846FFF7C5FD0346A7F838
:103AC0009A30D7F88C300133C7F88C30D7F88C2077
:103AD000D7F880309A4207D2D7F89420D7F88C30A4
:103AE0001344FA6F9A42C0D8D7F890305A1CC7F8DE
:103AF000902020221A70D7F890305A1CC7F89020D6
:103B00007C221A700023C7F8883020E0D7F8942070
:103B1000D7F888301344304AD35C87F87A3097F866
:103B20007A301F2B06D997F87A307E2B02D897F877
:103B30007A1000E02E21D7F890305A1CC7F8902058
:103B40000A461A70D7F888300133C7F88830D7F89A
:103B50008820D7F880309A4207D2D7F89420D7F837
:103B600088301344FA6F9A42D0D8D7F890300022A8
:103B70001A7007F114031946F86802F043FF012098
:103B800017F018FBD7F89420D7F880301344C7F803
:103B90009430D7F89420FB6F9A42FFF44DAFB7F8FA
:103BA0009A3007F114000093D7F89C300E4A642134
:103BB0002AF0E6FE07F114031946F86802F022FF26
:103BC0000A49F86802F01EFFA037BD4680BD00BF5D
:103BD0000C1A0708341A0708000000385C1A070896
:103BE000801A07088C1A0708941A0708081A070889
:103BF00080B5A0B000AFF860B9607A600121B86804
:103C000002F0C2FFF867FB6F002B04D13449F8685B
:103C100002F0F8FE60E03349F86FFCF761FB034601
:103C2000002B42D1FCF720FF034687F87B3097F842
:103C30007B30032B2AD801A252F823F04D3C040814
:103C40005D3C04086D3C04087D3C040807F1140346
:103C5000254A642118462AF093FE1FE007F1140359
:103C6000224A642118462AF08BFE17E007F114035C
:103C70001F4A642118462AF083FE0FE007F114035F
:103C80001C4A642118462AF07BFE07E007F1140362
:103C9000194A642118462AF073FE00BF07F1140385
:103CA0001946F86802F0AEFE12E01449F86FFCF70E
:103CB00017FB0346002B07D10320FCF7B9FE104980
:103CC000F86802F09FFE03E00E49F86802F09AFEE1
:103CD0000D49F86802F096FE8037BD4680BD00BFF2
:103CE000CC1A0708EC1A0708F01A0708041B070883
:103CF0001C1B0708301B0708441B07082C1107086A
:103D00005C1B0708781B0708081A070880B5A0B0D5
:103D100000AFF860B9607A600CF0C8FDF867FB6F1F
:103D20001B7D83F00103DBB2002B04D01749F86838
:103D300002F068FE27E00CF0F7FE034687F87B30C0
:103D400097F87B30002B0DD107F11403104A642142
:103D500018462AF015FE07F114031946F86802F018
:103D600051FE0CE007F114030A4A642118462AF0B8
:103D700007FE07F114031946F86802F043FE0649EE
:103D8000F86802F03FFE8037BD4680BDA81B0708DB
:103D9000CC1B0708F41B0708081A070890B5ABB03E
:103DA00004AFF860B9607A600121B86802F0ECFEF7
:103DB000C7F894000221B86802F0E6FEC7F8900048
:103DC000D7F89430002B03D0D7F89030002B04D1D3
:103DD0003449F86802F016FE61E0D7F894002AF042
:103DE000CBFB034687F88F3000220021D7F89000E4
:103DF0002AF0FAFCC7F888002B4A97F88F30D7F8DA
:103E0000881018460CF08AFD034687F8873097F82B
:103E10008730002B1ED107F1100318460CF01AFE54
:103E20000346002B37D17A693B7C1946BB69B88BB6
:103E3000044607F1200002940193009113461B4AA7
:103E400064212AF09DFD07F120031946F86802F06D
:103E5000D9FD20E097F88730022B0ED197F88F30EC
:103E600007F12000124A64212AF08AFD07F120039D
:103E70001946F86802F0C6FD0DE097F8873007F1A3
:103E800020000C4A64212AF07BFD07F1200319462B
:103E9000F86802F0B7FD0849F86802F0B3FD9C37F6
:103EA000BD4690BD181C0708000000303C1C0708E8
:103EB0007C1C07089C1C0708081A070880B5A4B0DA
:103EC00002AFF860B9607A600CF068FE034687F8CC
:103ED000873097F88730032B38D801A252F823F0A7
:103EE000433F0408053F0408FB3E0408F13E040874
:103EF0001D49F86802F086FD2DE01C49F86802F0C3
:103F000081FD28E007F1100318460CF0A3FD0346DD
:103F1000002B11D1BB8B1A46BB6907F1200000931F
:103F20001346134A64212AF02BFD07F1200319469A
:103F3000F86802F067FD0EE00E49F86802F062FDD5
:103F400009E00D49F86802F05DFD04E00B49F868EE
:103F500002F058FD00BF0A49F86802F053FD00BFA7
:103F60008837BD4680BD00BFC41C0708D01C0708A9
:103F7000DC1C07080C1D0708381D0708481D07082A
:103F8000081A070880B5A6B002AFF860B9607A6079
:103F90000121B86802F0F8FDC7F88400D7F8843032
:103FA000002B04D13A49F86802F02CFD6CE00022A5
:103FB0000021D7F884002AF017FCC7F880000CF025
:103FC00045F9F867FB6FDB7A83F00103DBB2002B66
:103FD00004D03049F86802F015FD55E02E4BD7F8B3
:103FE000801018460CF07EF9034687F87B304FF4BA
:103FF00000512A48FFF70AFB97F87B30002B31D19C
:104000000023A7F88E300023C7F8883012E0224A38
:10401000D7F8883013441A78B7F88E30114618460E
:10402000FFF711FB0346A7F88E30D7F8883001332D
:10403000C7F88830D7F88820D7F880309A42E6D37E
:10404000B7F88E3007F114000093D7F88030144A87
:1040500064212AF095FC07F114031946F86802F070
:10406000D1FC0DE097F87B3007F114000D4A642174
:104070002AF086FC07F114031946F86802F0C2FC26
:104080000949F86802F0BEFC9037BD4680BD00BF0C
:10409000581D0708841D070800000038001002584A
:1040A000A81D0708D41D0708081A070880B588B09E
:1040B00000AFF860B9607A604FF400510948FFF72B
:1040C000B3FA07F11403084A0A2118462AF058FCEB
:1040D00007F114031946F86802F094FC00BF20377A
:1040E000BD4680BD00100258F81D0708F0B5B3B0FA
:1040F00006AFF860B9607A600121B86802F044FD4B
:10410000C7F8AC000221B86802F03EFDC7F8A8006D
:104110000321B86802F038FDC7F8A4000421B8688C
:1041200002F032FDC7F8A0000521B86802F02CFDAE
:10413000C7F89C000621B86802F026FDC7F8980071
:10414000D7F8AC30002B13D0D7F8A830002B0FD005
:10415000D7F8A430002B0BD0D7F8A030002B07D015
:10416000D7F89C30002B03D0D7F89830002B0DD116
:1041700007F11803624A642118462AF001FC07F18E
:1041800018031946F86802F03DFCB6E0D7F8AC0019
:104190002AF0F2F9C7F89400D7F8A8002AF0ECF951
:1041A000C7F89000D7F8A4002AF0E6F9C7F88C0009
:1041B000D7F8A0002AF0E0F9C7F88800D7F89C00EB
:1041C0002AF0DAF9C7F88400D7F898002AF0D4F971
:1041D000C7F88000D7F89430002B03DBD7F8943071
:1041E000172B04DD4749F86802F00CFC85E0D7F88E
:1041F0009030002B03DBD7F890303B2B04DD424995
:10420000F86802F0FFFB78E0D7F88C30002B03DB76
:10421000D7F88C303B2B04DD3C49F86802F0F2FB08
:104220006BE0D7F88830002B03DDD7F888301F2BE0
:1042300004DD3749F86802F0E5FB5EE0D7F884302A
:10424000002B03DDD7F884300C2B04DD3149F868EE
:1042500002F0D8FB51E0D7F88030002B03DBD7F811
:104260008030632B04DD2C49F86802F0CBFB44E07E
:10427000D7F89430DBB2FB74D7F89030DBB23B75E3
:10428000D7F88C30DBB27B75D7F88830DBB23B7463
:10429000D7F88430DBB27B74D7F88030DBB2BB74E4
:1042A00007F1100318460CF0DDFF0BF035FBF86743
:1042B00007F110031946F86F0BF084FBFB7C1E46D8
:1042C0003B7D7A7D397C787C0446B87C054607F1D5
:1042D00018000495039402910192009333460F4A0B
:1042E00064212AF04DFB07F118031946F86802F023
:1042F00089FB0B49F86802F085FBB437BD46F0BD79
:10430000001E0708401E0708741E0708A81E07089D
:10431000DC1E07080C1F0708401F0708881F070836
:10432000081A0708F0B5B7B006AFF860B9607A6050
:104330000121B86802F028FCC7F8BC00D7F8BC30EF
:10434000002B0DD107F14803C84A642118462AF012
:1043500017FB07F148031946F86802F053FB82E1A6
:10436000C349D7F8BC00FBF7BBFF0346002B3FD186
:104370000BF0D2FAC7F8AC0007F140031946D7F8A2
:10438000AC000BF0D3FA0346002B2CD107F13E030F
:104390001946D7F8AC000BF059FB97F843309C4610
:1043A00097F8443097F8452097F8401097F8410067
:1043B000044697F842000546B7F93E00064607F165
:1043C0004800059604950394029101920093634678
:1043D000A84A64212AF0D4FA07F148031946F8687C
:1043E00002F010FB3BE1A449F86802F00BFB36E158
:1043F000A249D7F8BC00FBF773FF0346002B26D178
:1044000007F1380318460CF017FF97F83B301E46AB
:1044100097F83C3097F83D2097F8381097F8390016
:10442000044697F83A00054607F1480004950394BE
:104430000291019200933346914A64212AF0A0FA36
:1044400007F148031946F86802F0DCFA07E18D49E4
:10445000D7F8BC00FBF744FF0346002B2ED1002306
:104460007B63002387F83330002387F83230002342
:1044700087F8313007F1310307F1320207F13301D8
:1044800007F134000CF032FF97F833301C4697F8F0
:10449000323097F83120796BC9B207F148000291A8
:1044A000019200932346784A64212AF069FA07F1C1
:1044B00048031946F86802F0A5FAD0E07349D7F826
:1044C000BC00FBF70DFF0346002B12D10CF000FFE0
:1044D000C7F8B00007F14800D7F8B0306C4A642143
:1044E0002AF04EFA07F148031946F86802F08AFAF2
:1044F000B5E06849D7F8BC00FBF7F2FE0346002B95
:1045000040F0A0800BF008FAC7F8B80007F12803C4
:104510001946D7F8B8000BF009FA0346002B2CD146
:1045200007F116031946D7F8B8000BF08FFA97F881
:104530002B309C4697F82C3097F82D2097F82810B0
:1045400097F82900044697F82A000546B7F916009F
:10455000064607F1480005960495039402910192DE
:1045600000936346434A64212AF00AFA07F148039C
:104570001946F86802F046FA03E04749F86802F085
:1045800041FA07F1200318460CF056FE97F8233045
:104590001E4697F8243097F8252097F8201097F8B2
:1045A0002100044697F82200054607F148000495CB
:1045B00003940291019200933346314A64212AF018
:1045C000DFF907F148031946F86802F01BFA0023E7
:1045D000FB610023FB760023BB7600237B7607F18B
:1045E000190307F11A0207F11B0107F11C000CF077
:1045F0007DFEFB7E1C46BB7E7A7EF969C9B207F15F
:10460000480002910192009323461F4A64212AF038
:10461000B7F907F148031946F86802F0F3F90CF00E
:1046200057FEC7F8B40007F14800D7F8B430184A6D
:1046300064212AF0A5F907F148031946F86802F049
:10464000E1F90CE007F14803144A642118462AF006
:1046500097F907F148031946F86802F0D3F91049B1
:10466000F86802F0CFF9C437BD46F0BDB81F07089F
:10467000E41F0708EC1F070834200708502007082C
:1046800058200708942007089C200708D020070816
:10469000D8200708E8200708EC20070804210708AD
:1046A000081A0708F0B5A9B006AFF860B9607A60DB
:1046B0000121B86802F068FAC7F88400D7F884309E
:1046C000002B0DD107F118032F4A642118462AF058
:1046D00057F907F118031946F86802F093F950E00A
:1046E00000220021D7F884002AF07EF8C7F8800065
:1046F000D7F88030254A93420DD807F11800244B93
:10470000244A64212AF03CF907F118031946F86895
:1047100002F078F935E0D7F880000CF0B9FDD7F851
:1047200080201D4B134407F11002114618460CF06F
:10473000E7FA0BF0F1F8F86707F110031946F86F84
:104740000BF040F9FB7C1E463B7D7A7D397C787C02
:104750000446B87C054607F11800049503940291BD
:104760000192009333460D4A64212AF009F907F1BA
:1047700018031946F86802F045F90949F86802F08B
:1047800041F98C37BD46F0BD3C2107087F436D38A9
:1047900080436D385821070880BC92C7881F0708DE
:1047A000081A070880B5A4B002AFF860B9607A6053
:1047B0000121B86802F0E8F9C7F884000221B8685E
:1047C00002F0E2F9C7F88000D7F88430002B03D05C
:1047D000D7F88030002B0DD107F11403254A64214E
:1047E00018462AF0CDF807F114031946F86802F0CC
:1047F00009F93CE000220021D7F8840029F07AFF73
:104800000346A7F87E3000220021D7F8800029F067
:1048100071FF0346DBB2FB740BF0AEF9B867B7F873
:104820007E1007F113020123B86F0BF00DFA034657
:10483000002B0AD1B7F87E30FA7C07F11400009201
:104840000D4A64212AF09CF807E0B7F87E3007F1A2
:1048500014000A4A64212AF093F807F11403194658
:10486000F86802F0CFF80649F86802F0CBF888370C
:10487000BD4680BD782107089C210708BC21070898
:10488000081A070880B5A4B002AFF860B9607A6072
:104890000121B86802F078F9C7F88400D7F88430AD
:1048A000002B0DD107F11803224A642118462AF083
:1048B00067F807F118031946F86802F0A3F835E025
:1048C00000220021D7F8840029F014FF0346A7F83E
:1048D00082300023FB750BF04FF9F867B7F88210B0
:1048E00007F117020123F86F0BF03DFA0346002B86
:1048F0000AD1B7F88230FA7D07F1180000920E4A0B
:1049000064212AF03DF807E0B7F8823007F118007B
:104910000A4A64212AF034F807F118031946F868A6
:1049200002F070F80649F86802F06CF88837BD4666
:1049300080BD00BFD8210708F4210708142207080A
:10494000081A070880B584B000AFF860B9607A60D3
:10495000F86804F083F90449F86802F053F800BFDE
:104960001037BD4680BD00BF081A070880B586B065
:1049700000AFF860B9607A6003F0C0FE1EF0D0FCB2
:104980000D49F86802F03EF803F080FF0346FB751E
:10499000FB7D002B04D00949F86802F033F803E0EE
:1049A0000749F86802F02EF80649F86802F02AF87C
:1049B00000BF1837BD4680BD3022070848220708CF
:1049C0005C220708081A070880B584B000AFF860B9
:1049D000B9607A601EF09AFC03F0A2FE0549F868FF
:1049E00002F010F80449F86802F00CF800BF103724
:1049F000BD4680BD78220708081A070880B5A6B012
:104A000000AFF860B9607A600121B86802F0BCF8C4
:104A1000C7F894000221B86802F0B6F8C7F8900011
:104A2000D7F89430002B03D0D7F89030002B04D166
:104A30001149F86801F0E6FF1BE0D7F89020D7F89D
:104A40009410F86804F01EF80346002B0DD107F10E
:104A50001000D7F89430094A802129F091FF07F11E
:104A600010031946F86801F0CDFF0549F86801F018
:104A7000C9FF9837BD4680BD90220708B0220708BD
:104A8000081A070880B5A8B000AFF860B9607A606E
:104A90000121B86802F078F8C7F89C000221B868D4
:104AA00002F072F8C7F89800D7F89C30002B03D0BA
:104AB000D7F89830002B04D11C49F86801F0A2FF08
:104AC00031E0D7F89800FBF715FCC7F89400D7F849
:104AD0009430B3F5005F04D91549F86801F092FFEE
:104AE00021E0D7F89420D7F89810D7F89C0003F06D
:104AF00047FE0346002B0ED107F11400D7F89C3077
:104B00000C4A802129F03CFF07F114031946F8688C
:104B100001F078FF03E00849F86801F073FF0749E6
:104B2000F86801F06FFFA037BD4680BD90220708EE
:104B3000C8220708B0220708E4220708081A070855
:104B400080B586B000AFF860B9607A600121B868BE
:104B500002F01AF878617B69002B04D10749F868E4
:104B600001F050FF07E07969F86803F0B1FE0449ED
:104B7000F86801F047FF1837BD4680BDFC220708E2
:104B8000081A070880B584B000AFF860B9607A6091
:104B900080210B48FEF748FD642016F00BFB8021B6
:104BA0000748FEF733FD0749F86801F02BFF064977
:104BB000F86801F027FF00BF1037BD4680BD00BF79
:104BC0000018025814230708081A070880B584B093
:104BD00000AFF860B9607A604FF480710748FEF763
:104BE00015FD0749F86801F00DFF0649F86801F066
:104BF00009FF00BF1037BD4680BD00BF0018025836
:104C000030230708081A070880B584B000AFF860A1
:104C1000B9607A604FF480710748FEF705FD0749D7
:104C2000F86801F0EFFE0649F86801F0EBFE00BFFE
:104C30001037BD4680BD00BF001802585823070832
:104C4000081A070880B586B000AFF860B9607A60CE
:104C50000121B86801F098FF78617B69002B04D1CD
:104C60001E49F86801F0CEFE35E01D497869FBF772
:104C700037FB0346002B07D11A49F86801F0C2FE42
:104C80000120FBF7F9FE22E017497869FBF728FBC2
:104C90000346002B07D11549F86801F0B3FE022046
:104CA000FBF7EAFE13E012497869FBF719FB0346AC
:104CB000002B07D10F49F86801F0A4FE0020FBF794
:104CC000DBFE04E00C49F86801F09CFE03E00B49B0
:104CD000F86801F097FE1837BD4680BD80230708AD
:104CE000A4230708A8230708D8230708DC230708FC
:104CF0000C2407081424070848240708081A070882
:104D000080B586B000AFF860B9607A600121B868FC
:104D100001F03AFF78617B69002B04D11E49F868E5
:104D200001F070FE34E01D497869FBF7D9FA0346BB
:104D3000002B07D10320FBF79FFE1949F86801F00B
:104D400061FE21E017497869FBF7CAFA0346002B98
:104D500007D10420FBF790FE1349F86801F052FEDA
:104D600012E012497869FBF7BBFA0346002B07D122
:104D70000020FBF781FE0E49F86801F043FE03E0D6
:104D80000C49F86801F03EFE0B49F86801F03AFE64
:104D90001837BD4680BD00BF80240708A42307083C
:104DA000A0240708D8230708E824070828250708AF
:104DB0002C2507085C250708081A070880B588B065
:104DC00000AFF860B9607A600121B86801F0DCFEDC
:104DD000B861BB69002B04D11649F86801F012FED6
:104DE00025E0B869FBF786FA78610D211248FDF7D6
:104DF00081FD0023FB610AE0BA69FB6913441B785B
:104E000019460D48FDF776FDFB690133FB61FA6930
:104E10007B699A42F0D30D210748FDF76BFD0749E6
:104E2000F86801F0EFFD0649F86801F0EBFD203766
:104E3000BD4680BD9025070800780040AC250708D6
:104E4000081A070880B584B000AFF860B9607A60CE
:104E50000949F86801F0D6FD0849F86801F0D2FD6B
:104E60000749F86801F0CEFD0649F86801F0CAFD6F
:104E700000BF1037BD4680BD00260708242607085E
:104E800044260708081A070890B5ADF2544D04AF40
:104E900007F58863A3F23443186007F58863A3F528
:104EA0008763196007F58863A3F23C431A601623F1
:104EB000C7F8343416F0F0FBC7F8300407F11400DB
:104EC000D7F83034734A4FF4807129F059FD07F157
:104ED000140207F58863A3F234431146186801F001
:104EE00091FD07F58A730022D7F83414184616F09E
:104EF000DFFBC7F82C04D7F82C34002B10D107F5B2
:104F00008863A3F234436449186801F07BFD07F518
:104F10008863A3F234436149186801F073FDB4E07B
:104F200007F11400D7F82C345D4A4FF4807129F052
:104F300027FD07F1140207F58863A3F234431146F5
:104F4000186801F05FFD07F58863A3F23443554903
:104F5000186801F057FD07F58863A3F234435249FE
:104F6000186801F04FFD0023C7F83C3477E007F5DF
:104F70008863A3F54B71D7F83C241346DB00134438
:104F80009B000B440C331B78042B21D801A252F850
:104F900023F000BFA94F0408B14F0408B94F04081B
:104FA000C14F0408C94F0408404BC7F8383413E018
:104FB0003F4BC7F838340FE03E4BC7F838340BE0AE
:104FC0003D4BC7F8383407E03C4BC7F8383403E0B2
:104FD0003B4BC7F8383400BF07F58863A3F54B7126
:104FE000D7F83C241346DB0013449B000B440433E6
:104FF0001C6807F58863A3F54B71D7F83C2413466A
:10500000DB0013449B000B441033196807F58863D9
:10501000A3F54B70D7F83C241346DB0013449B00E8
:10502000034420331B6807F1140002930191D7F861
:10503000383400932346234A4FF4807129F0A0FCB2
:1050400007F1140207F58863A3F234431146186888
:1050500001F0D8FCD7F83C340133C7F83C34D7F81A
:105060003C24D7F82C349A4281D307F58863A3F205
:1050700034430D49186801F0C5FC07F58863A3F2B5
:1050800034430649186801F0BDFC07F24447BD46A9
:1050900090BD00BF6026070880260708081A070889
:1050A000A4260708B8260708E826070814270708D3
:1050B0001C270708242707082C2707083427070878
:1050C0003C2707084427070880B582B000AF786006
:1050D0000348FDF7DDFF00BF0837BD4680BD00BFB8
:1050E0001808002490B587B002AFF860B9607A6004
:1050F0001349F86801F086FC124B1B68002B0AD19B
:10510000114B0093002300226421104817F05AFB32
:1051100003460C4A13600B4B1B68002B0BD0094B4A
:105120001C6816F0A9FA024600230093002301210F
:10513000204617F0A3FB00BF1437BD4690BD00BF4B
:105140005C270708FC9C0024C95004086C2707084A
:1051500080B58AB000AFF860B9607A600121B868A4
:1051600001F012FD78627B6A002B04D12949F868AE
:1051700001F048FC4AE02848FEF724FA034687F885
:10518000233097F82330032B3BD1786AFBF7B2F832
:10519000F861FB69102B04D92049F86801F032FC52
:1051A00034E00AF0E9FCB861FB69DBB2FB7507F19A
:1051B000170201230021B8690AF046FD0346002BBF
:1051C00004D01749F86801F01DFC1FE0FB69002BB3
:1051D0000ED0FB699BB27A6A0121B8690AF034FDEE
:1051E0000346002B04D00F49F86801F00BFC0DE0DA
:1051F0000D49F86801F006FC0C49F86801F002FC62
:1052000004E00B49F86801F0FDFB00BF2837BD46FC
:1052100080BD00BF78270708180800249C270708CE
:10522000C4270708F027070814280708081A0708E2
:105230003828070880B596B000AFF860B9607A608A
:105240000121B86801F0A0FC78651949F86801F0FF
:10525000D9FB7B6D002B0BD11649F86801F0D2FB0E
:10526000F86803F087F91449F86801F0CBFB16E001
:105270000A220021786D29F0B7FA386507F110008D
:105280003B6D0E4A402129F07BFB07F110031946C4
:10529000F86801F0B7FBF968386D03F09FF9084929
:1052A000F86801F0AFFB00BF5837BD4680BD00BFB6
:1052B000682807088028070890280708A0280708FA
:1052C000081A070880B584B000AFF860B9607A604A
:1052D000FEF786F980B59EB000AFF860B9607A60DD
:1052E00003F064FF07F11403094A6421184629F00A
:1052F00047FB07F114031946F86801F083FB0549E1
:10530000F86801F07FFB00BF7837BD4680BD00BF65
:10531000B4280708081A070880B5A0B000AFF860E5
:10532000B9607A600121B86801F02EFCF867FB6F64
:10533000002B0DD107F11403144A6421184629F0FB
:105340001FFB07F114031946F86801F05BFB19E035
:1053500000220021F86F29F047FAB867B86F03F010
:105360005BFF07F11400BB6F094A642129F008FBB9
:1053700007F114031946F86801F044FB0549F86881
:1053800001F040FB8037BD4680BD00BFD028070834
:10539000F8280708081A070880B5A0B000AFF86021
:1053A000B9607A600121B86801F0EEFBF867FB6F25
:1053B000002B0DD107F114031D4A6421184629F072
:1053C000DFFA07F114031946F86801F01BFB2CE023
:1053D00000220021F86F29F007FAB867BB6F1B0E97
:1053E000DBB23B74BB6F1B0CDBB27B74BB6F1B0A65
:1053F000DBB2BB74BB6FDBB2FB7407F1100204239A
:1054000099210C481CF034FF07F11400BB6F0A4AC5
:10541000642129F0B5FA07F114031946F86801F080
:10542000F1FA0649F86801F0EDFA8037BD4680BD13
:10543000242907087408002450290708081A0708B7
:1054400090B5A5B004AFF860B9607A6003F034FF9E
:1054500007F1140318460BF0EFFE3B7D1C46FB7D65
:105460003A7E797E07F11C00029101920093234657
:10547000084A642129F084FA07F11C031946F868E8
:1054800001F0C0FA0449F86801F0BCFA00BF8437A3
:10549000BD4690BD80290708081A0708F0B5BFB0BF
:1054A00008AFF860B9607A60002387F8D73000232E
:1054B000C7F8D03015E0D7F8D0309BB201339BB29B
:1054C0001946B86801F060FB0246D7F8D0309B005F
:1054D000D8333B4443F8C82CD7F8D0300133C7F851
:1054E000D030D7F8D030072BE5DD0023C7F8CC301B
:1054F0001BE0D7F8CC309B00D8333B4453F8C83C72
:10550000002B0DD107F13003534A9621184629F09C
:1055100037FA07F130031946F86801F073FA97E09B
:10552000D7F8CC300133C7F8CC30D7F8CC30072BC4
:10553000DFDD0023C7F8C83033E0D7F8C8309B0060
:10554000D8333B4453F8C83C00220021184629F0C8
:105550004BF9034687F8C73097F8C730012B0ED9AF
:1055600007F13000D7F8C8303C4A962129F008FAF4
:1055700007F130031946F86801F044FA68E097F83B
:10558000C720D7F8C83002FA03F35AB297F9D730D8
:1055900013435BB287F8D730D7F8C8300133C7F868
:1055A000C830D7F8C830072BC7DD97F8D730184672
:1055B00003F0D2FE97F8D7E097F8D73003F0010355
:1055C0003B6097F8D7205208D2B202F0010297F858
:1055D000D7108908C9B201F0010197F8D700C008B7
:1055E000C0B200F0010097F8D7402409E4B204F0FB
:1055F000010497F8D7506D09EDB205F0010597F851
:10560000D760B609F6B206F0010697F8D7C04FEAA0
:10561000DC1C5FFA8CFC0CF0010307F1300C0793E3
:105620000696059504940390029101923B680093BD
:1056300073460B4A9621604629F0A2F907F1300320
:105640001946F86801F0DEF90649F86801F0DAF960
:10565000DC37BD46F0BD00BFAC290708E8290708C4
:10566000242A0708081A0708F0B5DFB00AAF07F5C3
:10567000A873A3F59E73186007F5A873A3F5A0732C
:10568000196007F5A873A3F5A2731A6007F5A8734C
:10569000A3F5A0730121186801F076FAC7F84C0150
:1056A00007F5A873A3F5A0730221186801F06CFA3E
:1056B000C7F8480107F5A873A3F5A073032118687C
:1056C00001F062FAC7F8440107F5A873A3F5A073C7
:1056D0000421186801F058FAC7F8400107F5A873CB
:1056E000A3F5A0730521186801F04EFAC7F83C0134
:1056F00007F5A873A3F5A0730621186801F044FA12
:10570000C7F8380107F5A873A3F5A0730721186837
:1057100001F03AFAC7F8340107F5A873A3F5A073AE
:105720000821186801F030FAC7F8300107F5A873AE
:10573000A3F5A0730921186801F026FAC7F82C0117
:1057400007F5A873A3F5A0730A21186801F01CFAE5
:10575000C7F82801D7F84C31002B23D0D7F84831AF
:10576000002B1FD0D7F84431002B1BD0D7F8403185
:10577000002B17D0D7F83C31002B13D0D7F8383195
:10578000002B0FD0D7F83431002B0BD0D7F83031A5
:10579000002B07D0D7F82C31002B03D0D7F82831B5
:1057A000002B12D107F11803644A4FF48071184698
:1057B00029F0E6F807F1180207F5A873A3F59E7320
:1057C0001146186801F01EF9B3E000220021D7F855
:1057D0004C0129F009F80346A7F8263100220021E0
:1057E000D7F8480129F000F80346A7F82431002231
:1057F0000021D7F8440128F0F7FF0346A7F822312B
:1058000000220021D7F8400128F0EEFF034687F878
:10581000213100220021D7F83C0128F0E5FF0346A2
:1058200087F8203100220021D7F8380128F0DCFF6A
:10583000034687F81F3100220021D7F8340128F0F1
:10584000D3FF034687F81E3100220021D7F830012C
:1058500028F0CAFF034687F81D3100220021D7F83F
:105860002C0128F0C1FF0346A7F81A3100220021BD
:10587000D7F8280128F0B8FF034687F8193197F8C0
:105880002141B7F82221B7F82411B7F8260197F87B
:1058900019310593B7F81A31049397F81D31039322
:1058A00097F81E31029397F81F31019397F8203132
:1058B0000093234603F092FDB7F826E1B7F82431B0
:1058C000BB60B7F8222197F8211197F8200197F8CB
:1058D0001F4197F81E5197F81D61B7F81A317B6088
:1058E00097F819C1634607F1180C08937B68079372
:1058F000069605950494039002910192BB6800936B
:1059000073460F4A4FF48071604629F039F807F169
:10591000180207F5A873A3F59E731146186801F0E5
:1059200071F807F5A873A3F59E730649186801F08E
:1059300069F807F5AA77BD46F0BD00BFA42A07089D
:10594000242B0708081A070880B584B000AFF86058
:10595000B9607A6003F0C8FD0549F86801F052F8B3
:105960000449F86801F04EF800BF1037BD4680BD0D
:10597000742B0708081A070880B584B000AFF860D8
:10598000B9607A6003F0EEFD0549F86801F03AF875
:105990000449F86801F036F800BF1037BD4680BDF5
:1059A000902B0708081A070880B5A4B002AFF8606A
:1059B000B9607A600121B86801F0E6F8C7F88400A0
:1059C0000221B86801F0E0F8C7F880000321B86848
:1059D00001F0DAF8F867D7F88430002B06D0D7F852
:1059E0008030002B02D0FB6F002B0DD107F110038C
:1059F000254A6421184628F0C3FF07F11003194611
:105A0000F86800F0FFFF3BE000220021D7F8840097
:105A100028F0EAFE0346A7F87A3000220021D7F8E2
:105A2000800028F0E1FE034687F87930002200214B
:105A3000F86F28F0D9FE0346A7F87630B7F876203D
:105A400097F87910B7F87A30184603F0C9FDB7F81F
:105A50007A1097F87930B7F8762007F110000192A4
:105A600000930B46094A642128F08AFF07F11003CE
:105A70001946F86800F0C6FF0549F86800F0C2FF53
:105A80008837BD4680BD00BFAC2B0708F02B070848
:105A9000081A070880B584B000AFF860B9607A6072
:105AA00003F0FAFD0549F86800F0ACFF0449F86816
:105AB00000F0A8FF00BF1037BD4680BD2C2C0708A2
:105AC000081A070880B584B000AFF860B9607A6042
:105AD00003F020FE0549F86800F094FF0449F868D7
